:020000040800F2
:100000000050002015190008451400084714000886
:10001000491400084B1400084D14000800000000AB
:100020000000000000000000000000004F14000865
:100030005114000800000000531400085514000873
:100040005D1900085D1900085D1900085D190008B8
:100050005D1900085D1900085D14000867140008A8
:100060005D1900085D1900085D1900087114000889
:100070005D1900085D1900085D1900085D19000888
:100080005D1900085D1900085D1900085D19000878
:10009000811400085D1900085D1900085D19000849
:1000A0005D1900085D1900085D1900085D19000858
:1000B0005D1900085D1900085D1900085D19000848
:1000C0005D1900085D1900085D1900085D19000838
:1000D0005D1900085D1900085D1900085D19000828
:1000E0005D1900085D1900085D1900080000000096
:1000F0000000000000000000000000000000000000
:0C01000000000000000000005FF808F1A3
:1001100010B5054C237833B9044B13B10448AFF341
:1001200000800123237010BDF00A002000000000B1
:1001300030E1000808B5034B1BB103490348AFF396
:10014000008008BD00000000F40A002030E1000833
:1001500081F0004102E000BF83F0004330B54FEA78
:1001600041044FEA430594EA050F08BF90EA020FE5
:100170001FBF54EA000C55EA020C7FEA645C7FEA78
:10018000655C00F0E2804FEA5454D4EB5555B8BF9B
:100190006D420CDD2C4480EA020281EA030382EA0C
:1001A000000083EA010180EA020281EA0303362D9E
:1001B00088BF30BD11F0004F4FEA01314FF4801C71
:1001C0004CEA113102D0404261EB410113F0004F83
:1001D0004FEA03334CEA133302D0524263EB43033A
:1001E00094EA050F00F0A780A4F10104D5F1200ED8
:1001F0000DDB02FA0EFC22FA05F2801841F1000133
:1002000003FA0EF2801843FA05F359410EE0A5F106
:1002100020050EF1200E012A03FA0EFC28BF4CF037
:10022000020C43FA05F3C01851EBE37101F00045ED
:1002300007D54FF0000EDCF1000C7EEB00006EEBFA
:100240000101B1F5801F1BD3B1F5001F0CD3490884
:100250005FEA30004FEA3C0C04F101044FEA4452DB
:1002600012F5800F80F09A80BCF1004F08BF5FEA62
:10027000500C50F1000041EB045141EA050130BD42
:100280005FEA4C0C404141EB0101013C28BFB1F554
:10029000801FE9D291F0000F04BF01460020B1FA9F
:1002A00081F308BF2033A3F10B03B3F120020CDA72
:1002B0000C3208DD02F1140CC2F10C0201FA0CF050
:1002C00021FA02F10CE002F11402D8BFC2F1200CB5
:1002D00001FA02F120FA0CFCDCBF41EA0C0190406B
:1002E000E41AA2BF01EB0451294330BD6FEA0404B4
:1002F0001F3C1CDA0C340EDC04F11404C4F120029F
:1003000020FA04F001FA02F340EA030021FA04F3B0
:1003100045EA030130BDC4F10C04C4F1200220FA07
:1003200002F001FA04F340EA0300294630BD21FA45
:1003300004F0294630BD94F0000F83F4801306BF0B
:1003400081F480110134013D4EE77FEA645C18BFFF
:100350007FEA655C29D094EA050F08BF90EA020F96
:1003600005D054EA000C04BF1946104630BD91EA8E
:10037000030F1EBF0021002030BD5FEA545C05D191
:100380004000494128BF41F0004130BD14F58004D0
:100390003CBF01F5801130BD01F0004545F0FE4144
:1003A00041F470014FF0000030BD7FEA645C1ABF79
:1003B000194610467FEA655C1CBF0B46024650EAB0
:1003C000013406BF52EA033591EA030F41F40021DC
:1003D00030BD00BF90F0000F04BF0021704730B562
:1003E0004FF4806404F132044FF000054FF0000137
:1003F00050E700BF90F0000F04BF0021704730B5F8
:100400004FF4806404F1320410F0004548BF4042CC
:100410004FF000013EE700BF42004FEAE2014FEA21
:1004200031014FEA02701FBF12F07F4393F07F4FFC
:1004300081F06051704732F07F4208BF704793F0FF
:100440007F4F04BF41F40021704730B54FF4607412
:1004500001F0004521F000411CE700BF50EA010215
:1004600008BF704730B54FF000050AE050EA0102BE
:1004700008BF704730B511F0004502D5404261EB2E
:1004800041014FF4806404F132045FEA915C3FF46F
:10049000D8AE4FF003025FEADC0C18BF03325FEA0C
:1004A000DC0C18BF033202EBDC02C2F1200300FABD
:1004B00003FC20FA02F001FA03FE40EA0E0021FAE2
:1004C00002F11444BDE600BF70B54FF0FF0C4CF4D0
:1004D000E06C1CEA11541DBF1CEA135594EA0C0F82
:1004E00095EA0C0F00F0DEF82C4481EA030621EABD
:1004F0004C5123EA4C5350EA013518BF52EA0335F8
:1005000041F4801143F4801338D0A0FB02CE4FF0A9
:100510000005E1FB02E506F00042E0FB03E54FF0D9
:100520000006E1FB03569CF0000F18BF4EF0010ED1
:10053000A4F1FF04B6F5007F64F5407404D25FEACD
:100540004E0E6D4146EB060642EAC62141EA555180
:100550004FEAC52040EA5E504FEACE2EB4F1FD0CC2
:1005600088BFBCF5E06F1ED8BEF1004F08BF5FEA40
:10057000500E50F1000041EB045170BD06F00046F2
:1005800046EA010140EA020081EA0301B4EB5C049F
:10059000C2BFD4EB0C0541EA045170BD41F4801197
:1005A0004FF0000E013C00F3AB8014F1360FDEBFBC
:1005B000002001F0004170BDC4F10004203C35DA98
:1005C0000C341BDC04F11404C4F1200500FA05F31B
:1005D00020FA04F001FA05F240EA020001F00042BC
:1005E00021F0004110EBD37021FA04F642EB060132
:1005F0005EEA430E08BF20EAD37070BDC4F10C045C
:10060000C4F1200500FA04F320FA05F001FA04F21F
:1006100040EA020001F0004110EBD37041F100010B
:100620005EEA430E08BF20EAD37070BDC4F1200516
:1006300000FA05F24EEA020E20FA04F301FA05F27E
:1006400043EA020321FA04F001F0004121FA04F226
:1006500020EA020000EBD3705EEA430E08BF20EAF6
:10066000D37070BD94F0000F0FD101F00046400030
:1006700041EB010111F4801F08BF013CF7D041EAB2
:10068000060195F0000F18BF704703F000465200B6
:1006900043EB030313F4801F08BF013DF7D043EA87
:1006A0000603704794EA0C0F0CEA135518BF95EA3D
:1006B0000C0F0CD050EA410618BF52EA4306D1D1C4
:1006C00081EA030101F000414FF0000070BD50EAE3
:1006D000410606BF1046194652EA430619D094EA6D
:1006E0000C0F02D150EA013613D195EA0C0F05D157
:1006F00052EA03361CBF104619460AD181EA0301AB
:1007000001F0004141F0FE4141F470014FF0000062
:1007100070BD41F0FE4141F4780170BD70B54FF0FD
:10072000FF0C4CF4E06C1CEA11541DBF1CEA13557D
:1007300094EA0C0F95EA0C0F00F0A7F8A4EB05045F
:1007400081EA030E52EA03354FEA013100F0888056
:100750004FEA03334FF0805545EA131343EA12631F
:100760004FEA022245EA111545EA10654FEA0026D4
:100770000EF000419D4208BF964244F1FD0404F58D
:10078000407402D25B084FEA3202B61A65EB0305E9
:100790005B084FEA32024FF480104FF4002CB6EBA6
:1007A000020E75EB030E22BFB61A754640EA0C0026
:1007B0005B084FEA3202B6EB020E75EB030E22BF66
:1007C000B61A754640EA5C005B084FEA3202B6EBA7
:1007D000020E75EB030E22BFB61A754640EA9C0066
:1007E0005B084FEA3202B6EB020E75EB030E22BF36
:1007F000B61A754640EADC0055EA060E18D04FEAF4
:10080000051545EA16754FEA06164FEAC30343EA93
:1008100052734FEAC2025FEA1C1CC0D111F4801F60
:100820000BD141EA00014FF000004FF0004CB6E759
:1008300011F4801F04BF01430020B4F1FD0C88BFF8
:10084000BCF5E06F3FF6AFAEB5EB030C04BFB6EB03
:10085000020C5FEA500C50F1000041EB045170BDF6
:100860000EF0004E4EEA113114EB5C04C2BFD4EB23
:100870000C0541EA045170BD41F480114FF0000EA7
:10088000013C90E645EA060E8DE60CEA135594EA23
:100890000C0F08BF95EA0C0F3FF43BAF94EA0C0F26
:1008A0000AD150EA01347FF434AF95EA0C0F7FF49B
:1008B00025AF104619462CE795EA0C0F06D152EAEF
:1008C00003353FF4FDAE1046194622E750EA4106D3
:1008D00018BF52EA43067FF4C5AE50EA41047FF4E4
:1008E0000DAF52EA43057FF4EBAE12E74FEA410247
:1008F000B2F1E04324BFB3F5001CDCF1FE5C0DD97E
:1009000001F0004C4FEAC0024CEA5070B2F1004FC7
:1009100040EB830008BF20F00100704711F0804FCA
:1009200021D113F13872BCBF01F00040704741F48F
:1009300080114FEA5252C2F11802C2F1200C10FA93
:100940000CF320FA02F018BF40F001004FEAC12377
:100950004FEAD32303FA0CFC40EA0C0023FA02F31B
:100960004FEA4303CCE77FEA625307D150EA0133F1
:100970001EBF4FF0FE4040F44000704701F00040C1
:1009800040F0FE4040F40000704700BF844641EA5A
:10099000000313F0030349D1403A23D30B680360EB
:1009A0004B6843608B688360CB68C3600B690361ED
:1009B0004B6943618B698361CB69C3610B6A0362D5
:1009C0004B6A43628B6A8362CB6AC3620B6B0363BD
:1009D0004B6B43638B6B8363CB6BC36340304031A2
:1009E000403ADBD230320BD30B6803604B68436074
:1009F0008B688360CB68C36010301031103AF3D23B
:100A00000C3205D351F8043B40F8043B043AF9D2C8
:100A1000043208D0D2071CBF11F8013B00F8013B9B
:100A200001D30B8803806046704700BF082A13D3A8
:100A30008B07B1D010F00303AED0C3F10403D21A78
:100A4000DB071CBF11F8013B00F8013BA4D331F8D0
:100A5000023B20F8023B9FE7043AD9D3013A11F850
:100A6000013B00F8013BF9D20B7803704B784370DF
:100A70008B788370604670474FF0FF3C06E000BF04
:100A80004FF0010C02E000BF4FF0010C4DF804CD17
:100A90004FEA410C7FEA6C5C4FEA430C18BF7FEAD7
:100AA0006C5C1BD001B050EA410C0CBF52EA430C05
:100AB00091EA030F02BF90EA020F0020704710F185
:100AC000000F91EA030F58BF994208BF90422CBF14
:100AD000D8176FEAE37040F0010070474FEA410C0D
:100AE0007FEA6C5C02D150EA013C07D14FEA430C2B
:100AF0007FEA6C5CD6D152EA033CD3D05DF8040B9C
:100B0000704700BF8446104662468C4619466346CD
:100B100000E000BF01B5FFF7B7FF002848BF10F1A4
:100B2000000F01BD4DF808EDFFF7F4FF0CBF0120E9
:100B300000205DF808FB00BF4DF808EDFFF7EAFF65
:100B400034BF012000205DF808FB00BF4DF808ED20
:100B5000FFF7E0FF94BF012000205DF808FB00BF15
:100B60004DF808EDFFF7CEFF94BF012000205DF89F
:100B700008FB00BF4DF808EDFFF7C4FF34BF0120AC
:100B800000205DF808FB00BF4FEA410C7FEA6C5C77
:100B900002D150EA013C0AD14FEA430C7FEA6C5C77
:100BA00002D152EA033C02D14FF0000070474FF0EF
:100BB000010070474FEA410212F5001215D211D51B
:100BC0006FF47873B3EB625212D94FEAC12343F04A
:100BD000004343EA505311F0004F23FA02F018BFCC
:100BE000404270474FF00000704750EA013005D195
:100BF00011F0004008BF6FF0004070474FF0000058
:100C0000704700BF53B94AB9002908BF00281CBF6C
:100C10004FF0FF314FF0FF3000F076B9ADF1080C26
:100C20006DE904CE00F006F8DDF804E0DDE902230A
:100C300004B070472DE9F047089E0D4604468846EB
:100C4000002B4DD18A42944668D9B2FA82F252B151
:100C500001FA02F3C2F1200120FA01F10CFA02FCC0
:100C600041EA030894404FEA1C41B8FBF1F71FFA30
:100C70008CFE01FB178807FB0EF0230C43EA0843A8
:100C800098420AD91CEB030307F1FF3580F01E815F
:100C9000984240F21B81023F63441B1AB3FBF1F000
:100CA00001FB103300FB0EFEA4B244EA0344A64548
:100CB0000AD91CEB040400F1FF3380F00981A6453A
:100CC00040F20681644402380021A4EB0E0440EA9D
:100CD00007401EB10023D440C6E90043BDE8F087B9
:100CE0008B4208D9002E00F0EE800021C6E90005F5
:100CF0000846BDE8F087B3FA83F100294AD1AB4238
:100D000002D3824200F2FC80841A65EB03030120C7
:100D10009846002EE2D0C6E90048DFE702B9FFDEC0
:100D2000B2FA82F2002A40F09180A1EB0C0001217E
:100D30004FEA1C471FFA8CFEB0FBF7F307FB1300CA
:100D4000250C45EA00450EFB03F0A84208D91CEB30
:100D5000050503F1FF3802D2A84200F2CE804346D7
:100D60002D1AB5FBF7F007FB10550EFB00FEA4B2E1
:100D700044EA0544A64508D91CEB040400F1FF35FC
:100D800002D2A64500F2B6802846A4EB0E0440EA43
:100D900003409EE7C1F120078B4022FA07FC4CEA92
:100DA000030C25FA07FA4FEA1C49BAFBF9F820FAB6
:100DB00007F309FB18AA8D401FFA8CFE1D4300FAA9
:100DC00001F308FB0EF02C0C44EA0A44A04202FA9C
:100DD00001F20BD91CEB040408F1FF3A80F0888083
:100DE000A04240F28580A8F102086444241AB4FBB2
:100DF000F9F009FB104400FB0EFEADB245EA0444D5
:100E0000A64508D91CEB040400F1FF356CD2A645B9
:100E10006AD90238644440EA0840A0FB0295A4EB7A
:100E20000E04AC42C846AE4656D353D0002E69D00D
:100E3000B3EB080264EB0E0422FA01F304FA07F79D
:100E40001F43CC40C6E90074002147E70CFA02FCBE
:100E5000C2F1200125FA01F34FEA1C4720FA01F103
:100E600095400D43B3FBF7F107FB11331FFA8CFEDE
:100E7000280C40EA034001FB0EF3834204FA02F41B
:100E800008D91CEB000001F1FF382FD283422DD985
:100E900002396044C01AB0FBF7F307FB1300ADB290
:100EA00045EA004503FB0EF0A84208D91CEB0505F6
:100EB00003F1FF3816D2A84214D9023B6544281A20
:100EC00043EA014138E73146304607E72F46E4E67A
:100ED0001846F9E64B45A9D2B9EB020865EB0C0EB2
:100EE0000138A3E74346EAE7284694E74146D1E7BD
:100EF000D0467BE76444023847E7023B65442FE76E
:100F0000084606E73146E9E6704700BF00B585B000
:100F100000230193029303931A481B4A02604FF483
:100F2000807282600122027303754FF46022C261F5
:100F300043600223036100F03FFEC8B90923019317
:100F4000012302930023039301A90E4800F066FDDC
:100F500088B90823019302230293042303930DEB22
:100F60000301084800F05AFD40B905B05DF804FBE4
:100F700000F074F9E2E700F071F9EAE700F06EF9C9
:100F8000F3E700BF0C0B00200024014010B586B031
:100F90000023029303930493059302681E4B9A4225
:100FA00001D006B010BD044603F56C439A6942F4C3
:100FB00000729A619A6902F400720092009A9A692A
:100FC00042F008029A619B6903F008030193019BB8
:100FD00003230293039302A9104800F0B5FF1048C1
:100FE000104B03600023436083608023C3604FF491
:100FF000807303614FF480634361202383614FF466
:101000000053C36100F0C8FE18B9054B23625C624F
:10101000C7E700F023F9F8E700240140000C014085
:101020003C0B00200800024000B583B00A4B5A690F
:1010300042F001025A615B6903F001030193019BD5
:10104000002211460B2000F04DFE0B2000F082FE26
:1010500003B05DF804FB00BF001002402DE9F04131
:1010600088B0002404940594069407944E4B9A6922
:1010700042F010029A619A6902F010020092009AFE
:101080009A6942F020029A619A6902F02002019264
:10109000019A9A6942F004029A619A6902F0040284
:1010A0000292029A9A6942F008029A619B6903F0DF
:1010B00008030393039B3D4D012241F6300128466E
:1010C00001F054F83A4F01224FF40041384601F044
:1010D0004DF822464FF44071284601F047F84FF48E
:1010E000604304934FF00308CDF8148004A93148FD
:1010F00000F02AFFCDF810802F4B059301260696AD
:1011000004A9384600F020FF4FF488730493CDF80B
:10111000148004A9384600F017FFE02304930594D7
:10112000069604A9384600F00FFF40F20C430493E2
:10113000CDF8148004A9284600F006FF41F61003FC
:10114000049305960694CDF81C8004A9284600F067
:10115000FBFE4FF400430493059606944FF00208FB
:10116000CDF81C8004A9384600F0EEFE4FF4487319
:10117000049305960694CDF81C8004A9284600F037
:10118000E3FE22462146062000F0ACFD062000F0DA
:10119000E1FD22462146072000F0A4FD072000F0D3
:1011A000D9FD08B0BDE8F08100100240000C0140FC
:1011B00000080140001001400000111008B50B4864
:1011C0000B4B03600B4B436000238360C3604FF401
:1011D0008042026143618361C361036200F0DCFF0E
:1011E00000B908BD00F03AF8FBE700BF800B002013
:1011F00000540040801A060010B586B00023029308
:101200000393049305930268114B9A4201D006B0F0
:1012100010BD104CA36943F00803A361A36903F058
:1012200008030093009BC02302931223039303231C
:10123000059302A9084800F087FEE36943F4001310
:10124000E361E36903F400130193019BDFE700BF4F
:101250000054004000100240000C014072B6FEE74E
:1012600000B595B0282200210DEB020006F080FFAA
:101270000023059306930793089309930193029320
:101280000393049301220A924FF480330B930E923E
:101290000222119212934FF4E01313930AA802F062
:1012A0001DF8D8B90F230593022106910023079357
:1012B0004FF480620892099305A802F04FFA78B9BA
:1012C000122301934FF4004303930023049301A8D6
:1012D00002F020FB30B915B05DF804FBFFF7BEFF4C
:1012E000FFF7BCFFFFF7BAFF00B5A7B000F05EFB49
:1012F000FFF7B6FFFFF7B2FEFFF796FEFFF706FE19
:10130000FFF75CFF00F01EF800F022F900F03CFA55
:1013100000F056F900F0A8FA06F024FD00F088F974
:1013200001A805F051FD01A804F07AFA01A805F022
:101330001FFF01A805F060FD01A804F07EFA002857
:10134000F4D1F0E708B50E480E4B03604FF48273FA
:10135000436000238360C360036143614FF4007204
:1013600082610822C2610362436283620A23C3620C
:1013700002F0D8FB00B908BDFFF770FFFBE700BF24
:10138000D40B00200038004010B586B00023029333
:101390000393049305930268174B9A4201D006B059
:1013A00010BD03F5EC33DA6942F48042DA61DA69A0
:1013B00002F480420092009A9A6942F008029A610F
:1013C0009B6903F008030193019B4FF420430293B0
:1013D0000223039303230593084C02A9204600F03F
:1013E000B3FD4FF48043029300230393049302A9B7
:1013F000204600F0A9FDD2E700380040000C014073
:1014000082B00E4B9A6942F001029A619A6902F029
:1014100001020092009ADA6942F08052DA61DB69D7
:1014200003F080530193019B054A536823F0E06366
:1014300043F00073536002B0704700BF00100240D9
:1014400000000140FEE7FEE7FEE7FEE7FEE770472B
:101450007047704708B500F0BBFA08BD08B5012019
:1014600000F08CFE08BD08B5022000F087FE08BD24
:1014700008B5024800F0C6FC08BD00BF3C0B0020C8
:1014800008B5024801F0D9FC08BD00BF6017002074
:101490000120704708B506F041FE162303604FF0A7
:1014A000FF3008BD08B54FF0FF31FFF7F3FFFEE74F
:1014B00070B50C461646002506E0AFF300802146C5
:1014C00001F8010B01350C46B542F6DB304670BD24
:1014D00070B50C461646002504E014F8010B00F028
:1014E000B3F90135B542F8DB304670BD4FF0FF303F
:1014F00070474FF400534B60002070470120704745
:101500000020704710B503460C4A0D490D4800688D
:1015100040B10C4800680344521A934206D8094A65
:10152000136010BD0748084C0460F2E706F0F6FDB2
:101530000C2303604FF0FF30F3E700BF00500020A2
:10154000000400002C0C0020B01A0020704700009E
:1015500000B587B00023029303930493059300938F
:1015600001931548154A026047224260836040F2A9
:10157000E732C26003614361836102F0F7FC90B916
:101580004FF48053029302A90B4802F0EDFD68B9B5
:101590000023009301936946074802F053FE40B9C7
:1015A00007B05DF804FBFFF759FEE9E7FFF756FEC9
:1015B000EEE7FFF753FEF3E7300C0020002C01406C
:1015C00000B587B00023029303930493059300931F
:1015D00001931548154A026047224260836040F239
:1015E000E732C2600361836102F0C0FC90B94FF43E
:1015F0008053029302A90C4802F0B6FD68B900239B
:10160000009301936946084802F01CFE40B907B0F8
:101610005DF804FBFFF722FEE9E7FFF71FFEEEE7A8
:10162000FFF71CFEF3E700BFC00C002000040040E1
:1016300000B587B0002302930393049305930093AE
:1016400001931548154A026047224260836040F2C8
:10165000E732C2600361836102F088FC90B94FF405
:101660008053029302A90C4802F07EFD68B9002362
:10167000009301936946084802F0E4FD40B907B0C1
:101680005DF804FBFFF7EAFDE9E7FFF7E7FDEEE7AA
:10169000FFF7E4FDF3E700BF080D0020000800405D
:1016A00084B003681C4A934213D0B3F1804F1CD01E
:1016B0001A4A934225D01A4A934214D1194BDA6937
:1016C00042F00402DA61DB6903F004030393039B35
:1016D00009E0144B9A6942F400629A619B6903F431
:1016E00000630093009B04B0704703F50433DA698C
:1016F00042F00102DA61DB6903F001030193019B0F
:10170000F1E7084BDA6942F00202DA61DB6903F0C3
:1017100002030293029BE6E7002C01400004004014
:10172000000800400010024030B587B0002302934B
:101730000393049305930368B3F1804F01D007B07E
:1017400030BD03F504339A6942F004029A619B6943
:1017500003F004030193019B0423029302240394E6
:1017600003230593074D02A9284600F0EDFB08234B
:101770000293039405940DEB0301284600F0E4FB6B
:10178000DDE700BF0008014000B58FB000230A93D9
:101790000B930C930D930893099301930293039376
:1017A000049305930693079326484FF08042026006
:1017B00047224260836040F2E732C2600361836186
:1017C00002F0D4FB58BB4FF480530A930AA91D487A
:1017D00002F0CAFC30BB1B4802F0F4FB28BB00231C
:1017E0000893099308A9174802F02CFD00BB602359
:1017F00001930023029303930593082201A9114842
:1018000002F03EFCB8B90C2201A90E4802F038FCE7
:10181000A0B90C48FFF788FF0FB05DF804FBFFF795
:101820001DFDD0E7FFF71AFDD5E7FFF717FDD6E757
:10183000FFF714FDDBE7FFF711FDE4E7FFF70EFD0F
:10184000E7E700BF780C002000B583B001904FF6A9
:10185000FF73012201A9034802F0D9FD019803B0EA
:101860005DF804FB500D002008B50A480A4B0360E0
:101870004FF4E133436000238360C36003610C22B3
:1018800042618361C36102F093FD00B908BDFFF7B7
:10189000E5FCFBE7500D00200038014010B586B094
:1018A000002302930393049305930268174B9A4213
:1018B00001D006B010BD03F558439A6942F4804246
:1018C0009A619A6902F480420092009A9A6942F001
:1018D00004029A619B6903F004030193019B4FF496
:1018E000007302930223039303230593084C02A978
:1018F000204600F029FB4FF48063029300230393FA
:10190000049302A9204600F01FFBD2E700380140F3
:10191000000801400C480D490D4A002302E0D4584C
:10192000C4500433C4188C42F9D30A4A0A4C002329
:1019300001E013600432A242FBD3FFF707FE06F07A
:10194000F3FBFFF7D1FC704700000020F00A0020F5
:1019500004300108F00A0020B01A0020FEE7000061
:1019600010B504460E4B18784FF47A73B3FBF0F3BE
:101970000C4A1068B0FBF3F000F0FAF968B90F2CCC
:1019800001D901200AE0002221464FF0FF3000F08B
:10199000A9F9054B1C60002000E0012010BD00BF2C
:1019A00004000020000000200800002008B5074ABD
:1019B000136843F010031360032000F081F90F2037
:1019C000FFF7CEFFFFF71CFD002008BD00200240FE
:1019D000034A1168034B1B780B441360704700BF28
:1019E000940D002004000020014B1868704700BFD0
:1019F000940D002038B50446FFF7F6FF0546B4F114
:101A0000FF3F02D0044B1B781C44FFF7EDFF401B47
:101A1000A042FAD338BD00BF0400002030B482B029
:101A20000022019290F82420012A00F091800346C0
:101A3000012280F824204A68062A2DD80468606BA9
:101A400002EB8202053A4FF01F0C0CFA02FC20EA6E
:101A50000C000D6805FA02F2024362630A68092A63
:101A60003AD91C68E06802EB42021E3A4FF0070CBC
:101A70000CFA02FC20EA0C008D6805FA02F202431F
:101A8000E2600A68103A012A36D90020002283F861
:101A9000242002B030BC70470C2A0ED80568286B91
:101AA00002EB8202233A1F24944020EA04000C68CF
:101AB00004FA02F202432A63D0E70568E86A02EBFF
:101AC0008202413A1F24944020EA04000C6804FA80
:101AD00002F20243EA62C1E71C68206902EB42029B
:101AE0004FF0070C0CFA02FC20EA0C008D6805FA96
:101AF00002F202432261C4E71A681648824205D006
:101B00009A6A42F020029A620120BFE7906810F4BE
:101B1000000F1BD1906840F4000090600A68102A02
:101B200001D00020B2E70C4A12680C49A1FB021256
:101B3000920C02EB82025200019202E0019A013AF9
:101B40000192019A002AF9D100209FE700209DE729
:101B500002209EE7002401400000002083DE1B439A
:101B600038B503689A6812F0010F01D1002038BD22
:101B700004469A6822F001029A60FFF735FF054695
:101B800023689B6813F0010F13D0FFF72DFF431B51
:101B9000022BF5D923689B6813F0010FF0D0A36ADC
:101BA00043F01003A362E36A43F00103E362012000
:101BB000DDE70020DBE7000000287BD070B504469D
:101BC000836A002B4DD02046FFF7CAFFA36A13F0AB
:101BD000100369D1002867D1A26A22F4885222F04A
:101BE000020242F00202A2626268E1690A43217BBA
:101BF00042EA4102A568B5F5807F02D0012D36D0BA
:101C00001D46267D012E35D02668716821F4694174
:101C1000294371602568AE68274931401143A960A6
:101C2000A168B1F5807F01D0012902D12369013B70
:101C30001B052568E96A21F470010B43EB622368F8
:101C400099681E4B0B409A4225D0A36A23F01203D9
:101C500043F01003A362E36A43F00103E36201204F
:101C600027E0C36280F82430FFF790F9ABE74FF428
:101C70008075C6E731B9A169013945EA413141F4BE
:101C80000065C1E7A16A41F02001A162E16A41F06B
:101C90000101E162B8E70023E362A36A23F00303D2
:101CA00043F00103A36204E0A36A43F01003A362BC
:101CB000012070BD01207047FDF7E1FFFE0E1FFF00
:101CC000074AD36823F4E0631B041B0C000200F4F2
:101CD000E060034343F0BF6343F40033D3607047D5
:101CE00000ED00E000B5194BDB68C3F30223C3F13C
:101CF000070CBCF1040F28BF4FF0040C03F1040ED5
:101D0000BEF1060F18D9033B4FF0FF3E0EFA0CFC54
:101D100021EA0C0199400EFA03F322EA0303194366
:101D200000280BDB0901C9B200F1604000F56140F9
:101D300080F800135DF804FB0023E5E700F00F00D6
:101D40000901C9B2024B1954F4E700BF00ED00E0ED
:101D500014ED00E0002807DB00F01F02400901231A
:101D60009340024A42F82030704700BF00E100E093
:101D70000138B0F1807F0BD24FF0E0235861054A63
:101D8000F02182F823100020986107221A61704721
:101D90000120704700ED00E060B310B40246016816
:101DA000154B0B441548A0FB03031B099B00136450
:101DB000134BD363022382F82130086820F47F504C
:101DC00020F03000536894682343D4682343146997
:101DD00023435469234394692343D469234303432E
:101DE0000B6000209063012382F8213082F82000EC
:101DF00010BC704701207047F8FFFDBFCDCCCCCCA4
:101E00000000024038B5C36B1A6804682568016C8D
:101E100004238B40134235D015F0040F32D02368D1
:101E200013F0200F03D1236823F004032360036819
:101E3000434A934214D01432934218D0143293423E
:101E400017D01432934217D01432934217D0143261
:101E5000934202D04FF0806203E04FF4800200E032
:101E60000422384B5A60C36A03B1984738BD4022F8
:101E7000F7E74FF48062F4E74FF48042F1E74FF464
:101E80008022EEE702238B4013423CD015F0020F74
:101E900039D0236813F0200F06D1236823F00A03FA
:101EA0002360012380F821300368254A934214D02F
:101EB000143293421CD0143293421BD014329342FA
:101EC0001BD0143293421BD01432934202D04FF0F5
:101ED000007203E04FF4001200E00222194B5A6036
:101EE000002380F82030836A002BBFD09847BDE7DD
:101EF0002022F3E74FF40072F0E74FF40052EDE7D1
:101F00004FF40032EAE7082303FA01F11142ADD0A1
:101F100015F0080FAAD0236823F00E032360026C8B
:101F2000C16B012303FA02F24A60836380F8213017
:101F3000002380F82030036B002B97D0984795E75B
:101F4000080002400000024070B582B00024A446A0
:101F5000A6E0804DAA4210D007D97F4DAA420CD0EE
:101F600005F58035AA4208D013E0A5F58015AA42F0
:101F700003D005F57025AA4207D18A68002A58D0F7
:101F8000012A51D04361082403E0A5F58015AA4237
:101F9000F3D0BEF1FF0F4ED80646BEF1FF0F4CD86E
:101FA0004FEA8C0233680F25954023EA050304FAB3
:101FB00002F2134333604B6813F0805F6ED0674BBF
:101FC0009A6942F001029A619B6903F0010301934F
:101FD000019B4FEA9C02951C614B53F825600CF065
:101FE00003039D000F23AB4026EA03065D4B984296
:101FF00029D003F58063984200F08E8003F580635A
:10200000984200F08B8003F58063984219D0042336
:102010001AE0CC68BDE7CC680434BAE7CC68083471
:10202000B7E7CC680C34B4E703610824B1E70024B7
:10203000AFE70424ADE7061DAFE7ACF1080292005C
:10204000B0E7032300E00023AB4033430232444DAA
:1020500045F822304B6813F4803F61D0424A136840
:1020600043EA0E0313604B6813F4003F5ED03E4A10
:10207000536843EA0E0353604B6813F4801F5BD030
:10208000394A936843EA0E0393604B6813F4001FC8
:1020900058D0354AD36843EA0E03D3600CF1010CE3
:1020A0000A6832FA0CF353D0012303FA0CF302EA64
:1020B000030E33EA0202F1D14A68122A3FF649AF11
:1020C000122A3FF666AF01A555F822F07B1F0008E3
:1020D000132000081D2000082F200008931F00086F
:1020E000931F0008931F0008931F0008931F000808
:1020F000931F0008931F0008931F0008931F0008F8
:10210000931F0008931F0008931F0008931F0008E7
:102110001720000823200008012395E7022393E7F6
:10212000114A136823EA0E0313609CE70E4A5368B2
:1021300023EA0E0353609FE70B4A936823EA0E03DA
:102140009360A2E7084AD36823EA0E03D360A5E7A9
:1021500002B070BD000022100000311000100240DB
:102160000000014000080140000401400AB1016183
:1021700070470904016170477047000008B5054BBE
:102180005B69034200D108BD024B5861FFF7F4FFC1
:10219000F9E700BF00040140002800F0CC8070B5D2
:1021A000044690F83D30002B77D0242384F83D304E
:1021B0002268136823F0010313602268136843F454
:1021C000004313602268136823F40043136001F096
:1021D00081FB62685A4B9A4264D85A4B98428CBF32
:1021E00000230123002B40F0A8805749A1FB0031B8
:1021F0008B0C25686A6822F03F0242EA91426A60CD
:1022000021680A6A22F03F0266684D4DAE424FD8FF
:10221000013313430B622168CA6922F44F4222F052
:10222000FF026668464B9E424CD8431E7600B3FBC5
:10223000F6F3013340F6FC70034278D0C3F30B038E
:102240001343CB6121680B6823F0C003E269206A65
:10225000024313430B6021688B6823F4034323F08C
:10226000FF032269E068024313438B602168CB6857
:1022700023F0FF036269A06902431343CB60226825
:10228000136843F00103136000202064202384F8C6
:102290003D30206384F83E0070BD80F83C30FEF78E
:1022A000ABFF82E7294B98428CBF0023012399E7BB
:1022B0004FF4967505FB03F3254DA5FB03539B09CE
:1022C0000133A6E7A368BBB9451E06EB460CB5FB78
:1022D000FCF50135C5F30B05B5FA85F56D0945BB70
:1022E000C3B9013806EB4603B0FBF3F30133C3F384
:1022F0000B0343F40043A3E7451E06EB860C0CEBEF
:102300008C0CB5FBFCF50135C5F30B05B5FA85F56D
:102310006D09E4E7013806EB860303EB8303B0FBAA
:10232000F3F30133C3F30B0343F4404388E704237F
:1023300086E7012384E7012070470120ACE700BF56
:10234000A08601007F841E0083DE1B43FF083D0042
:10235000D34D621038B512F4804F44D00468B4F8FD
:1023600050309BB291F800C003EBCC03023304EB76
:102370004303B3F80044C4F309048B69A34228D390
:102380001B1B8B618B697BB9056835F82C309BB2C0
:1023900023F4804323F0700383F4005343F4004399
:1023A00043F0800325F82C3012F0400F0ED0026865
:1023B0000D7832F825309BB223F4E04323F070030C
:1023C00043F4004343F0C00322F8253024B92046EB
:1023D00038BD00238B61D5E723460A894969006827
:1023E00003F048F8F3E70468B4F850309BB291F872
:1023F00000C003EBCC03063304EB4303B3F8004403
:10240000C4F309048B69A3422FD31B1B8B618B6917
:102410007BB9056835F82C309BB223F4804323F058
:10242000700383F4005343F4004343F0800325F822
:102430002C3012F0400F0FD1026891F800C032F832
:102440002C309BB223F4E04323F0700343F40043A9
:1024500043F0C00322F82C30002CB8D023464A8920
:102460004969006803F006F8B1E700238B61CEE705
:1024700070B586B0002800F08580044690F8A93237
:10248000EBB1032384F8A932206802F03CF825461A
:1024900055F8106BEC460FCDACE80F002B68CCF86C
:1024A0000030231D0ECB304602F01DF8054658B112
:1024B000022384F8A9320125284606B070BD80F8B1
:1024C000A83205F023FDDCE70021206802F025F8A2
:1024D0002B461AE05A1C02EB820104EBC1010120D9
:1024E000487002EB820104F8313003EB830104EB06
:1024F000C101CB8602EB820C04EBCC0C00208CF8E3
:1025000003008863C8630864D3B261688B42E1D377
:1025100016E005EB850304EBC303002283F8692171
:1025200083F8685183F86B21C3F87821C3F87C21C4
:1025300005EB850304EBC303C3F880210135EDB23D
:10254000A942E6D8254655F8106BEC460FCDACE80D
:102550000F002B68CCF80030231D0ECB304601F065
:10256000DEFF054620B1022384F8A9320125A3E746
:10257000002384F82430012384F8A932206802F073
:1025800004FB99E7012597E738B590F8A832012BAD
:1025900011D00446012580F8A852006801F0AAFF76
:1025A0002946204605F0B9FD206802F0ECFA00202B
:1025B00084F8A80238BD0220FCE770B505460C4639
:1025C000164612F0400F00F00D810268B2F850304C
:1025D0009BB2097803EBC103023302EB4303B3F868
:1025E0000024C2F30902A369934252D99B1AA36142
:1025F000A369002B6AD16378002B4DD12B68B3F807
:10260000502092B2134403EB0111B1F804349BB291
:1026100023F4F8439BB2A1F80434B1F804346FEA10
:1026200043436FEA53439BB2A1F804342B686278AA
:10263000002A3ED1B3F8502092B21344227803EB23
:102640000213B3F80C2492B222F4F84292B2A3F827
:102650000C24B3F80C246FEA42426FEA524292B261
:10266000A3F80C242178284605F084FC16F4804F4A
:1026700041D02A68217832F821309BB223F4E0431C
:1026800023F0700343F4404343F0800322F82130E9
:1026900031E00023A361ABE7012BC7D12B68B3F86E
:1026A000502092B2134403EB01110023A1F804342B
:1026B000BCE7012AD6D1B3F8502092B21344227855
:1026C00003EB02130022A3F80C24CBE716F4804F8F
:1026D0000DD0286830F821309BB223F4E04323F07A
:1026E000700343F4404343F0800320F8213094F812
:1026F0002430012B12D02A68217832F821309BB285
:1027000023F4E04323F0400383F0300343F4004319
:1027100043F0800322F82130002070BD6369134428
:102720006361E3691344E361216A236999421FD31A
:10273000C91A21626278002A3FD12A68B2F8501083
:1027400089B20A44217802EB0112EBB9B2F8041401
:1027500089B221F4F84189B2A2F80414B2F8041441
:102760006FEA41416FEA514189B2A2F8041426E0B0
:1027700021B9002384F824301346DBE7002384F8D2
:10278000243023620B46D5E73E2B09D8590813F0B5
:10279000010F00D00131890289B2A2F804140EE0C1
:1027A000590913F01F0F00D101396FEAC1616FEAB7
:1027B000514189B2A2F8041401E0012A06D09BB26B
:1027C00022896169286802F0E8F994E72A68B2F87A
:1027D000501089B20A44217802EB011299B2A2F892
:1027E0000414ECE70268B2F850309BB2097803EBAE
:1027F000C103063302EB4303B3F80024C2F309021A
:10280000A369934253D39B1AA361A369002B6BD195
:102810006378002B4ED12B68B3F8502092B213444A
:1028200003EB0111B1F804349BB223F4F8439BB2DB
:10283000A1F80434B1F804346FEA43436FEA534318
:102840009BB2A1F804342B686278002A3FD1B3F818
:10285000502092B21344227803EB0213B3F80C24F5
:1028600092B222F4F84292B2A3F80C24B3F80C24EA
:102870006FEA42426FEA524292B2A3F80C242178E6
:10288000284605F077FB16F4804F7FF434AF2A68B2
:10289000217832F821309BB223F4E04323F0700317
:1028A00043F4404343F0800322F8213023E7002320
:1028B000A361AAE7012BC6D12B68B3F8502092B2CE
:1028C000134403EB01110023A1F80434BBE7012AF0
:1028D000D5D1B3F8502092B21344227803EB0213FF
:1028E0000022A3F80C24CAE716F4804F0DD1286803
:1028F00030F821309BB223F4E04323F0700343F41B
:10290000404343F0800320F8213094F82430012B19
:102910007FF4F1AE636913446361E3691344E361D7
:10292000216A236999421FD3C91A21622A686178F2
:1029300000293ED1B2F8501089B20A44217802EB46
:102940000112EBB9B2F80C1489B221F4F84189B242
:10295000A2F80C14B2F80C146FEA41416FEA51412D
:1029600089B2A2F80C1426E021B9002384F824309F
:102970001346DBE70023236284F824300B46D5E7B7
:102980003E2B09D8590813F0010F00D001318902FC
:1029900089B2A2F80C140EE0590913F01F0F00D1F0
:1029A00001396FEAC1616FEA514189B2A2F80C1492
:1029B00001E0012906D09BB262896169286802F0B2
:1029C000ECF898E6B2F8501089B20A44217802EB8C
:1029D000011299B2A2F80C14EDE72DE9F041054679
:1029E0002868B0F8443013F4004F00F00F82B0F8BC
:1029F0004440A3B214F00F0440F0D88013F0100F3D
:102A000061D003889AB213F4006F40F0938012F4FF
:102A1000004FE5D0038823F070031B051B0D43F026
:102A2000800303802868B0F850309BB295F8682185
:102A300003EBC203063300EB4303B3F80034C3F3E4
:102A40000903C5F884318BB1D5F87C1171B1B5F8A3
:102A50006E2102F00FFDD5F88421D5F87C311344A6
:102A6000C5F87C310021284605F078FA2B681A88D1
:102A700012F4006FB4D1B3F8502092B21344D5F8D9
:102A80007821002A79D1B3F80C2492B222F4F842CA
:102A900092B2A3F80C24B3F80C246FEA42426FEA16
:102AA000524292B2A3F80C242A6813889BB223F4F2
:102AB000804323F0700383F4405343F4004343F016
:102AC000800313808CE703889BB223F4E14323F057
:102AD00070036FEA43436FEA53439BB203802A6853
:102AE000B2F850309BB295F8281003EBC1030233C3
:102AF00002EB4303B3F80034C3F309036B64EA6BDE
:102B00001344EB630021284605F034FA95F824308D
:102B1000002B3FF465AF2B6C002B7FF461AF95F871
:102B200024302A6843F08003A2F84C30002385F853
:102B3000243055E7B0F850309BB295F8682103EB8C
:102B4000C203063300EB4303B3F80034C3F30903B5
:102B5000C5F88431B5F86E2105F52C7102F08AFCB8
:102B60002A68138823F070031B051B0D43F08003B4
:102B70001380284605F0EAF932E73E2A09D85108C1
:102B800012F0010F00D001318A0292B2A3F80C2496
:102B90008AE7510912F01F0F00D101396FEAC162B3
:102BA0006FEA524292B2A3F80C247DE730F8243049
:102BB0009EB213F4004F4FD116F0800F3FF410AFC8
:102BC000621C02EB820105EBC101286830F8243059
:102BD0009BB223F4E14323F070036FEA43436FEAAF
:102BE00053439BB220F82430CB78032B07D033B16A
:102BF000022B40F0068116F4807F40F002812868A5
:102C0000B0F850309BB2621C02EB820215F83260C1
:102C100003EBC603023300EB4303B3F80034C3F302
:102C2000090304EB840205EBC202126C9A4240F2E3
:102C3000D48004EB840705EBC707D21A3A6404EB8F
:102C4000840205EBC202126C002A40F0CD803146AE
:102C5000284605F08FF9C3E630F8243023F07003DE
:102C60001B051B0D43F0800320F8243004EB840186
:102C7000C90001F5B47105EB010804EB840305EB11
:102C8000C30393F87431002B42D12868B0F8503058
:102C90009BB204EB840205EBC20292F8682103EBBD
:102CA000C203063300EB4303B3F80074C7F309070C
:102CB00017BB04EB840305EBC303D3F884213A4428
:102CC000C3F88421D3F87C213A44C3F87C21D3F89B
:102CD00080313BB104EB840305EBC303D3F87831B7
:102CE0009F4275D204EB840305EBC30393F868118C
:102CF000284605F033F95FE704EB840105EBC101D9
:102D00003B46B1F86E21D1F87C1102F0B3FBD0E75D
:102D100004EB840305EBC30393F86B31022B35D02E
:102D2000296804EB840205EBC20292F8680131F8CD
:102D300020309BB223F4E04323F0700343F40043BC
:102D400043F0C00321F82030286892F8682130F859
:102D5000223013F4804F20D0B0F850309BB203EBF8
:102D6000C203023300EB4303B3F80074C7F309074F
:102D7000002F9ED004EB840105EBC1013B46B1F866
:102D80007021D1F87C1102F075FB92E73246414682
:102D90002846FFF7DFFA07468BE7B0F850309BB2C2
:102DA00003EBC203063300EB4303B3F80074C7F32D
:102DB0000907002F3FF47DAF04EB840105EBC1014F
:102DC0003B46B1F87221D1F87C1102F053FB70E759
:102DD0004146286801F0F5FEEEE604EB840205EBBF
:102DE000C202002717642AE704EB840205EBC20243
:102DF000D66B1E44D663546C2344536401F0E1FE49
:102E0000EEE532462846FFF7D8FBE9E50020BDE8AD
:102E1000F08190F8A832012B0DD010B504460123A3
:102E200080F8A83280F82410006801F0A6FE002087
:102E300084F8A80210BD0220704710B584B0044683
:102E4000006801F0A4FE10F4004F47D1206801F0A3
:102E50009EFE10F4806F45D1206801F098FE10F4BA
:102E6000804F08D02268B2F844309BB223F48043EC
:102E70009BB2A2F84430206801F089FE10F4005F94
:102E800008D02268B2F844309BB223F400539BB2BE
:102E9000A2F84430206801F07AFE10F4805F32D14D
:102EA000206801F074FE10F4006F78D1206801F002
:102EB0006EFE10F4007F40F09D80206801F067FEF8
:102EC00010F4807F08D02268B2F844309BB223F41B
:102ED00080739BB2A2F8443004B010BD2046FFF7C7
:102EE0007CFDB3E72268B2F844309BB223F48063E0
:102EF0009BB2A2F84430204605F04DF80021204650
:102F0000FFF787FFA8E72268B2F840309BB223F0B2
:102F100004039BB2A2F840302268B2F840309BB262
:102F200023F008039BB2A2F84030204605F056F883
:102F30002268B2F844309BB223F480539BB2A2F8CB
:102F40004430ADE7226832F8231004AA02EB4302B2
:102F500022F8101C0133DBB2072BF3D92268B2F838
:102F600040309BB243F00103A2F840302268B2F82F
:102F700040309BB223F001039BB2A2F8403023689B
:102F8000B3F8442012F4806FF9D0B3F8442092B221
:102F900022F4806292B2A3F8442000230BE00023C5
:102FA000DAE7226804A901EB430131F8101C22F88A
:102FB00023100133DBB2072BF3D92268B2F840307B
:102FC0009BB243F00803A2F840302268B2F84430C4
:102FD0009BB223F400639BB2A2F844302268B2F89B
:102FE00040309BB243F00403A2F84030204604F086
:102FF000E5FF5BE72268B2F844309BB223F400732C
:103000009BB2A2F84430204604F0BFFF55E710B54C
:1030100004468C4611F0800F2AD101F0070000EB26
:103020008001C90001F5B47E04EB0E0100EB8000C5
:1030300004EBC0004FF0000E80F869E10CF0070CC3
:1030400081F800C00A61CB704A780AB1A1F80EC0BD
:10305000022B19D094F8A832012B18D0012384F840
:10306000A832206801F06CFA002084F8A80210BD94
:1030700001F00700013000EB800104EBC1014FF0CB
:10308000010E81F801E0D9E700230B71E2E702208D
:10309000EDE710B504460B4611F0800F1FD101F08B
:1030A000070202EB8201C90001F5B471014402EB91
:1030B000820200EBC202002082F8690103F00703DC
:1030C0000B7094F8A832012B13D0012384F8A83296
:1030D000206801F0F1FB002084F8A80210BD01F087
:1030E0000702013202EB820100EBC10101204870AE
:1030F000E4E70220F2E710B501F0070404EB8401D5
:10310000C90001F5B471014404EB840C00EBCC0C54
:10311000CCF87C21CCF880310023CCF884318CF8B9
:1031200069318CF8684124B9006801F04AFD00203B
:1031300010BD006801F045FDF9E710B501F0070486
:1031400004F1010C0CEB8C0100EBC10104EB840ECB
:1031500000EBCE0ECEF83C20CEF8403001228EF8A7
:103160004C20CEF848300023CEF844304A700CEBA7
:103170008C0C00F83C4024B9006801F022FD0020CE
:1031800010BD006801F01DFDF9E738B501F0070535
:103190004268954231D804460B4611F0800F1ED18B
:1031A00001EB8101C90001F5B471014403EB830314
:1031B00000EBC303002283F8692101238B700D709B
:1031C00094F8A832012B1AD0012384F8A832206881
:1031D00001F05DFC5DB1002084F8A80238BD6B1CD5
:1031E00003EB830100EBC10101224A70E5E704F51E
:1031F0002C71206801F0CFFCEDE70120EEE7022002
:10320000ECE70B4601F00F014268914230D810B54F
:10321000044613F0800F21D103F0070202EB820174
:10322000C90001F5B471014402EB820200EBC20255
:10323000002082F8690100228A7003F007030B70F6
:1032400094F8A832012B15D0012384F8A832206805
:1032500001F042FC002084F8A80210BD03F0070230
:10326000013202EB820100EBC10101204870E2E76C
:10327000012070470220F0E711F0800F0BD001F021
:103280000701013101EB810100EBC10152B90A7361
:10329000CB800020704701EB8101C90001F5B471BA
:1032A0000144F3E701220A730B811B0C4B81F0E709
:1032B00082B0084B1B68084AA2FB03235B0A00FB91
:1032C00003F3019300BF019B5A1E0192002BF9D119
:1032D00002B0704700000020D34D6210002800F0BB
:1032E000F18170B582B00446036813F0010F2CD051
:1032F000994B5B6803F00C03042B1DD0964B5B6865
:1033000003F00C03082B12D06368B3F5803F41D063
:10331000002B55D103F1804303F504331A6822F4DE
:1033200080321A601A6822F480221A6037E08A4BD1
:103330005B6813F4803FE7D0874B1B6813F4003FB2
:1033400003D06368002B00F0BF81236813F0020FE5
:1033500075D0814B5B6813F00C0F5FD07E4B5B68C0
:1033600003F00C03082B54D02369002B00F08A8053
:103370007A4B01221A60FEF737FB0546764B1B6835
:1033800013F0020F75D1FEF72FFB401B0228F5D971
:1033900003209EE1704A136843F48033136063682E
:1033A00043B3FEF721FB05466B4B1B6813F4003F4C
:1033B000CBD1FEF719FB401B6428F5D9032088E127
:1033C000B3F5A02F09D0644B1A6822F480321A603A
:1033D0001A6822F480221A60E1E703F18043A3F522
:1033E0003C331A6842F480221A601A6842F4803230
:1033F0001A60D4E7FEF7F8FA0546574B1B6813F43A
:10340000003FA2D0FEF7F0FA401B6428F5D9032054
:103410005FE1514B5B6813F4803FA5D14E4B1B68B5
:1034200013F0020F03D02369012B40F04F814A4A69
:10343000136823F0F803616943EAC103136023684A
:1034400013F0080F33D0A369002B5CD0434B01224B
:10345000C3F88024FEF7C8FA05463F4B5B6A13F0B9
:10346000020F21D1FEF7C0FA401B0228F5D9032034
:103470002FE1394A136823F0F803616943EAC10375
:103480001360DCE7354B00221A60FEF7ADFA054603
:10349000314B1B6813F0020FD1D0FEF7A5FA401B89
:1034A0000228F5D9032014E10120FFF701FF23686A
:1034B00013F0040F00F09680274BDB6913F0805F58
:1034C00034D1254BDA6942F08052DA61DB6903F0CE
:1034D00080530193019B0125214B1B6813F4807FCE
:1034E00026D0E368012B3DD0002B53D103F180435C
:1034F00003F504331A6A22F001021A621A6A22F0F2
:1035000004021A6233E0154B0022C3F88024FEF750
:103510006BFA0546104B5B6A13F0020FC7D0FEF73B
:1035200063FA401B0228F5D90320D2E00025D3E737
:103530000B4A136843F480731360FEF755FA06468E
:10354000074B1B6813F4807FCBD1FEF74DFA801B2D
:103550006428F5D90320BCE000100240000042427C
:10356000007000405F4A136A43F001031362E3688E
:1035700033B3FEF739FA06465A4B1B6A13F0020FB3
:103580002FD1FEF731FA801B41F288339842F3D9EC
:1035900003209EE0052B09D0524B1A6A22F001024B
:1035A0001A621A6A22F004021A62E0E74D4B1A6AA4
:1035B00042F004021A621A6A42F001021A62D6E765
:1035C000FEF712FA0646474B1B6A13F0020F08D0AB
:1035D000FEF70AFA801B41F288339842F3D90320A0
:1035E00077E0E5B9E369002B72D03E4A526802F0F9
:1035F0000C02082A56D0022B17D03B4B00221A6629
:10360000FEF7F2F90446374B1B6813F0007F47D0F2
:10361000FEF7EAF9001B0228F5D9032059E0314AE8
:10362000D36923F08053D361DCE72F4B00221A6665
:10363000FEF7DAF905462B4B1B6813F0007F06D026
:10364000FEF7D2F9401B0228F5D9032041E0236A96
:10365000B3F5803F1AD023494B6823F47413226AD0
:10366000606A024313434B601F4B01221A66FEF748
:10367000BBF904461B4B1B6813F0007F0ED1FEF70D
:10368000B3F9001B0228F5D9032022E0154A53683C
:1036900023F40033A1680B435360DCE7002018E0FB
:1036A000002016E0012B16D00E4B5B6803F480312E
:1036B000226A914211D103F47013626A93420ED1CF
:1036C000002006E001207047012002E0012000E018
:1036D000002002B070BD0120FBE70120F9E70120C6
:1036E000F7E700BF001002400000424286B0174BCF
:1036F0000FCB0DF1180C0CE90F0040F20123ADF8CF
:103700000430134B5B6803F00C02082A02D0114806
:1037100006B07047C3F3834218326A4412F8100CA3
:1037200013F4803F0DD00A4B5B68C3F3404318335A
:103730006B4413F8143C074A02FB00F0B0FBF3F0B3
:10374000E6E7054B03FB00F0E2E700BF60E100089D
:103750000010024000127A0000093D00002800F02D
:10376000A08070B50D460446524B1B6803F007035A
:103770008B420BD24F4A136823F007030B431360AD
:10378000136803F007038B4240F08D80236813F029
:10379000020F17D013F0040F04D0474A536843F4C4
:1037A000E0635360236813F0080F04D0424A536863
:1037B00043F460535360404A536823F0F003A16818
:1037C0000B435360236813F0010F31D06368012B62
:1037D00020D0022B25D0384A126812F0020F64D094
:1037E00035494A6822F0030213434B60FEF7FCF8A8
:1037F0000646314B5B6803F00C036268B3EB820F43
:1038000016D0FEF7F1F8801B41F288339842F0D9C8
:10381000032045E0284A126812F4003FE0D101205D
:103820003EE0254A126812F0007FD9D1012037E02E
:10383000204B1B6803F00703AB420AD91D4A1368EB
:1038400023F007032B431360136803F00703AB4215
:103850002DD1236813F0040F06D0174A536823F4C0
:10386000E063E1680B435360236813F0080F07D04F
:10387000114A536823F46053216943EAC10353603A
:10388000FFF734FF0C4B5B68C3F303130B4AD35CA5
:10389000D8400B4B18600B4B1868FEF761F80020FE
:1038A00070BD012070470120FAE70120F8E70120F0
:1038B000F6E700BF002002400010024048E1000887
:1038C0000000002008000020014B1868704700BF6E
:1038D0000000002008B5FFF7F7FF044B5B68C3F357
:1038E0000223034AD35CD84008BD00BF0010024049
:1038F00058E1000808B5FFF7E7FF044B5B68C3F326
:10390000C223034AD35CD84008BD00BF0010024068
:1039100058E1000870B582B00446036813F0010F47
:1039200036D03F4BDB6913F0805F49D13C4BDA69FD
:1039300042F08052DA61DB6903F080530193019B0E
:103940000125384B1B6813F4807F3BD0344B1B6A36
:1039500013F4407313D0626802F440729A420ED09E
:103960002F4A136A23F440702F490126C1F840649E
:103970000026C1F84064106213F0010F36D1284AC6
:10398000136A23F4407361680B431362002D3ED128
:10399000236813F0020F06D0214A536823F44043F2
:1039A000A1680B435360236813F0100F34D01C4AF6
:1039B000536823F48003E1680B43536000202CE03C
:1039C0000025BEE7174A136843F480731360FEF7BF
:1039D0000BF80646134B1B6813F4807FB6D1FEF735
:1039E00003F8801B6428F5D9032016E0FDF7FCFFDF
:1039F00006460B4B1B6A13F0020FC0D1FDF7F4FF14
:103A0000801B41F288339842F3D9032005E0D36943
:103A100023F08053D361BBE7002002B070BD00BF2C
:103A20000010024000700040000042422DE9F047C3
:103A300082B00546884617461E46FDF7D5FF0A9B0D
:103A40001B1A03EB0609FDF7CFFF82462B4B1B68C1
:103A5000C3F3CB3309FB03F301932B689C6838EA6B
:103A600004030CBF4FF0010C4FF0000CBC4540D0DC
:103A7000B6F1FF3FF1D0FDF7B7FFA0EB0A004845D4
:103A80000AD2B9F1000F07D0019A02B14A46019B50
:103A9000013B01939146E0E72A68536823F0E00375
:103AA00053606B68B3F5827F0BD0AB6AB3F5005FF0
:103AB00014D0012385F85130002385F850300320BD
:103AC00018E0AB68B3F5004F02D0B3F5806FECD1CE
:103AD0002A68136823F040031360E6E72A68136836
:103AE00023F4005313602A68136843F400531360EF
:103AF000DFE7002002B0BDE8F08700BF0000002033
:103B000010B582B004460B46009200228021FFF7D8
:103B10008DFF08B902B010BD636D43F020036365EB
:103B20000320F7E7002856D010B50446436A33B99E
:103B30004368B3F5827F05D00023C36102E0002310
:103B4000036143610023A36294F85130002B3CD001
:103B5000022384F851302268136823F04003136075
:103B6000636803F48273A26802F404421343E268B8
:103B700002F400621343226902F0020213436269F5
:103B800002F001021343A26902F400721343E269D6
:103B900002F038021343226A02F080021343A26A41
:103BA00002F40052216813430B60638B226803F018
:103BB000040353602268D36923F40063D3610020B7
:103BC0006065012384F8513010BD84F850302046E0
:103BD000FDF7DAFBBCE7012070472DE9F04383B025
:103BE0001D4690F85030012B00F0D18004468846E5
:103BF0009146012380F85030FDF7F6FE074694F811
:103C00005160F6B2012E40F0AF80B8F1000F00F025
:103C1000AC80B9F1000F00F0A880032384F8513084
:103C200000236365C4F83080A4F83490A4F836907B
:103C3000A363A387E38763642364A368B3F5004F9A
:103C40001ED023681A6812F0400F03D11A6842F0A0
:103C500040021A60E368B3F5006F1CD0636813B1CB
:103C6000B9F1010F52D1226B236812781A73236BBA
:103C700001332363E38E9BB2013B9BB2E38645E0B5
:103C80002268136823F0400313602268136843F42A
:103C900080431360D5E7636813B1B9F1010F16D102
:103CA000226B23681288DA60236B02332363E38E6E
:103CB0009BB2013B9BB2E38609E0FDF795FEC01B7A
:103CC000A84202D3B5F1FF3F59D1002D59D0E38E60
:103CD0009BB2002B33D023689A6812F0020FECD00D
:103CE000226B1288DA60236B02332363E38E9BB26C
:103CF000013B9BB2E386EAE7FDF776FEC01BA842D4
:103D000002D3B5F1FF3F3ED1002D3ED0E38E9BB2F2
:103D1000ABB123689A6812F0020FEDD0226B1278D3
:103D20001A73236B01332363B4F836C01FFA8CFC7B
:103D30000CF1FF3C1FFA8CFCA4F836C0E6E73A46CB
:103D400029462046FFF7DCFE08B120236365A368FF
:103D500033B901932368DA6801929B680193019B50
:103D6000636D13B9002600E00226012384F8513068
:103D7000002384F85030304603B0BDE8F0830326BA
:103D8000F3E70326F1E70326EFE70326EDE7022634
:103D9000F1E7000070B4036A23F001030362036AD1
:103DA0004668826922F073020C6844EA020523F037
:103DB00002028B6813430D4CA04209D00B4CA04269
:103DC0000DD0466085614A684263036270BC7047EB
:103DD00023F00803CA68134323F00403EEE726F434
:103DE00040764A6932438E691643EAE7002C014067
:103DF00030B4036A23F480730362036A4568C269BE
:103E000022F073020C68224323F400738C6843EAA7
:103E100004230F4CA04209D00D4CA0420ED04560A7
:103E2000C2614A68C263036230BC704723F4006316
:103E3000CC6843EA042323F48063EDE725F440557E
:103E40004C6945EA04158C6945EA0415E7E700BFAB
:103E5000002C014030B4036A23F480530362036AE8
:103E60004468C26922F4E6420D6842EA052223F45E
:103E700000538D6843EA0533074DA84206D04460DD
:103E8000C2614A680264036230BC704724F4804413
:103E90004D6944EA8514F2E7002C014010B4036A2E
:103EA000046A24F001040462846924F0F00C4CEAF2
:103EB000021223F00A030B438261036210BC7047B5
:103EC00010B4046A24F0100404628469036A24F4C0
:103ED000704C4CEA023223F0A00343EA01138261E2
:103EE000036210BC7047836823F070030B4343F0F8
:103EF000070383607047704703681B4A90420AD0EB
:103F0000B0F1804F07D0A2F59432904203D002F571
:103F10008062904203D123F070034A681343124A2F
:103F200090420AD0B0F1804F07D0A2F5943290426F
:103F300003D002F58062904203D123F44073CA6833
:103F4000134323F080034A69134303608B68C36201
:103F50000B688362044B984202D00123436170478F
:103F60000B690363F9E700BF002C014040B310B5B3
:103F7000044690F83D30F3B1022384F83D302146E9
:103F800051F8040BFFF7B8FF012384F8463084F89A
:103F90003E3084F83F3084F8403084F8413084F873
:103FA000423084F8433084F8443084F8453084F853
:103FB0003D30002010BD80F83C30FDF771FBDBE7A1
:103FC0000120704740B310B5044690F83D30F3B17E
:103FD000022384F83D30214651F8040BFFF78CFF93
:103FE000012384F8463084F83E3084F83F3084F86A
:103FF000403084F8413084F8423084F8433084F80B
:10400000443084F8453084F83D30002010BD80F8FD
:104010003C30FFF770FFDBE70120704730B4036AE4
:1040200023F010030362036A4468826922F4E642C3
:104030000D6842EA052223F020038D6843EA051348
:104040000E4DA84209D00D4DA8420ED044608261A9
:104050004A688263036230BC704723F08003CD68F6
:1040600043EA051323F04003EDE724F440644D696F
:1040700044EA85048D6944EA8504E7E7002C0140A1
:1040800038B590F83C30012B60D004460D46012332
:1040900080F83C300C2A1AD8DFE802F00719191909
:1040A0001D1919193119191944000068FFF772FE1A
:1040B0002268936943F0080393612268936923F0AF
:1040C000040393612268936929690B43936100207B
:1040D00084F83C0038BD0068FFF7A0FF22689369B0
:1040E00043F4006393612268936923F480639361CE
:1040F00022689369296943EA01239361E7E700682D
:10410000FFF776FE2268D36943F00803D361226883
:10411000D36923F00403D3612268D36929690B436F
:10412000D361D4E70068FFF795FE2268D36943F4B2
:104130000063D3612268D36923F48063D36122686A
:10414000D369296943EA0123D361C0E70220C1E7AB
:1041500010B4846824F47F4C42EA03220A4342EA02
:104160000C02826010BC704790F83C30012B66D086
:1041700010B50446012380F83C30022380F83D301E
:104180000268936823F47F4323F0770393600B68FE
:10419000602B40D022D8402B47D00BD9502B0ED1CA
:1041A000CA6849680068FFF779FE50212068FFF768
:1041B0009AFE04E0202B0CD008D9302B09D0012323
:1041C00084F83D30002084F83C0010BD0BB1102B6A
:1041D000F5D119462068FFF786FEF0E7702B0ED068
:1041E000B3F5005FEBD1CB684A6889680068FFF7D8
:1041F000AFFF2268936843F480439360DFE7CB68A6
:104200004A6889680068FFF7A3FF2268936843F053
:1042100077039360D3E7CA6849680068FFF750FEE8
:1042200060212068FFF75FFEC9E7CA684968006837
:10423000FFF734FE40212068FFF755FEBFE702205C
:104240007047000090F83C30012B2CD010B40123B3
:1042500080F83C30022380F83D3003685A689C683F
:1042600022F0700C0A6842EA0C025A6003680F4A96
:1042700093420AD0B3F1804F07D0A2F59432934213
:1042800003D002F58062934204D124F080044A688E
:1042900014439C60012380F83D30002380F83C30BB
:1042A000184610BC70470220704700BF002C014028
:1042B00010B504460268136923F44053C1680B43E8
:1042C000136183680269134342691A430168CB682A
:1042D00023F4B05323F00C031343CB6002685369FB
:1042E00023F4407381690B4353610268134B9A4274
:1042F00020D0FFF7EFFA024602EB820202EB8202C5
:1043000063689B00B2FBF3F20D48A0FB0231490940
:10431000642303FB11231B013233A0FB03235B093E
:1043200003F0F00202EB011203F00F0321681344C3
:104330008B6010BDFFF7DEFA0246DDE70038014072
:104340001F85EB512DE9F84305460F461646994661
:10435000DDF820802C68246837EA04030CBF4FF096
:10436000010C4FF0000CB4451FD1B8F1FF3FF1D064
:10437000B8F1000F05D0FDF737FBA0EB0900404571
:10438000E8D92A68D36823F4D073D3602A685369C4
:1043900023F001035361202385F83D3085F83E303A
:1043A000002385F83C30032000E00020BDE8F883BE
:1043B00058B310B5044690F83D300BB3242384F86D
:1043C0003D302268D36823F40053D3602046FFF7C2
:1043D0006FFF2268136923F49043136122685369C5
:1043E00023F02A0353612268D36843F40053D36057
:1043F00000202064202384F83D3084F83E3010BD36
:1044000080F83C30FDF74AFAD8E7012070472DE9E3
:10441000F04182B01E4690F83D30DBB2202B54D1E3
:1044200004460D469046002953D0002A53D090F8F8
:104430003C30012B51D0012380F83C300023036431
:10444000212380F83D30FDF7CFFA0746A4F82480F9
:10445000A4F82680A368B3F5805F05D04FF000086C
:10446000002384F83C3012E0236913B14FF00008B8
:10447000F6E7A8460025F3E738F8023B2268C3F3C5
:1044800008035360E28C92B2013A92B2E284E38C68
:104490009BB273B100963B46002280212046FFF775
:1044A00051FFE0B9002DE7D015F8012B23685A60C1
:1044B000E8E700963B46002240212046FFF742FFF6
:1044C00078B9202384F83D3000E0022002B0BDE836
:1044D000F0810120FAE70120F8E70220F6E7032047
:1044E000F4E70320F2E784B001A880E80E00002082
:1044F00004B0704703460020A3F844004FF43F4245
:10450000A3F840207047B0F8403023F47C535B049C
:104510005B0CA0F84030002070470020704784B04A
:10452000844601A880E80E000123ACF8403000204A
:10453000ACF84000ACF84400ACF8500004B0704750
:1045400010B5034691F800C030F82C2092B222F446
:10455000EC4222F0700292B2C878032861D8DFE8FA
:1045600000F0555C0258002048F2800E42EA0E022C
:1045700023F82C2091F800C033F82C2092B222F4BA
:10458000E04222F070024CEA020242EA0E0223F8F4
:104590002C200A7B002A40F0C4804A78002A51D09F
:1045A000B3F8502092B21A440C7802EB0412B1F81E
:1045B00006C04FEA5C0C4FEA4C0CA2F800C40C7821
:1045C00033F8242012F0400F0CD033F8242092B29C
:1045D00022F4E04222F0700242F4004242F0C002B3
:1045E00023F82420CA78012A1DD0097833F8212025
:1045F00092B222F4E04222F0400282F0200242F421
:10460000004242F0800223F821206AE042F4007266
:10461000AAE742F4C0620020A6E742F480620020CC
:10462000A2E70120A0E7097833F8212092B222F412
:10463000E04222F0400242F4004242F0800223F8BD
:1046400021204EE0B3F8502092B21A440C7802EBCD
:104650000412B1F806C04FEA5C0C4FEA4C0CA2F809
:1046600008C4B3F8502092B21A440C7802EB04123A
:104670000C69BCBBB2F80CC41FFA8CFC2CF4F84CCF
:104680001FFA8CFCA2F80CC4B2F80CC46FEA4C4CB4
:104690006FEA5C4C1FFA8CFCA2F80CC40C7833F85F
:1046A000242012F4804F0CD033F8242092B222F44C
:1046B000E04222F0700242F4404242F0800223F8CD
:1046C0002420097833F8212092B222F4804222F08B
:1046D000700282F4405242F4004242F0800223F819
:1046E000212010BD3E2C0DD84FEA540C14F0010FC0
:1046F00001D00CF1010C4FEA8C2C1FFA8CFCA2F8B3
:104700000CC4CBE74FEA541C14F01F0F01D10CF17D
:10471000FF3C6FEACC646FEA5444A4B2A2F80C44A4
:10472000BCE791F800C033F82C2092B222F4E042AA
:1047300022F0700242F4014242F0800223F82C2061
:10474000B3F8502092B21A4491F800C002EB0C1258
:10475000B1F808C04FEA5C0C4FEA4C0CA2F800C458
:10476000B3F8502092B21A4491F800C002EB0C1238
:10477000B1F80AC04FEA5C0C4FEA4C0CA2F808C42E
:104780004A78002A41D10C7833F8242012F4804F63
:104790000CD033F8242092B222F4E04222F07002CE
:1047A00042F4404242F0800223F824200C7833F88F
:1047B000242012F0400F0CD033F8242092B222F4BF
:1047C000E04222F0700242F4004242F0C00223F8BC
:1047D000242091F800C033F82C2092B222F48042B9
:1047E00022F0700282F4405248F28004224323F8FF
:1047F0002C20097833F8212092B222F4E04222F0F2
:104800004002224323F821206BE70C7833F8242060
:1048100012F4804F0CD033F8242092B222F4E042FC
:1048200022F0700242F4404242F0800223F8242039
:104830000C7833F8242012F0400F0CD033F82420E9
:1048400092B222F4E04222F0700242F4004242F0BE
:10485000C00223F82420CA78012A1ED00C7833F82D
:10486000242092B222F4E04222F0400282F02002A0
:1048700042F4004242F0800223F82420097833F801
:10488000212092B222F4804222F0700242F40042CF
:1048900042F0800223F8212023E70C7833F824200B
:1048A00092B222F4E04222F0400242F4004242F08E
:1048B000800223F82420E1E70B7B002B46D14B78C4
:1048C00013B30A7830F8223013F0400F0CD030F8D0
:1048D00022309BB223F4E04323F0700343F40043FF
:1048E00043F0C00320F822300A7830F822309BB21F
:1048F00023F4E04323F0400343F4004343F08003F8
:1049000020F82230002070470A7830F8223013F463
:10491000804F0CD030F822309BB223F4E04323F0D8
:10492000700343F4404343F0800320F822300A78B8
:1049300030F822309BB223F4804323F0700343F419
:10494000004343F0800320F82230DBE74B78002B54
:104950004ED10A7830F8223013F4804F0CD030F862
:1049600022309BB223F4E04323F0700343F440432E
:1049700043F0800320F822300A7830F8223013F018
:10498000400F0CD030F822309BB223F4E04323F0E8
:10499000700343F4004343F0C00320F822300A7848
:1049A00030F822309BB223F4E04323F0700343F449
:1049B000004343F0C00320F822300B7830F8232066
:1049C00092B222F4804222F0700248F2800C42EA55
:1049D0000C0220F823200A7830F822309BB223F40E
:1049E000E04323F0400343EA0C0320F8223089E738
:1049F0000A7830F8223013F4804F0CD030F822308F
:104A00009BB223F4E04323F0700343F4404343F0AC
:104A1000800320F822300A7830F8223013F0400F5B
:104A20000CD030F822309BB223F4E04323F0700323
:104A300043F4004343F0C00320F822300A7830F8F2
:104A400022309BB223F4E04323F0700343F440434D
:104A500043F0800320F822300B7830F8232092B204
:104A600022F4E04222F0400248F2800C42EA0C02BA
:104A700020F823200A7830F822309BB223F48043B8
:104A800023F0700343EA0C0320F822303AE74B7816
:104A90008BB10A7830F822309BB223F4E04323F044
:104AA000400383F0100343F4004343F0800320F8F5
:104AB0002230002070470A7830F822309BB223F46D
:104AC000804323F0700383F4805343F4004343F0A6
:104AD000800320F82230ECE70B7B002B4BD14B7886
:104AE00033B30A7830F8223013F0400F0CD030F88E
:104AF00022309BB223F4E04323F0700343F40043DD
:104B000043F0C00320F82230CB78012B33D00A7851
:104B100030F822309BB223F4E04323F0400383F0CB
:104B2000200343F4004343F0800320F8223022E0C6
:104B30000A7830F8223013F4804F0CD030F822304D
:104B40009BB223F4E04323F0700343F4404343F06B
:104B5000800320F822300A7830F822309BB223F408
:104B6000804323F0700383F4405343F4004343F045
:104B7000800320F822300020704711B98023A0F86C
:104B80004C30002070470020704700207047B0F87C
:104B9000440080B270470020704710B45C1C640869
:104BA00000EB420202F5806207E00B78487843EAA6
:104BB000002322F8043B0231013C002CF5D110BC4B
:104BC000704770B505460C464B78012B37D00A7BF1
:104BD000002A40F026838B690A69934240F20483DD
:104BE0009B1A8B61B5F850309BB22B44217803EBB4
:104BF0000113002A40F0FC82B3F80C2492B222F494
:104C0000F84292B2A3F80C24B3F80C246FEA4242A3
:104C10006FEA524292B2A3F80C24227835F822307F
:104C20009BB223F4804323F0700383F4405343F496
:104C3000004343F0800325F82230002070BD8E69C8
:104C40000A69964200D91646237B002B39D0E378B7
:104C5000022B58D0227835F822309BB223F4E0435F
:104C600023F0700343F4014343F0800325F822301E
:104C7000236A9B1B2362237835F8232012F0400F10
:104C800000F026826278002A40F0CA81B5F85020F0
:104C900092B22A4402EB0313002E40F0A881B3F82D
:104CA0000C2492B222F4F84292B2A3F80C24B3F886
:104CB0000C246FEA42426FEA524292B2A3F80C24EB
:104CC000B0E1B6B23346E28861692846FFF765FF76
:104CD000B5F850309BB22B44227803EB0213A3F8B3
:104CE0000464227835F822309BB223F4E04323F0A9
:104CF000400383F0300343F4004343F0800325F87E
:104D0000223000209AE7236A9A4280F0528122786A
:104D100035F822309BB223F4E04323F0700343F4D0
:104D2000014343F0800325F82230236A9B1B236252
:104D3000237835F8232012F0400F00F09D80627830
:104D40008ABBB5F8502092B22A4402EB03138EB905
:104D5000B3F80C2492B222F4F84292B2A3F80C24D5
:104D6000B3F80C246FEA42426FEA524292B2A3F8BF
:104D70000C241AE03E2E09D8720816F0010F00D05C
:104D80000132920292B2A3F80C240EE0720916F0DE
:104D90001F0F00D1013A6FEAC2626FEA524292B22B
:104DA000A3F80C2401E0012A2BD0B3B26289616917
:104DB0002846FFF7F2FE636933446361236A226980
:104DC000934228D99B1B23626378002B40D1B5F80E
:104DD00050309BB22B44227803EB0213FEB9B3F898
:104DE000042492B222F4F84292B2A3F80424B3F855
:104DF00004246FEA42426FEA524292B2A3F80424BA
:104E000028E0B5F8502092B22A4402EB0313B2B264
:104E1000A3F80C24C9E7002222621E46D4E73E2EE6
:104E200009D8720816F0010F00D00132920292B236
:104E3000A3F804240EE0720916F01F0F00D1013A06
:104E40006FEAC2626FEA524292B2A3F8042401E010
:104E5000012B06D0B3B2228961692846FFF79DFE77
:104E60003FE7B5F850309BB22B44227803EB021396
:104E7000B2B2A3F80424EDE762788ABBB5F85020FB
:104E800092B22A4402EB03138EB9B3F8042492B20F
:104E900022F4F84292B2A3F80424B3F804246FEA8F
:104EA00042426FEA524292B2A3F804241AE03E2E24
:104EB00009D8720816F0010F00D00132920292B2A6
:104EC000A3F804240EE0720916F01F0F00D1013A76
:104ED0006FEAC2626FEA524292B2A3F8042401E080
:104EE000012A2BD0B3B2228961692846FFF755FE0B
:104EF000636933446361236A2269934228D99B1B07
:104F000023626378002B40D1B5F850309BB22B441C
:104F1000227803EB0213FEB9B3F80C2492B222F408
:104F2000F84292B2A3F80C24B3F80C246FEA424280
:104F30006FEA524292B2A3F80C2428E0B5F8502050
:104F400092B22A4402EB0313B2B2A3F80424C9E7D5
:104F5000002222621E46D4E73E2E09D8720816F0BF
:104F6000010F00D00132920292B2A3F80C240EE09D
:104F7000720916F01F0F00D1013A6FEAC2626FEAA0
:104F8000524292B2A3F80C2401E0012B06D0B3B236
:104F9000628961692846FFF700FEA2E6B5F8503045
:104FA0009BB22B44227803EB0213B2B2A3F80C2479
:104FB000EDE7217835F8212092B222F4E24222F086
:104FC000700242F4004242F0800225F82120B5F838
:104FD000502092B22A44217802EB01129BB2A2F82F
:104FE0000434228961692846FFF7D7FD79E63E2E11
:104FF00009D8720816F0010F00D00132920292B265
:10500000A3F80C240EE0720916F01F0F00D1013A2C
:105010006FEAC2626FEA524292B2A3F80C2401E036
:10502000012A26D0B3B2628961692846FFF7B5FD2F
:10503000636933446361236A2269934223D99B1BCA
:105040002362002E3FF44DAE63786BBBB5F8503051
:105050009BB22B44227803EB02133E2E17D8720822
:1050600016F0010F00D00132920292B2A3F804248C
:105070001CE0B5F8502092B22A4402EB0313B2B2FE
:10508000A3F80C24CEE7002222621E46D9E772095B
:1050900016F01F0F00D1013A6FEAC2626FEA524266
:1050A00092B2A3F8042401E0012B06D0B3B2228906
:1050B00061692846FFF771FD13E6B5F850309BB2E1
:1050C0002B44227803EB0213B2B2A3F80424EDE7D9
:1050D00062788ABBB5F8502092B22A4402EB0313DF
:1050E0008EB9B3F8042492B222F4F84292B2A3F833
:1050F0000424B3F804246FEA42426FEA524292B2A7
:10510000A3F804241AE03E2E09D8720816F0010F05
:1051100000D00132920292B2A3F804240EE0720988
:1051200016F01F0F00D1013A6FEAC2626FEA5242D5
:1051300092B2A3F8042401E0012A26D0B3B2228956
:1051400061692846FFF729FD636933446361236A77
:105150002269934223D99B1B2362002E3FF4C1ADE9
:1051600063786BBBB5F850309BB22B44227803EBCD
:1051700002133E2E17D8720816F0010F00D001322C
:10518000920292B2A3F80C241CE0B5F8502092B21F
:105190002A4402EB0313B2B2A3F80424CEE70022A0
:1051A00022621E46D9E7720916F01F0F00D1013A9C
:1051B0006FEAC2626FEA524292B2A3F80C2401E095
:1051C000012B06D0B3B2628961692846FFF7E5FC7E
:1051D00087E5B5F850309BB22B44227803EB0213DD
:1051E000B2B2A3F80C24EDE700228A611A46F9E472
:1051F0003E2A09D8510812F0010F00D0013189026E
:1052000089B2A3F80C1408E5510912F01F0F00D160
:1052100001396FEAC1616FEA514189B2A3F80C14F8
:10522000FBE4CA78022A45D0012A40F0208189692E
:105230002269914240F2D480891AA161D3B9B5F8AC
:1052400050309BB22B44217803EB0113002A40F02D
:10525000CB80B3F8041489B221F4F84189B2A3F8E1
:105260000414B3F804146FEA41416FEA514189B262
:10527000A3F804146378002B40F0EA80B5F85030AE
:105280009BB22B44217803EB0113002A40F0C58028
:10529000B3F80C2492B222F4F84292B2A3F80C2490
:1052A000B3F80C246FEA42426FEA524292B2A3F87A
:1052B0000C24B2E4CBB9B0F850309BB203440A7866
:1052C00003EB02130A6972BBB3F8042492B222F40E
:1052D000F84292B2A3F80424B3F804246FEA4242DD
:1052E0006FEA524292B2A3F804246378002B4CD1A7
:1052F000B5F850309BB22B44227803EB021322699D
:1053000052BBB3F80C2492B222F4F84292B2A3F842
:105310000C24B3F80C246FEA42426FEA524292B274
:10532000A3F80C2433E03E2A09D8510812F0010FEB
:1053300000D001318A0292B2A3F80424D5E75109C2
:1053400012F01F0F00D101396FEAC1626FEA5242B9
:1053500092B2A3F80424C8E73E2A09D8510812F0F3
:10536000010F00D001318A0292B2A3F80C240EE0A2
:10537000510912F01F0F00D101396FEAC1626FEAC3
:10538000524292B2A3F80C2401E0012B1DD0E36934
:10539000002B3FF442AC227835F8221044F240034F
:1053A00003EA01008B4302D000287FF436AC35F8C5
:1053B00022309BB223F4E04323F0700343F4004314
:1053C00043F0C00325F8223027E4B5F850309BB2F3
:1053D0002B44227803EB0213228AA3F80C24D6E78D
:1053E0000022A2610A4629E73E2A09D8510812F094
:1053F000010F00D00131890289B2A3F8041439E702
:10540000510912F01F0F00D101396FEAC1616FEA33
:10541000514189B2A3F804142CE73E2A0AD8510856
:1054200012F0010F00D001318A0292B2A3F80C24CD
:10543000FFF7F3BB510912F01F0F00D101396FEADA
:10544000C1626FEA524292B2A3F80C24FFF7E5BBA7
:10545000012B7FF4E2ABB5F850309BB22B4421789E
:1054600003EB011392B2A3F80C24FFF7D6BB012083
:10547000FFF7E4BB10B45C0800EB420000F580606D
:1054800007E030F8042B0A70C2F307224A70023199
:10549000013C002CF5D113F0010F01D003880B70F3
:1054A00010BC70472DE9F04182B080460F4614468B
:1054B0001E46BDF8205001EB030C53199BB200931C
:1054C0001FFA8CF301F023F960B90DE0002200927D
:1054D000334622463946404601F073F80134A4B2FF
:1054E000013DADB2002DF1D102B0BDE8F0812DE952
:1054F000F04782B080460D4614461E46BDF82890FF
:10550000CF18BFB202EB09039BB200933B4601F0F8
:10551000FEF810B902B0BDE8F087002300933346CF
:1055200022462946404601F04CF8B9F1010FF1D965
:10553000A9F102091FFA89F90134A4B2B9F1000FE7
:1055400008D100230093334622462946404601F005
:1055500038F8DFE74FF0010ACDF800A04B462246AD
:105560002946404601F02DF8791ECDF800A04B46A3
:10557000224689B2404601F024F84C44A4B2E0E748
:105580002DE9F04F87B080460C469246BDF840604A
:10559000BDF84470039104931C44A4B29519ADB2B4
:1055A0000095234601F0B3F810B907B0BDE8F08FBD
:1055B000039A02EB07091FFA89F90AEB070B1FFA96
:1055C0008BFBE41BA4B2013CA4B2ED1BADB2013DC8
:1055D000ADB2022300933B465A464946404600F08E
:1055E0001AFC012300933B465A462146404600F0F0
:1055F00012FC042300933B462A464946404600F0ED
:105600000AFC082300933B462A462146404600F008
:1056100002FC049BDB1B9BB2DB1B9BB209F1010963
:105620001FFA89F90BF1010B1FFA8BFB022B0FD824
:10563000F61BB6B2F71BBFB2022FB6D9023FBFB2FC
:105640000097049B5A4603994046FFF72BFFACE7AF
:10565000023B9BB27C1CA4B200940593524649467F
:105660004046FFF71FFF0094059B2A4649464046E7
:10567000FFF718FFDCE72DE9F04F85B007460C4631
:105680009046BDF838B0BDF83C60029103931C44CD
:10569000A4B202EB0B05ADB20095234601F037F83A
:1056A00010B905B0BDE8F08F029A02EB060A1FFAA6
:1056B0008AFA08EB06091FFA89F9A41BA4B2013C77
:1056C000A4B2AD1BADB2013DADB20223009333468F
:1056D0004A465146384600F07AFB01230093334690
:1056E0004A462146384600F072FB042300933346B5
:1056F0002A465146384600F06AFB08230093334699
:105700002A462146384600F062FB039B9C1BA4B24C
:10571000A41BA4B2ABEB06039BB29E1BB6B20AF16C
:10572000010A1FFA8AFA09F101091FFA89F9022C04
:1057300016D8022EB5D9023EB6B2039B5C1EA4B2A7
:1057400033464A46029D2946384600F0A7FF2946BF
:10575000214433464A4689B2384600F09FFFA0E70D
:10576000023CA4B20BF1FF3B1FFA8BFB23464246DF
:105770005146384600F08AFF08EB0B02234692B2EE
:105780005146384600F082FFD3E710B582B0036877
:105790001B7C446B03FB01F1C90089B221440091D9
:1057A000002101F077FA02B010BD2DE9F041064664
:1057B00090F8387090F83950036893F811800024FD
:1057C0002A4621463046FFF7E0FF0134E4B20135B6
:1057D000EDB2A74201D9A845F2D8BDE8F08108B5DD
:1057E00003681B7C90F8382003FB02F2D2000021F2
:1057F000406B02F0BDFC08BD10B50446FFF7D5FFB5
:10580000204601F06DFA10BD10B5044680F839103D
:10581000036B1B689847236B5B682046984710BD55
:1058200010B5044690F8933023B900212046FFF7C5
:10583000EBFF10BDFFF7D3FFF7E738B50446FFF7DE
:10584000B4FF94F8393094F838501D44EDB2236811
:105850005B7CAB4208D994F8933053B92946204673
:10586000FFF7D2FF012038BD204601F039FA0020B1
:10587000F9E72046FFF7B3FFF0E72DE9F84380464C
:105880000F4691461C46BDF820609DF8245015F047
:10589000010F0AD115F0020F16D115F0080F24D10F
:1058A00015F0040F32D1BDE8F883B21A591892B23C
:1058B00089B200F0FBFEF21B04EB090192B289B23F
:1058C000404600F0F3FEE5E7A6EB0902E11B92B2C9
:1058D00089B2404600F0EAFEF21BA4EB090192B245
:1058E00089B2404600F0E2FED7E706EB0902E11973
:1058F00092B289B2404600F0D9FEBA1904EB090110
:1059000092B289B2404600F0D1FEC9E706EB090227
:10591000E11B92B289B2404600F0C8FEBA19A4EB6E
:10592000090192B289B2404600F0C0FEBBE72DE902
:10593000F04F85B00390894692461E469DF838B0D8
:10594000C3F1010424B2C3EBC3384FEA48080FFA8D
:1059500088F8CDF804B000920B4632460021FFF7DC
:105960008CFF002501271AE0013EB6B208F10208BB
:105970001FFA88F30FFA88F81C4424B20135ADB23F
:105980000237BBB23FB21C4424B2CDF804B0CDF80C
:1059900000A04B46324629460398FFF76EFFB542FA
:1059A00002D2002CE0DAE9E705B0BDE8F08F2DE97E
:1059B000F8430746884691461D46BDF820609DF88D
:1059C000244014F0010F0AD114F0020F0ED114F08C
:1059D000080F15D114F0040F1CD1BDE8F883B21ADA
:1059E000591892B289B200F061FEEDE7A6EB090208
:1059F000A5EB080192B289B2384600F057FEE6E7FF
:105A000006EB090205EB080192B289B2384600F0B4
:105A10004DFEDFE706EB0902A5EB080192B289B261
:105A2000384600F043FED8E72DE9F04F8DB00590E1
:105A3000069107921D46BDF8583004939DF85C20EE
:105A40000892099505FB05FB4FEA4B080A9303FBF7
:105A500003FA4FEA4A09C5F101077F1B03FB07F769
:105A600007FB03F309FB05F2039200273E463C4681
:105A7000CDF82CA09A46039BBB421BDB089B0193ED
:105A8000079B0093069B224629460598FFF78FFF48
:105A90000134A4B247445E44C3440AEB4603002BDE
:105AA000E9DD013DADB2039BA3EB0903039356442B
:105AB000CA44E0E7DDF82CA00A9BC3F10106F61A00
:105AC000099A02FB06F602FB06F603FB08FB002719
:105AD0003D463C465F451BDC089B0193079B0093BA
