:020000040800F2
:1000000000500020450A0008510600085306000869
:1000100055060008570600085906000800000000B1
:100020000000000000000000000000005B06000867
:100030005D060008000000005F0600086106000879
:100040008D0A00088D0A00088D0A00088D0A000834
:100050008D0A00088D0A000869060008730600086A
:100060008D0A00088D0A00088D0A00087D06000828
:100070008D0A00088D0A00088D0A00088D0A000804
:100080008D0A00088D0A00088D0A00088D0A0008F4
:100090008D0600088D0A00088D0A00088D0A0008E8
:1000A0008D0A00088D0A00088D0A00088D0A0008D4
:1000B0008D0A00088D0A00088D0A00088D0A0008C4
:1000C0008D0A00088D0A00088D0A00088D0A0008B4
:1000D0008D0A00088D0A00088D0A00088D0A0008A4
:1000E0008D0A00088D0A00088D0A00080000000033
:1000F0000000000000000000000000000000000000
:0C01000000000000000000005FF808F1A3
:10010C0010B5054C237833B9044B13B10448AFF345
:10011C0000800123237010BD740500200000000036
:10012C00A857000808B5034B1BB103490348AFF3AC
:10013C00008008BD0000000078050020A8570008CA
:10014C0000B585B0002301930293039319481A4A12
:10015C0002604FF480728260037303754FF4602267
:10016C00C26143600223036100F0B8FDC8B90923E2
:10017C000193012302930023039301A90D4800F07E
:10018C00DFFC88B908230193022302930423039311
:10019C000DEB0301074800F0D3FC40B905B05DF846
:1001AC0004FB00F069F9E2E700F066F9EAE700F019
:1001BC0063F9F3E7900500200024014010B586B0E8
:1001CC000023029303930493059302681E4B9A42F7
:1001DC0001D006B010BD044603F56C439A6942F495
:1001EC0000729A619A6902F400720092009A9A69FC
:1001FC0042F008029A619B6903F008030193019B8A
:10020C0003230293039302A9104800F02FFF104818
:10021C00104B03600023436083608023C3604FF462
:10022C00807303614FF480634361202383614FF437
:10023C000053C36100F042FE18B9054B23625C62A7
:10024C00C7E700F019F9F8E700240140000C014061
:10025C00C00500200800024000B583B00A4B5A6963
:10026C0042F001025A615B6903F001030193019BA7
:10027C00002211460B2000F0C7FD0B2000F0FCFD06
:10028C0003B05DF804FB00BF001002402DE9F04103
:10029C0088B000240494059406940794494B9A69F9
:1002AC0042F010029A619A6902F010020092009AD0
:1002BC009A6942F020029A619A6902F02002019236
:1002CC00019A9A6942F004029A619A6902F0040256
:1002DC000292029A9A6942F008029A619B6903F0B1
:1002EC0008030393039B384F01224FF403613846F4
:1002FC0000F0D5FF22464FF49851384600F0CFFF5E
:10030C00324D01224FF40041284600F0C8FF4FF453
:10031C00604304934FF00308CDF8148004A92C48D3
:10032C0000F0A4FECDF810802A4B0593012606960A
:10033C0004A9284600F09AFE4FF488730493CDF874
:10034C00148004A9284600F091FEE0230493059440
:10035C00069604A9284600F089FE40F20C4304934B
:10036C00CDF8148004A9384600F080FE41F63033F5
:10037C000493059606944FF00208CDF81C8004A94E
:10038C00384600F073FE4FF4004304930596069430
:10039C00CDF81C8004A9284600F068FE22462146B0
:1003AC00062000F031FD062000F066FD22462146B5
:1003BC00072000F029FD072000F05EFD08B0BDE825
:1003CC00F08100BF00100240000C01400008014009
:1003DC00001001400000111008B50B480B4B0360D6
:1003EC000B4B436000238360C3604FF48042026177
:1003FC0043618361C361036200F066FF00B908BD0D
:10040C0000F03AF8FBE700BF04060020005400405F
:10041C00801A060010B586B0002302930393049350
:10042C0005930268114B9A4201D006B010BD104CD6
:10043C00A36943F00803A361A36903F008030093C5
:10044C00009BC0230293122303930323059302A959
:10045C00084800F00BFEE36943F40013E361E36921
:10046C0003F400130193019BDFE700BF005400402D
:10047C0000100240000C014072B6FEE700B595B0CA
:10048C00282200210DEB020005F0C6F8002305938D
:10049C000693079308930993019302930393049390
:1004AC0001220A924FF480330B930E920222119286
:1004BC0012934FF4E01313930AA801F0A7FFD8B9D5
:1004CC000F23059302210691002307934FF48062BA
:1004DC000892099305A802F0D9F978B9122301936F
:1004EC004FF4004303930023049301A802F0AAFAEB
:1004FC0030B915B05DF804FBFFF7BEFFFFF7BCFF8A
:10050C00FFF7BAFF08B500F0E3FAFFF7B7FFFFF704
:10051C00BDFEFFF7A1FEFFF713FEFFF75DFF00F036
:10052C0013F800F0B7F800F0D1F900F0EBF800F098
:10053C002DFA04F071FE00F01DF903F00FFF03F02B
:10054C0053FF03F085FFF8E708B50D480D4B03602A
:10055C004FF48273436000238360C3600361436183
:10056C004FF400728261C3610362436283620A23A7
:10057C00C36202F0F3FA00B908BDFFF77DFFFBE799
:10058C00580600200038004010B586B000230293B6
:10059C000393049305930268174B9A4201D006B05B
:1005AC0010BD03F5EC33DA6942F48042DA61DA69A2
:1005BC0002F480420092009A9A6942F008029A6111
:1005CC009B6903F008030193019B4FF420430293B2
:1005DC000223039303230593084C02A9204600F041
:1005EC0045FD4FF48043029300230393049302A927
:1005FC00204600F03BFDD2E700380040000C0140E3
:10060C0082B00E4B9A6942F001029A619A6902F02B
:10061C0001020092009ADA6942F08052DA61DB69D9
:10062C0003F080530193019B054A536823F0E06368
:10063C0043F00073536002B0704700BF00100240DB
:10064C0000000140FEE7FEE7FEE7FEE7FEE770472D
:10065C007047704708B500F04DFA08BD08B5012089
:10066C0000F024FE08BD08B5022000F01FFE08BDF6
:10067C0008B5024800F058FC08BD00BFC0050020BA
:10068C0008B5024801F071FC08BD00BFF00C002059
:10069C007047000000B587B00023029303930493C6
:1006AC000593009301931548154A02604722426056
:1006BC00836040F2E732C26003614361836102F000
:1006CC0095FB90B94FF48053029302A90B4802F0AA
:1006DC008BFC68B90023009301936946074802F02C
:1006EC00AFFD40B907B05DF804FBFFF7C5FEE9E7C5
:1006FC00FFF7C2FEEEE7FFF7BFFEF3E7B006002000
:10070C00002C014000B587B000230293039304939F
:10071C000593009301931548154A026047224260E5
:10072C00836040F2E732C2600361836102F05EFBDA
:10073C0090B94FF48053029302A90C4802F054FC78
:10074C0068B90023009301936946084802F078FDCC
:10075C0040B907B05DF804FBFFF78EFEE9E7FFF741
:10076C008BFEEEE7FFF788FEF3E700BF40070020A3
:10077C000004004000B587B0002302930393049358
:10078C000593009301931548154A02604722426075
:10079C00836040F2E732C2600361836102F026FBA2
:1007AC0090B94FF48053029302A90C4802F01CFC40
:1007BC0068B90023009301936946084802F040FD94
:1007CC0040B907B05DF804FBFFF756FEE9E7FFF709
:1007DC0053FEEEE7FFF750FEF3E700BF880700205B
:1007EC000008004084B003681C4A934213D0B3F154
:1007FC00804F1CD01A4A934225D01A4A934214D1E6
:10080C00194BDA6942F00402DA61DB6903F0040384
:10081C000393039B09E0144B9A6942F400629A61BA
:10082C009B6903F400630093009B04B0704703F5CD
:10083C000433DA6942F00102DA61DB6903F0010387
:10084C000193019BF1E7084BDA6942F00202DA618D
:10085C00DB6903F002030293029BE6E7002C0140E4
:10086C0000040040000800400010024030B587B082
:10087C00002302930393049305930368B3F1804F11
:10088C0001D007B030BD03F504339A6942F004027D
:10089C009A619B6903F004030193019B0423029367
:1008AC000224039403230593074D02A9284600F064
:1008BC00DDFB08230293039405940DEB03012846FA
:1008CC0000F0D4FBDDE700BF0008014000B58FB09D
:1008DC0000230A930B930C930D93089309930193A4
:1008EC0002930393049305930693079326484FF0C2
:1008FC008042026047224260836040F2E732C2606D
:10090C000361836102F072FA58BB4FF480530A936F
:10091C000AA91D4802F068FB30BB1B4802F092FA92
:10092C0028BB00230893099308A9174802F088FCF8
:10093C0000BB6023019300230293039305930822C9
:10094C0001A9114802F0DCFAB8B90C2201A90E4831
:10095C0002F0D6FAA0B90C48FFF788FF0FB05DF88B
:10096C0004FBFFF789FDD0E7FFF786FDD5E7FFF71E
:10097C0083FDD6E7FFF780FDDBE7FFF77DFDE4E7BE
:10098C00FFF77AFDE7E700BFF806002008B50A4834
:10099C000A4B03604FF4E133436000238360C36070
:1009AC0003610C2242618361C36102F0C9FC00B98E
:1009BC0008BDFFF761FDFBE7D007002000380140C0
:1009CC0010B586B000230293039304930593026839
:1009DC00174B9A4201D006B010BD03F558439A69E3
:1009EC0042F480429A619A6902F480420092009A21
:1009FC009A6942F004029A619B6903F00403019323
:100A0C00019B4FF40073029302230393032305937A
:100A1C00084C02A9204600F029FB4FF48063029396
:100A2C0000230393049302A9204600F01FFBD2E796
:100A3C0000380140000801400C480D490D4A0023C4
:100A4C0002E0D458C4500433C4188C42F9D30A4A77
:100A5C000A4C002301E013600432A242FBD3FFF7DF
:100A6C0017FE04F0B5FDFFF74DFD704700000020A8
:100A7C00740500205C58000874050020FC0F002051
:100A8C00FEE7000010B504460E4B18784FF47A734D
:100A9C00B3FBF0F30C4A1068B0FBF3F000F0FAF97A
:100AAC0068B90F2C01D901200AE0002221464FF031
:100ABC00FF3000F0A9F9054B1C60002000E001207C
:100ACC0010BD00BF04000020000000200800002022
:100ADC0008B5074A136843F010031360032000F0B5
:100AEC0081F90F20FFF7CEFFFFF78AFD002008BD2C
:100AFC0000200240034A1168034B1B780B4413601F
:100B0C00704700BF1408002004000020014B186837
:100B1C00704700BF1408002038B50446FFF7F6FFF5
:100B2C000546B4F1FF3F02D0044B1B781C44FFF781
:100B3C00EDFF401BA042FAD338BD00BF04000020DB
:100B4C0030B482B00022019290F82420012A00F0E7
:100B5C0091800346012280F824204A68062A2DD869
:100B6C000468606B02EB8202053A4FF01F0C0CFA22
:100B7C0002FC20EA0C000D6805FA02F202436263E3
:100B8C000A68092A3AD91C68E06802EB42021E3A4C
:100B9C004FF0070C0CFA02FC20EA0C008D6805FAE9
:100BAC0002F20243E2600A68103A012A36D90020A8
:100BBC00002283F8242002B030BC70470C2A0ED8D7
:100BCC000568286B02EB8202233A1F24944020EA2A
:100BDC0004000C6804FA02F202432A63D0E70568A9
:100BEC00E86A02EB8202413A1F24944020EA040096
:100BFC000C6804FA02F20243EA62C1E71C6820693D
:100C0C0002EB42024FF0070C0CFA02FC20EA0C003B
:100C1C008D6805FA02F202432261C4E71A6816488D
:100C2C00824205D09A6A42F020029A620120BFE704
:100C3C00906810F4000F1BD1906840F40000906095
:100C4C000A68102A01D00020B2E70C4A12680C493D
:100C5C00A1FB0212920C02EB82025200019202E002
:100C6C00019A013A0192019A002AF9D100209FE7DA
:100C7C0000209DE702209EE7002401400000002098
:100C8C0083DE1B4338B503689A6812F0010F01D15B
:100C9C00002038BD04469A6822F001029A60FFF7E2
:100CAC0035FF054623689B6813F0010F13D0FFF73F
:100CBC002DFF431B022BF5D923689B6813F0010F02
:100CCC00F0D0A36A43F01003A362E36A43F001037C
:100CDC00E3620120DDE70020DBE7000000287BD089
:100CEC0070B50446836A002B4DD02046FFF7CAFF2F
:100CFC00A36A13F0100369D1002867D1A26A22F409
:100D0C00885222F0020242F00202A2626268E16999
:100D1C000A43217B42EA4102A568B5F5807F02D0E7
:100D2C00012D36D01D46267D012E35D026687168E2
:100D3C0021F46941294371602568AE682749314027
:100D4C001143A960A168B1F5807F01D0012902D1BE
:100D5C002369013B1B052568E96A21F470010B43EB
:100D6C00EB62236899681E4B0B409A4225D0A36A0C
:100D7C0023F0120343F01003A362E36A43F0010370
:100D8C00E362012027E0C36280F82430FFF716FAF3
:100D9C00ABE74FF48075C6E731B9A169013945EA73
:100DAC00413141F40065C1E7A16A41F02001A16223
:100DBC00E16A41F00101E162B8E70023E362A36A52
:100DCC0023F0030343F00103A36204E0A36A43F09E
:100DDC001003A362012070BD01207047FDF7E1FFF5
:100DEC00FE0E1FFF074AD36823F4E0631B041B0CA1
:100DFC00000200F4E060034343F0BF6343F40033AC
:100E0C00D360704700ED00E000B5194BDB68C3F30D
:100E1C000223C3F1070CBCF1040F28BF4FF0040CE4
:100E2C0003F1040EBEF1060F18D9033B4FF0FF3E41
:100E3C000EFA0CFC21EA0C0199400EFA03F322EA9B
:100E4C000303194300280BDB0901C9B200F1604010
:100E5C0000F5614080F800135DF804FB0023E5E722
:100E6C0000F00F000901C9B2024B1954F4E700BF9E
:100E7C0000ED00E014ED00E0002807DB00F01F029D
:100E8C00400901239340024A42F82030704700BFCA
:100E9C0000E100E00138B0F1807F0BD24FF0E0238D
:100EAC005861054AF02182F823100020986107222E
:100EBC001A6170470120704700ED00E060B310B478
:100ECC0002460168154B0B441548A0FB03031B0994
:100EDC009B001364134BD363022382F82130086800
:100EEC0020F47F5020F03000536894682343D4687A
:100EFC002343146923435469234394692343D469DA
:100F0C00234303430B6000209063012382F82130BC
:100F1C0082F8200010BC704701207047F8FFFDBF1D
:100F2C00CDCCCCCC0000024038B5C36B1A68046839
:100F3C002568016C04238B40134235D015F0040F47
:100F4C0032D0236813F0200F03D1236823F004035D
:100F5C0023600368434A934214D01432934218D04E
:100F6C001432934217D01432934217D01432934256
:100F7C0017D01432934202D04FF0806203E04FF44A
:100F8C00800200E00422384B5A60C36A03B19847D0
:100F9C0038BD4022F7E74FF48062F4E74FF480420B
:100FAC00F1E74FF48022EEE702238B4013423CD052
:100FBC0015F0020F39D0236813F0200F06D12368E7
:100FCC0023F00A032360012380F821300368254AAB
:100FDC00934214D0143293421CD0143293421BD03F
:100FEC00143293421BD0143293421BD014329342CE
:100FFC0002D04FF0007203E04FF4001200E0022226
:10100C00194B5A60002380F82030836A002BBFD024
:10101C009847BDE72022F3E74FF40072F0E74FF456
:10102C000052EDE74FF40032EAE7082303FA01F12E
:10103C001142ADD015F0080FAAD0236823F00E038F
:10104C002360026CC16B012303FA02F24A608363D2
:10105C0080F82130002380F82030036B002B97D0D0
:10106C00984795E7080002400000024070B582B036
:10107C000024A446A6E0804DAA4210D007D97F4D8B
:10108C00AA420CD005F58035AA4208D013E0A5F58C
:10109C008015AA4203D005F57025AA4207D18A68AB
:1010AC00002A58D0012A51D04361082403E0A5F549
:1010BC008015AA42F3D0BEF1FF0F4ED80646BEF102
:1010CC00FF0F4CD84FEA8C0233680F25954023EA6A
:1010DC00050304FA02F2134333604B6813F0805F8C
:1010EC006ED0674B9A6942F001029A619B6903F0DA
:1010FC0001030193019B4FEA9C02951C614B53F831
:10110C0025600CF003039D000F23AB4026EA030679
:10111C005D4B984229D003F58063984200F08E8095
:10112C0003F58063984200F08B8003F5806398424E
:10113C0019D004231AE0CC68BDE7CC680434BAE7B4
:10114C00CC680834B7E7CC680C34B4E703610824E6
:10115C00B1E70024AFE70424ADE7061DAFE7ACF11F
:10116C0008029200B0E7032300E00023AB403343B6
:10117C000232444D45F822304B6813F4803F61D065
:10118C00424A136843EA0E0313604B6813F4003FA2
:10119C005ED03E4A536843EA0E0353604B6813F427
:1011AC00801F5BD0394A936843EA0E0393604B6807
:1011BC0013F4001F58D0354AD36843EA0E03D360AA
:1011CC000CF1010C0A6832FA0CF353D0012303FA28
:1011DC000CF302EA030E33EA0202F1D14A68122A36
:1011EC003FF649AF122A3FF666AF01A555F822F03B
:1011FC00AB100008431100084D1100085F110008E6
:10120C00C3100008C3100008C3100008C310000866
:10121C00C3100008C3100008C3100008C310000856
:10122C00C3100008C3100008C3100008C310000846
:10123C00C31000084711000853110008012395E75B
:10124C00022393E7114A136823EA0E0313609CE709
:10125C000E4A536823EA0E0353609FE70B4A9368C8
:10126C0023EA0E039360A2E7084AD36823EA0E032D
:10127C00D360A5E702B070BD000022100000311051
:10128C000010024000000140000801400004014031
:10129C008368194201D001207047002070470AB1C1
:1012AC0001617047090401617047704708B5054B2F
:1012BC005B69034200D108BD024B5861FFF7F5FF93
:1012CC00F9E700BF00040140002800F0CC8070B5A5
:1012DC00044690F83D30002B77D0242384F83D3021
:1012EC002268136823F0010313602268136843F427
:1012FC00004313602268136823F40043136001F069
:10130C0081FB62685A4B9A4264D85A4B98428CBF04
:10131C0000230123002B40F0A8805749A1FB00318A
:10132C008B0C25686A6822F03F0242EA91426A609F
:10133C0021680A6A22F03F0266684D4DAE424FD8D2
:10134C00013313430B622168CA6922F44F4222F025
:10135C00FF026668464B9E424CD8431E7600B3FB98
:10136C00F6F3013340F6FC70034278D0C3F30B0361
:10137C001343CB6121680B6823F0C003E269206A38
:10138C00024313430B6021688B6823F4034323F05F
:10139C00FF032269E068024313438B602168CB682A
:1013AC0023F0FF036269A06902431343CB602268F8
:1013BC00136843F00103136000202064202384F899
:1013CC003D30206384F83E0070BD80F83C30FFF760
:1013DC0021F882E7294B98428CBF0023012399E71F
:1013EC004FF4967505FB03F3254DA5FB03539B09A1
:1013FC000133A6E7A368BBB9451E06EB460CB5FB4B
:10140C00FCF50135C5F30B05B5FA85F56D0945BB42
:10141C00C3B9013806EB4603B0FBF3F30133C3F356
:10142C000B0343F40043A3E7451E06EB860C0CEBC1
:10143C008C0CB5FBFCF50135C5F30B05B5FA85F540
:10144C006D09E4E7013806EB860303EB8303B0FB7D
:10145C00F3F30133C3F30B0343F4404388E7042352
:10146C0086E7012384E7012070470120ACE700BF29
:10147C00A08601007F841E0083DE1B43FF083D0015
:10148C00D34D621038B512F4804F44D00468B4F8D0
:10149C0050309BB291F800C003EBCC03023304EB49
:1014AC004303B3F80044C4F309048B69A34228D363
:1014BC001B1B8B618B697BB9056835F82C309BB293
:1014CC0023F4804323F0700383F4005343F400436C
:1014DC0043F0800325F82C3012F0400F0ED0026838
:1014EC000D7832F825309BB223F4E04323F07003DF
:1014FC0043F4004343F0C00322F8253024B92046BE
:10150C0038BD00238B61D5E723460A8949690068F9
:10151C0002F00CFFF3E70468B4F850309BB291F87A
:10152C0000C003EBCC03063304EB4303B3F80044D5
:10153C00C4F309048B69A3422FD31B1B8B618B69EA
:10154C007BB9056835F82C309BB223F4804323F02B
:10155C00700383F4005343F4004343F0800325F8F5
:10156C002C3012F0400F0FD1026891F800C032F805
:10157C002C309BB223F4E04323F0700343F400437C
:10158C0043F0C00322F82C30002CB8D023464A89F3
:10159C004969006802F0CAFEB1E700238B61CEE70F
:1015AC0070B586B0002800F08580044690F8A9320A
:1015BC00EBB1032384F8A932206801F000FF254623
:1015CC0055F8106BEC460FCDACE80F002B68CCF83F
:1015DC000030231D0ECB304601F0E1FE054658B11C
:1015EC00022384F8A9320125284606B070BD80F884
:1015FC00A83203F0E5FEDCE70021206801F0E9FEEB
:10160C002B461AE05A1C02EB820104EBC1010120AB
:10161C00487002EB820104F8313003EB830104EBD8
:10162C00C101CB8602EB820C04EBCC0C00208CF8B5
:10163C0003008863C8630864D3B261688B42E1D34A
:10164C0016E005EB850304EBC303002283F8692144
:10165C0083F8685183F86B21C3F87821C3F87C2197
:10166C0005EB850304EBC303C3F880210135EDB210
:10167C00A942E6D8254655F8106BEC460FCDACE8E0
:10168C000F002B68CCF80030231D0ECB304601F038
:10169C00A2FE054620B1022384F8A9320125A3E756
:1016AC00002384F82430012384F8A932206802F046
:1016BC00C8F999E7012597E738B590F8A832012BBE
:1016CC0011D00446012580F8A852006801F06EFE86
:1016DC002946204603F07BFF206802F0B0F9002079
:1016EC0084F8A80238BD0220FCE770B505460C460C
:1016FC00164612F0400F00F00D810268B2F850301F
:10170C009BB2097803EBC103023302EB4303B3F83A
:10171C000024C2F30902A369934252D99B1AA36114
:10172C00A369002B6AD16378002B4DD12B68B3F8D9
:10173C00502092B2134403EB0111B1F804349BB264
:10174C0023F4F8439BB2A1F80434B1F804346FEAE3
:10175C0043436FEA53439BB2A1F804342B6862787D
:10176C00002A3ED1B3F8502092B21344227803EBF6
:10177C000213B3F80C2492B222F4F84292B2A3F8FA
:10178C000C24B3F80C246FEA42426FEA524292B234
:10179C00A3F80C242178284603F046FE16F4804F5B
:1017AC0041D02A68217832F821309BB223F4E043EF
:1017BC0023F0700343F4404343F0800322F82130BC
:1017CC0031E00023A361ABE7012BC7D12B68B3F841
:1017DC00502092B2134403EB01110023A1F80434FE
:1017EC00BCE7012AD6D1B3F8502092B21344227828
:1017FC0003EB02130022A3F80C24CBE716F4804F62
:10180C000DD0286830F821309BB223F4E04323F04C
:10181C00700343F4404343F0800320F8213094F8E4
:10182C002430012B12D02A68217832F821309BB257
:10183C0023F4E04323F0400383F0300343F40043EC
:10184C0043F0800322F82130002070BD63691344FB
:10185C006361E3691344E361216A236999421FD3ED
:10186C00C91A21626278002A3FD12A68B2F8501056
:10187C0089B20A44217802EB0112EBB9B2F80414D4
:10188C0089B221F4F84189B2A2F80414B2F8041414
:10189C006FEA41416FEA514189B2A2F8041426E083
:1018AC0021B9002384F824301346DBE7002384F8A5
:1018BC00243023620B46D5E73E2B09D8590813F088
:1018CC00010F00D00131890289B2A2F804140EE094
:1018DC00590913F01F0F00D101396FEAC1616FEA8A
:1018EC00514189B2A2F8041401E0012A06D09BB23E
:1018FC0022896169286802F0ACF894E72A68B2F88A
:10190C00501089B20A44217802EB011299B2A2F864
:10191C000414ECE70268B2F850309BB2097803EB80
:10192C00C103063302EB4303B3F80024C2F30902EC
:10193C00A369934253D39B1AA361A369002B6BD168
:10194C006378002B4ED12B68B3F8502092B213441D
:10195C0003EB0111B1F804349BB223F4F8439BB2AE
:10196C00A1F80434B1F804346FEA43436FEA5343EB
:10197C009BB2A1F804342B686278002A3FD1B3F8EB
:10198C00502092B21344227803EB0213B3F80C24C8
:10199C0092B222F4F84292B2A3F80C24B3F80C24BD
:1019AC006FEA42426FEA524292B2A3F80C242178B9
:1019BC00284603F039FD16F4804F7FF434AF2A68C3
:1019CC00217832F821309BB223F4E04323F07003EA
:1019DC0043F4404343F0800322F8213023E70023F3
:1019EC00A361AAE7012BC6D12B68B3F8502092B2A1
:1019FC00134403EB01110023A1F80434BBE7012AC3
:101A0C00D5D1B3F8502092B21344227803EB0213D1
:101A1C000022A3F80C24CAE716F4804F0DD12868D5
:101A2C0030F821309BB223F4E04323F0700343F4ED
:101A3C00404343F0800320F8213094F82430012BEC
:101A4C007FF4F1AE636913446361E3691344E361AA
:101A5C00216A236999421FD3C91A21622A686178C5
:101A6C0000293ED1B2F8501089B20A44217802EB19
:101A7C000112EBB9B2F80C1489B221F4F84189B215
:101A8C00A2F80C14B2F80C146FEA41416FEA514100
:101A9C0089B2A2F80C1426E021B9002384F8243072
:101AAC001346DBE70023236284F824300B46D5E78A
:101ABC003E2B09D8590813F0010F00D001318902CF
:101ACC0089B2A2F80C140EE0590913F01F0F00D1C3
:101ADC0001396FEAC1616FEA514189B2A2F80C1465
:101AEC0001E0012906D09BB262896169286801F086
:101AFC00B0FF98E6B2F8501089B20A44217802EB94
:101B0C00011299B2A2F80C14EDE72DE9F04105464B
:101B1C002868B0F8443013F4004F00F00F82B0F88E
:101B2C004440A3B214F00F0440F0D88013F0100F0F
:101B3C0061D003889AB213F4006F40F0938012F4D2
:101B4C00004FE5D0038823F070031B051B0D43F0F9
:101B5C00800303802868B0F850309BB295F8682158
:101B6C0003EBC203063300EB4303B3F80034C3F3B7
:101B7C000903C5F884318BB1D5F87C1171B1B5F876
:101B8C006E2102F0D3FBD5F88421D5F87C311344B7
:101B9C00C5F87C310021284603F03AFC2B681A88E2
:101BAC0012F4006FB4D1B3F8502092B21344D5F8AC
:101BBC007821002A79D1B3F80C2492B222F4F8429D
:101BCC0092B2A3F80C24B3F80C246FEA42426FEAE9
:101BDC00524292B2A3F80C242A6813889BB223F4C5
:101BEC00804323F0700383F4405343F4004343F0E9
:101BFC00800313808CE703889BB223F4E14323F02A
:101C0C0070036FEA43436FEA53439BB203802A6825
:101C1C00B2F850309BB295F8281003EBC103023395
:101C2C0002EB4303B3F80034C3F309036B64EA6BB0
:101C3C001344EB630021284603F0F6FB95F824309F
:101C4C00002B3FF465AF2B6C002B7FF461AF95F844
:101C5C0024302A6843F08003A2F84C30002385F826
:101C6C00243055E7B0F850309BB295F8682103EB5F
:101C7C00C203063300EB4303B3F80034C3F3090388
:101C8C00C5F88431B5F86E2105F52C7102F04EFBC8
:101C9C002A68138823F070031B051B0D43F0800387
:101CAC001380284603F0ACFB32E73E2A09D85108D2
:101CBC0012F0010F00D001318A0292B2A3F80C2469
:101CCC008AE7510912F01F0F00D101396FEAC16286
:101CDC006FEA524292B2A3F80C247DE730F824301C
:101CEC009EB213F4004F4FD116F0800F3FF410AF9B
:101CFC00621C02EB820105EBC101286830F824302C
:101D0C009BB223F4E14323F070036FEA43436FEA81
:101D1C0053439BB220F82430CB78032B07D033B13C
:101D2C00022B40F0068116F4807F40F00281286877
:101D3C00B0F850309BB2621C02EB820215F8326094
:101D4C0003EBC603023300EB4303B3F80034C3F3D5
:101D5C00090304EB840205EBC202126C9A4240F2B6
:101D6C00D48004EB840705EBC707D21A3A6404EB62
:101D7C00840205EBC202126C002A40F0CD80314681
:101D8C00284603F051FBC3E630F8243023F07003EF
:101D9C001B051B0D43F0800320F8243004EB840159
:101DAC00C90001F5B47105EB010804EB840305EBE4
:101DBC00C30393F87431002B42D12868B0F850302B
:101DCC009BB204EB840205EBC20292F8682103EB90
:101DDC00C203063300EB4303B3F80074C7F30907DF
:101DEC0017BB04EB840305EBC303D3F884213A44FB
:101DFC00C3F88421D3F87C213A44C3F87C21D3F86E
:101E0C0080313BB104EB840305EBC303D3F8783189
:101E1C009F4275D204EB840305EBC30393F868115E
:101E2C00284603F0F5FA5FE704EB840105EBC101EA
:101E3C003B46B1F86E21D1F87C1102F077FAD0E76D
:101E4C0004EB840305EBC30393F86B31022B35D001
:101E5C00296804EB840205EBC20292F8680131F8A0
:101E6C0020309BB223F4E04323F0700343F400438F
:101E7C0043F0C00321F82030286892F8682130F82C
:101E8C00223013F4804F20D0B0F850309BB203EBCB
:101E9C00C203023300EB4303B3F80074C7F3090722
:101EAC00002F9ED004EB840105EBC1013B46B1F839
:101EBC007021D1F87C1102F039FA92E73246414692
:101ECC002846FFF7DFFA07468BE7B0F850309BB295
:101EDC0003EBC203063300EB4303B3F80074C7F300
:101EEC000907002F3FF47DAF04EB840105EBC10122
:101EFC003B46B1F87221D1F87C1102F017FA70E769
:101F0C004146286801F0B9FDEEE604EB840205EBCE
:101F1C00C202002717642AE704EB840205EBC20215
:101F2C00D66B1E44D663546C2344536401F0A5FD58
:101F3C00EEE532462846FFF7D8FBE9E50020BDE880
:101F4C00F08190F8A832012B0DD010B50446012376
:101F5C0080F8A83280F82410006801F06AFD002097
:101F6C0084F8A80210BD0220704710B584B0044656
:101F7C00006801F068FD10F4004F47D1206801F0B3
:101F8C0062FD10F4806F45D1206801F05CFD10F407
:101F9C00804F08D02268B2F844309BB223F48043BF
:101FAC009BB2A2F84430206801F04DFD10F4005FA4
:101FBC0008D02268B2F844309BB223F400539BB291
:101FCC00A2F84430206801F03EFD10F4805F32D15D
:101FDC00206801F038FD10F4006F78D1206801F012
:101FEC0032FD10F4007F40F09D80206801F02BFD45
:101FFC0010F4807F08D02268B2F844309BB223F4EE
:10200C0080739BB2A2F8443004B010BD2046FFF799
:10201C007CFDB3E72268B2F844309BB223F48063B2
:10202C009BB2A2F84430204603F00FFA0021204660
:10203C00FFF787FFA8E72268B2F840309BB223F085
:10204C0004039BB2A2F840302268B2F840309BB235
:10205C0023F008039BB2A2F84030204603F018FA94
:10206C002268B2F844309BB223F480539BB2A2F89E
:10207C004430ADE7226832F8231004AA02EB430285
:10208C0022F8101C0133DBB2072BF3D92268B2F80B
:10209C0040309BB243F00103A2F840302268B2F802
:1020AC0040309BB223F001039BB2A2F8403023686E
:1020BC00B3F8442012F4806FF9D0B3F8442092B2F4
:1020CC0022F4806292B2A3F8442000230BE0002398
:1020DC00DAE7226804A901EB430131F8101C22F85D
:1020EC0023100133DBB2072BF3D92268B2F840304E
:1020FC009BB243F00803A2F840302268B2F8443097
:10210C009BB223F400639BB2A2F844302268B2F86D
:10211C0040309BB243F00403A2F84030204603F059
:10212C00A7F95BE72268B2F844309BB223F4007342
:10213C009BB2A2F84430204603F081F955E710B564
:10214C0004468C4611F0800F2AD101F0070000EBF9
:10215C008001C90001F5B47E04EB0E0100EB800098
:10216C0004EBC0004FF0000E80F869E10CF0070C96
:10217C0081F800C00A61CB704A780AB1A1F80EC090
:10218C00022B19D094F8A832012B18D0012384F813
:10219C00A832206801F030F9002084F8A80210BDA4
:1021AC0001F00700013000EB800104EBC1014FF09E
:1021BC00010E81F801E0D9E700230B71E2E7022060
:1021CC00EDE710B504460B4611F0800F1FD101F05E
:1021DC00070202EB8201C90001F5B471014402EB64
:1021EC00820200EBC202002082F8690103F00703AF
:1021FC000B7094F8A832012B13D0012384F8A83269
:10220C00206801F0B5FA002084F8A80210BD01F096
:10221C000702013202EB820100EBC1010120487080
:10222C00E4E70220F2E710B501F0070404EB8401A7
:10223C00C90001F5B471014404EB840C00EBCC0C27
:10224C00CCF87C21CCF880310023CCF884318CF88C
:10225C0069318CF8684124B9006801F00EFC00204B
:10226C0010BD006801F009FCF9E710B501F0070496
:10227C0004F1010C0CEB8C0100EBC10104EB840E9E
:10228C0000EBCE0ECEF83C20CEF8403001228EF87A
:10229C004C20CEF848300023CEF844304A700CEB7A
:1022AC008C0C00F83C4024B9006801F0E6FB0020DF
:1022BC0010BD006801F0E1FBF9E738B501F0070546
:1022CC004268954231D804460B4611F0800F1ED15E
:1022DC0001EB8101C90001F5B471014403EB8303E7
:1022EC0000EBC303002283F8692101238B700D706E
:1022FC0094F8A832012B1AD0012384F8A832206854
:10230C0001F021FB5DB1002084F8A80238BD6B1CE4
:10231C0003EB830100EBC10101224A70E5E704F5F0
:10232C002C71206801F093FBEDE70120EEE7022011
:10233C00ECE70B4601F00F014268914230D810B522
:10234C00044613F0800F21D103F0070202EB820147
:10235C00C90001F5B471014402EB820200EBC20228
:10236C00002082F8690100228A7003F007030B70C9
:10237C0094F8A832012B15D0012384F8A8322068D8
:10238C0001F006FB002084F8A80210BD03F0070240
:10239C00013202EB820100EBC10101204870E2E73F
:1023AC00012070470220F0E711F0800F0BD001F0F4
:1023BC000701013101EB810100EBC10152B90A7334
:1023CC00CB800020704701EB8101C90001F5B4718D
:1023DC000144F3E701220A730B811B0C4B81F0E7DC
:1023EC0082B0084B1B68084AA2FB03235B0A00FB64
:1023FC0003F3019300BF019B5A1E0192002BF9D1EC
:10240C0002B0704700000020D34D6210002800F08D
:10241C00F18170B582B00446036813F0010F2CD023
:10242C00994B5B6803F00C03042B1DD0964B5B6837
:10243C0003F00C03082B12D06368B3F5803F41D036
:10244C00002B55D103F1804303F504331A6822F4B1
:10245C0080321A601A6822F480221A6037E08A4BA4
:10246C005B6813F4803FE7D0874B1B6813F4003F85
:10247C0003D06368002B00F0BF81236813F0020FB8
:10248C0075D0814B5B6813F00C0F5FD07E4B5B6893
:10249C0003F00C03082B54D02369002B00F08A8026
:1024AC007A4B01221A60FEF731FB0546764B1B680E
:1024BC0013F0020F75D1FEF729FB401B0228F5D94A
:1024CC0003209EE1704A136843F480331360636801
:1024DC0043B3FEF71BFB05466B4B1B6813F4003F25
:1024EC00CBD1FEF713FB401B6428F5D9032088E100
:1024FC00B3F5A02F09D0644B1A6822F480321A600D
:10250C001A6822F480221A60E1E703F18043A3F5F4
:10251C003C331A6842F480221A601A6842F4803202
:10252C001A60D4E7FEF7F2FA0546574B1B6813F412
:10253C00003FA2D0FEF7EAFA401B6428F5D903202D
:10254C005FE1514B5B6813F4803FA5D14E4B1B6888
:10255C0013F0020F03D02369012B40F04F814A4A3C
:10256C00136823F0F803616943EAC103136023681D
:10257C0013F0080F33D0A369002B5CD0434B01221E
:10258C00C3F88024FEF7C2FA05463F4B5B6A13F092
:10259C00020F21D1FEF7BAFA401B0228F5D903200D
:1025AC002FE1394A136823F0F803616943EAC10348
:1025BC001360DCE7354B00221A60FEF7A7FA0546DC
:1025CC00314B1B6813F0020FD1D0FEF79FFA401B62
:1025DC000228F5D9032014E10120FFF701FF23683D
:1025EC0013F0040F00F09680274BDB6913F0805F2B
:1025FC0034D1254BDA6942F08052DA61DB6903F0A1
:10260C0080530193019B0125214B1B6813F4807FA0
:10261C0026D0E368012B3DD0002B53D103F180432E
:10262C0003F504331A6A22F001021A621A6A22F0C4
:10263C0004021A6233E0154B0022C3F88024FEF723
:10264C0065FA0546104B5B6A13F0020FC7D0FEF714
:10265C005DFA401B0228F5D90320D2E00025D3E710
:10266C000B4A136843F480731360FEF74FFA064667
:10267C00074B1B6813F4807FCBD1FEF747FA801B06
:10268C006428F5D90320BCE000100240000042424F
:10269C00007000405F4A136A43F001031362E36861
:1026AC0033B3FEF733FA06465A4B1B6A13F0020F8C
:1026BC002FD1FEF72BFA801B41F288339842F3D9C5
:1026CC0003209EE0052B09D0524B1A6A22F001021E
:1026DC001A621A6A22F004021A62E0E74D4B1A6A77
:1026EC0042F004021A621A6A42F001021A62D6E738
:1026FC00FEF70CFA0646474B1B6A13F0020F08D084
:10270C00FEF704FA801B41F288339842F3D9032078
:10271C0077E0E5B9E369002B72D03E4A526802F0CB
:10272C000C02082A56D0022B17D03B4B00221A66FB
:10273C00FEF7ECF90446374B1B6813F0007F47D0CB
:10274C00FEF7E4F9001B0228F5D9032059E0314AC1
:10275C00D36923F08053D361DCE72F4B00221A6638
:10276C00FEF7D4F905462B4B1B6813F0007F06D0FF
:10277C00FEF7CCF9401B0228F5D9032041E0236A6F
:10278C00B3F5803F1AD023494B6823F47413226AA3
:10279C00606A024313434B601F4B01221A66FEF71B
:1027AC00B5F904461B4B1B6813F0007F0ED1FEF7E6
:1027BC00ADF9001B0228F5D9032022E0154A536815
:1027CC0023F40033A1680B435360DCE7002018E0CE
:1027DC00002016E0012B16D00E4B5B6803F4803101
:1027EC00226A914211D103F47013626A93420ED1A2
:1027FC00002006E001207047012002E0012000E0EB
:10280C00002002B070BD0120FBE70120F9E7012098
:10281C00F7E700BF001002400000424286B0174BA1
:10282C000FCB0DF1180C0CE90F0040F20123ADF8A1
:10283C000430134B5B6803F00C02082A02D01148D9
:10284C0006B07047C3F3834218326A4412F8100C76
:10285C0013F4803F0DD00A4B5B68C3F3404318332D
:10286C006B4413F8143C074A02FB00F0B0FBF3F086
:10287C00E6E7054B03FB00F0E2E700BFD857000882
:10288C000010024000127A0000093D00002800F000
:10289C00A08070B50D460446524B1B6803F007032D
:1028AC008B420BD24F4A136823F007030B43136080
:1028BC00136803F007038B4240F08D80236813F0FC
:1028CC00020F17D013F0040F04D0474A536843F497
:1028DC00E0635360236813F0080F04D0424A536836
:1028EC0043F460535360404A536823F0F003A168EB
:1028FC000B435360236813F0010F31D06368012B35
:10290C0020D0022B25D0384A126812F0020F64D066
:10291C0035494A6822F0030213434B60FEF7F6F880
:10292C000646314B5B6803F00C036268B3EB820F15
:10293C0016D0FEF7EBF8801B41F288339842F0D9A1
:10294C00032045E0284A126812F4003FE0D1012030
:10295C003EE0254A126812F0007FD9D1012037E001
:10296C00204B1B6803F00703AB420AD91D4A1368BE
:10297C0023F007032B431360136803F00703AB42E8
:10298C002DD1236813F0040F06D0174A536823F493
:10299C00E063E1680B435360236813F0080F07D022
:1029AC00114A536823F46053216943EAC10353600D
:1029BC00FFF734FF0C4B5B68C3F303130B4AD35C78
:1029CC00D8400B4B18600B4B1868FEF75BF80020D7
:1029DC0070BD012070470120FAE70120F8E70120C3
:1029EC00F6E700BF0020024000100240C05700086C
:1029FC000000002008000020014B1868704700BF41
:102A0C000000002008B5FFF7F7FF044B5B68C3F329
:102A1C000223034AD35CD84008BD00BF001002401B
:102A2C00D057000808B5FFF7E7FF044B5B68C3F30A
:102A3C00C223034AD35CD84008BD00BF001002403B
:102A4C00D057000870B582B00446036813F0010F2C
:102A5C0036D03F4BDB6913F0805F49D13C4BDA69D0
:102A6C0042F08052DA61DB6903F080530193019BE1
:102A7C000125384B1B6813F4807F3BD0344B1B6A09
:102A8C0013F4407313D0626802F440729A420ED071
:102A9C002F4A136A23F440702F490126C1F8406471
:102AAC000026C1F84064106213F0010F36D1284A99
:102ABC00136A23F4407361680B431362002D3ED1FB
:102ACC00236813F0020F06D0214A536823F44043C5
:102ADC00A1680B435360236813F0100F34D01C4AC9
:102AEC00536823F48003E1680B43536000202CE00F
:102AFC000025BEE7174A136843F480731360FEF792
:102B0C0005F80646134B1B6813F4807FB6D1FDF70E
:102B1C00FDFF801B6428F5D9032016E0FDF7F6FFB6
:102B2C0006460B4B1B6A13F0020FC0D1FDF7EEFFEC
:102B3C00801B41F288339842F3D9032005E0D36916
:102B4C0023F08053D361BBE7002002B070BD00BFFF
:102B5C00001002400070004000004242002856D095
:102B6C0010B50446436A33B94368B3F5827F05D088
:102B7C000023C36102E00023036143610023A362CD
:102B8C0094F85130002B3CD0022384F85130226849
:102B9C00136823F040031360636803F48273A26824
:102BAC0002F404421343E26802F400621343226904
:102BBC0002F002021343626902F001021343A2699C
:102BCC0002F400721343E26902F038021343226AE2
:102BDC0002F080021343A26A02F4005221681343EC
:102BEC000B60638B226803F0040353602268D36983
:102BFC0023F40063D36100206065012384F8513015
:102C0C0010BD84F850302046FDF7BEFCBCE7012017
:102C1C007047000070B4036A23F001030362036A77
:102C2C004668826922F073020C6844EA020523F0BC
:102C3C0002028B6813430D4CA04209D00B4CA042EE
:102C4C000DD0466085614A684263036270BC704770
:102C5C0023F00803CA68134323F00403EEE726F4B9
:102C6C0040764A6932438E691643EAE7002C0140EC
:102C7C0030B4036A23F480730362036A4568C26943
:102C8C0022F073020C68224323F400738C6843EA2D
:102C9C0004230F4CA04209D00D4CA0420ED045602D
:102CAC00C2614A68C263036230BC704723F400639C
:102CBC00CC6843EA042323F48063EDE725F4405504
:102CCC004C6945EA04158C6945EA0415E7E700BF31
:102CDC00002C014030B4036A23F480530362036A6E
:102CEC004468C26922F4E6420D6842EA052223F4E4
:102CFC0000538D6843EA0533074DA84206D0446063
:102D0C00C2614A680264036230BC704724F4804498
:102D1C004D6944EA8514F2E7002C014010B4036AB3
:102D2C00046A24F001040462846924F0F00C4CEA77
:102D3C00021223F00A030B438261036210BC70473A
:102D4C0010B4046A24F0100404628469036A24F445
:102D5C00704C4CEA023223F0A00343EA0113826167
:102D6C00036210BC7047836823F070030B4343F07D
:102D7C00070383607047704703681B4A90420AD070
:102D8C00B0F1804F07D0A2F59432904203D002F5F7
:102D9C008062904203D123F070034A681343124AB5
:102DAC0090420AD0B0F1804F07D0A2F594329042F5
:102DBC0003D002F58062904203D123F44073CA68B9
:102DCC00134323F080034A69134303608B68C36287
:102DDC000B688362044B984202D001234361704715
:102DEC000B690363F9E700BF002C014040B310B539
:102DFC00044690F83D30F3B1022384F83D3021466F
:102E0C0051F8040BFFF7B8FF012384F8463084F81F
:102E1C003E3084F83F3084F8403084F8413084F8F8
:102E2C00423084F8433084F8443084F8453084F8D8
:102E3C003D30002010BD80F83C30FDF7D3FCDBE7C3
:102E4C000120704740B310B5044690F83D30F3B103
:102E5C00022384F83D30214651F8040BFFF78CFF18
:102E6C00012384F8463084F83E3084F83F3084F8EF
:102E7C00403084F8413084F8423084F8433084F890
:102E8C00443084F8453084F83D30002010BD80F883
:102E9C003C30FFF770FFDBE70120704730B4036A6A
:102EAC0023F010030362036A4468826922F4E64249
:102EBC000D6842EA052223F020038D6843EA0513CE
:102ECC000E4DA84209D00D4DA8420ED0446082612F
:102EDC004A688263036230BC704723F08003CD687C
:102EEC0043EA051323F04003EDE724F440644D69F5
:102EFC0044EA85048D6944EA8504E7E7002C014027
:102F0C0038B590F83C30012B60D004460D460123B7
:102F1C0080F83C300C2A1AD8DFE802F0071919198E
:102F2C001D1919193119191944000068FFF772FE9F
:102F3C002268936943F0080393612268936923F034
:102F4C00040393612268936929690B439361002000
:102F5C0084F83C0038BD0068FFF7A0FF2268936935
:102F6C0043F4006393612268936923F48063936153
:102F7C0022689369296943EA01239361E7E70068B2
:102F8C00FFF776FE2268D36943F00803D361226809
:102F9C00D36923F00403D3612268D36929690B43F5
:102FAC00D361D4E70068FFF795FE2268D36943F438
:102FBC000063D3612268D36923F48063D3612268F0
:102FCC00D369296943EA0123D361C0E70220C1E731
:102FDC0010B4846824F47F4C42EA03220A4342EA88
:102FEC000C02826010BC704790F83C30012B66D00C
:102FFC0010B50446012380F83C30022380F83D30A4
:10300C000268936823F47F4323F0770393600B6883
:10301C00602B40D022D8402B47D00BD9502B0ED14F
:10302C00CA6849680068FFF779FE50212068FFF7ED
:10303C009AFE04E0202B0CD008D9302B09D00123A8
:10304C0084F83D30002084F83C0010BD0BB1102BEF
:10305C00F5D119462068FFF786FEF0E7702B0ED0ED
:10306C00B3F5005FEBD1CB684A6889680068FFF75D
:10307C00AFFF2268936843F480439360DFE7CB682B
:10308C004A6889680068FFF7A3FF2268936843F0D9
:10309C0077039360D3E7CA6849680068FFF750FE6E
:1030AC0060212068FFF75FFEC9E7CA6849680068BD
:1030BC00FFF734FE40212068FFF755FEBFE70220E2
:1030CC00704701F01F01012303FA01FC036A23EA94
:1030DC000C030362036A02FA01F10B4303627047AB
:1030EC0010B50446084651BB94F83E30DBB2013BA8
:1030FC0018BF0123002B5BD1002839D1022384F89F
:10310C003E30012201462068FFF7DBFF23682A4A84
:10311C0093423DD02368284A93423ED0B3F1804F6E
:10312C003BD0A2F59432934237D002F580629342A1
:10313C0033D01A6842F001021A60002039E00429E9
:10314C0008D008290DD094F84130DBB2013B18BFF0
:10315C000123CFE794F83F30DBB2013B18BF0123CA
:10316C00C8E794F84030DBB2013B18BF0123C1E73C
:10317C00042805D0082807D0022384F84130C0E782
:10318C00022384F83F30BCE7022384F84030B8E7D0
:10319C005A6C42F400425A64BCE79A6802F0070287
:1031AC00062A07D01A6842F001021A60002000E0DB
:1031BC00012010BD0020FCE7002C014038B504466E
:1031CC000D4600220068FFF77CFF23681B4A9342E0
:1031DC0014D02368196A41F21112114208D1196AEC
:1031EC0040F24442114203D11A6822F001021A60E3
:1031FC009DB9012384F83E30002038BD196A41F294
:10320C0011121142E5D1196A40F244421142E0D147
:10321C005A6C22F400425A64DBE7042D05D0082DC9
:10322C0007D0012384F84130E6E7012384F83F30CE
:10323C00E2E7012384F84030DEE700BF002C0140B8
:10324C0090F83C30012B2CD010B4012380F83C308A
:10325C00022380F83D3003685A689C6822F0700C99
:10326C000A6842EA0C025A6003680F4A93420AD079
:10327C00B3F1804F07D0A2F59432934203D002F5FC
:10328C008062934204D124F080044A6814439C6009
:10329C00012380F83D30002380F83C30184610BCE8
:1032AC0070470220704700BF002C014010B5044647
:1032BC000268136923F44053C1680B43136183689C
:1032CC000269134342691A430168CB6823F4B05373
:1032DC0023F00C031343CB600268536923F440734F
:1032EC0081690B4353610268134B9A4220D0FFF75C
:1032FC0089FB024602EB820202EB820263689B00AE
:10330C00B2FBF3F20D48A0FB02314909642303FB25
:10331C0011231B013233A0FB03235B0903F0F002E2
:10332C0002EB011203F00F03216813448B6010BDF4
:10333C00FFF778FB0246DDE7003801401F85EB51B3
:10334C0058B310B5044690F83D300BB3242384F8E1
:10335C003D302268D36823F40053D3602046FFF736
:10336C00A5FF2268136923F4904313612268536903
:10337C0023F02A0353612268D36843F40053D360CB
:10338C0000202064202384F83D3084F83E3010BDAA
:10339C0080F83C30FDF714FBD8E70120704784B06F
:1033AC0001A880E80E00002004B0704703460020FE
:1033BC00A3F844004FF43F42A3F840207047B0F804
:1033CC00403023F47C535B045B0CA0F840300020AD
:1033DC0070470020704784B0844601A880E80E0036
:1033EC000123ACF840300020ACF84000ACF84400AD
:1033FC00ACF8500004B0704710B5034691F800C00B
:10340C0030F82C2092B222F4EC4222F0700292B2EC
:10341C00C878032861D8DFE800F0555C025800201A
:10342C0048F2800E42EA0E0223F82C2091F800C0DC
:10343C0033F82C2092B222F4E04222F070024CEAD3
:10344C00020242EA0E0223F82C200A7B002A40F0EA
:10345C00C4804A78002A51D0B3F8502092B21A4452
:10346C000C7802EB0412B1F806C04FEA5C0C4FEA80
:10347C004C0CA2F800C40C7833F8242012F0400F46
:10348C000CD033F8242092B222F4E04222F07002E5
:10349C0042F4004242F0C00223F82420CA78012AE8
:1034AC001DD0097833F8212092B222F4E04222F0A8
:1034BC00400282F0200242F4004242F0800223F8E3
:1034CC0021206AE042F40072AAE742F4C0620020B4
:1034DC00A6E742F480620020A2E70120A0E7097869
:1034EC0033F8212092B222F4E04222F0400242F45E
:1034FC00004242F0800223F821204EE0B3F8502025
:10350C0092B21A440C7802EB0412B1F806C04FEADE
:10351C005C0C4FEA4C0CA2F808C4B3F8502092B2E1
:10352C001A440C7802EB04120C69BCBBB2F80CC444
:10353C001FFA8CFC2CF4F84C1FFA8CFCA2F80CC46F
:10354C00B2F80CC46FEA4C4C6FEA5C4C1FFA8CFC62
:10355C00A2F80CC40C7833F8242012F4804F0CD051
:10356C0033F8242092B222F4E04222F0700242F4AA
:10357C00404242F0800223F82420097833F82120BD
:10358C0092B222F4804222F0700282F4405242F451
:10359C00004242F0800223F8212010BD3E2C0DD8B1
:1035AC004FEA540C14F0010F01D00CF1010C4FEA4E
:1035BC008C2C1FFA8CFCA2F80CC4CBE74FEA541CE1
:1035CC0014F01F0F01D10CF1FF3C6FEACC646FEAD1
:1035DC005444A4B2A2F80C44BCE791F800C033F8F0
:1035EC002C2092B222F4E04222F0700242F401420A
:1035FC0042F0800223F82C20B3F8502092B21A44E7
:10360C0091F800C002EB0C12B1F808C04FEA5C0C48
:10361C004FEA4C0CA2F800C4B3F8502092B21A44F2
:10362C0091F800C002EB0C12B1F80AC04FEA5C0C26
:10363C004FEA4C0CA2F808C44A78002A41D10C7805
:10364C0033F8242012F4804F0CD033F8242092B29B
:10365C0022F4E04222F0700242F4404242F0800236
:10366C0023F824200C7833F8242012F0400F0CD0CF
:10367C0033F8242092B222F4E04222F0700242F499
:10368C00004242F0C00223F8242091F800C033F825
:10369C002C2092B222F4804222F0700282F440522A
:1036AC0048F28004224323F82C20097833F8212097
:1036BC0092B222F4E04222F04002224323F821206D
:1036CC006BE70C7833F8242012F4804F0CD033F8CD
:1036DC00242092B222F4E04222F0700242F44042E2
:1036EC0042F0800223F824200C7833F8242012F0C6
:1036FC00400F0CD033F8242092B222F4E04222F096
:10370C00700242F4004242F0C00223F82420CA782E
:10371C00012A1ED00C7833F8242092B222F4E04215
:10372C0022F0400282F0200242F4004242F0800279
:10373C0023F82420097833F8212092B222F4804215
:10374C0022F0700242F4004242F0800223F8212061
:10375C0023E70C7833F8242092B222F4E04222F0D2
:10376C00400242F4004242F0800223F82420E1E7B8
:10377C000B7B002B46D14B7813B30A7830F82230F0
:10378C0013F0400F0CD030F822309BB223F4E043FE
:10379C0023F0700343F4004343F0C00320F82230BD
:1037AC000A7830F822309BB223F4E04323F0400334
:1037BC0043F4004343F0800320F82230002070478C
:1037CC000A7830F8223013F4804F0CD030F82230C5
:1037DC009BB223F4E04323F0700343F4404343F0E3
:1037EC00800320F822300A7830F822309BB223F480
:1037FC00804323F0700343F4004343F0800320F82C
:10380C002230DBE74B78002B4ED10A7830F822308F
:10381C0013F4804F0CD030F822309BB223F4E043E9
:10382C0023F0700343F4404343F0800320F822302C
:10383C000A7830F8223013F0400F0CD030F82230D8
:10384C009BB223F4E04323F0700343F4004343F0B2
:10385C00C00320F822300A7830F822309BB223F4CF
:10386C00E04323F0700343F4004343F0C00320F81B
:10387C0022300B7830F8232092B222F4804222F0CE
:10388C00700248F2800C42EA0C0220F823200A78DD
:10389C0030F822309BB223F4E04323F0400343EA98
:1038AC000C0320F8223089E70A7830F8223013F420
:1038BC00804F0CD030F822309BB223F4E04323F03D
:1038CC00700343F4404343F0800320F822300A781D
:1038DC0030F8223013F0400F0CD030F822309BB26D
:1038EC0023F4E04323F0700343F4004343F0C0039C
:1038FC0020F822300A7830F822309BB223F4E043CF
:10390C0023F0700343F4404343F0800320F822304B
:10391C000B7830F8232092B222F4E04222F04002DD
:10392C0048F2800C42EA0C0220F823200A7830F886
:10393C0022309BB223F4804323F0700343EA0C0340
:10394C0020F822303AE74B788BB10A7830F82230E5
:10395C009BB223F4E04323F0400383F0100343F4C1
:10396C00004343F0800320F82230002070470A788F
:10397C0030F822309BB223F4804323F0700383F49D
:10398C00805343F4004343F0800320F82230ECE7EB
:10399C000B7B002B4BD14B7833B30A7830F82230A9
:1039AC0013F0400F0CD030F822309BB223F4E043DC
:1039BC0023F0700343F4004343F0C00320F822309B
:1039CC00CB78012B33D00A7830F822309BB223F419
:1039DC00E04323F0400383F0200343F4004343F01F
:1039EC00800320F8223022E00A7830F8223013F4D9
:1039FC00804F0CD030F822309BB223F4E04323F0FC
:103A0C00700343F4404343F0800320F822300A78DB
:103A1C0030F822309BB223F4804323F0700383F4FC
:103A2C00405343F4004343F0800320F8223000203D
:103A3C00704711B98023A0F84C300020704700204B
:103A4C00704700207047B0F8440080B270470020E7
:103A5C00704710B45C1C640800EB420202F58062F3
:103A6C0007E00B78487843EA002322F8043B023144
:103A7C00013C002CF5D110BC704770B505460C46C6
:103A8C004B78012B37D00A7B002A40F026838B69B8
:103A9C000A69934240F204839B1A8B61B5F850304B
:103AAC009BB22B44217803EB0113002A40F0FC82DB
:103ABC00B3F80C2492B222F4F84292B2A3F80C247C
:103ACC00B3F80C246FEA42426FEA524292B2A3F866
:103ADC000C24227835F822309BB223F4804323F057
:103AEC00700383F4405343F4004343F0800325F800
:103AFC002230002070BD8E690A69964200D91646A4
:103B0C00237B002B39D0E378022B58D0227835F860
:103B1C0022309BB223F4E04323F0700343F40143BF
:103B2C0043F0800325F82230236A9B1B2362237801
:103B3C0035F8232012F0400F00F026826278002A1C
:103B4C0040F0CA81B5F8502092B22A4402EB03131C
:103B5C00002E40F0A881B3F80C2492B222F4F84263
:103B6C0092B2A3F80C24B3F80C246FEA42426FEA29
:103B7C00524292B2A3F80C24B0E1B6B23346E288BA
:103B8C0061692846FFF765FFB5F850309BB22B44AE
:103B9C00227803EB0213A3F80464227835F8223060
:103BAC009BB223F4E04323F0400383F0300343F44F
:103BBC00004343F0800325F8223000209AE7236A63
:103BCC009A4280F05281227835F822309BB223F44D
:103BDC00E04323F0700343F4014343F0800325F8E2
:103BEC002230236A9B1B2362237835F8232012F0A2
:103BFC00400F00F09D8062788ABBB5F8502092B2DD
:103C0C002A4402EB03138EB9B3F80C2492B222F4BB
:103C1C00F84292B2A3F80C24B3F80C246FEA424297
:103C2C006FEA524292B2A3F80C241AE03E2E09D845
:103C3C00720816F0010F00D00132920292B2A3F872
:103C4C000C240EE0720916F01F0F00D1013A6FEA36
:103C5C00C2626FEA524292B2A3F80C2401E0012A2C
:103C6C002BD0B3B2628961692846FFF7F2FE636913
:103C7C0033446361236A2269934228D99B1B2362D4
:103C8C006378002B40D1B5F850309BB22B4422788E
:103C9C0003EB0213FEB9B3F8042492B222F4F842F7
:103CAC0092B2A3F80424B3F804246FEA42426FEAF8
:103CBC00524292B2A3F8042428E0B5F8502092B2F4
:103CCC002A4402EB0313B2B2A3F80C24C9E7002276
:103CDC0022621E46D4E73E2E09D8720816F0010F58
:103CEC0000D00132920292B2A3F804240EE07209C1
:103CFC0016F01F0F00D1013A6FEAC2626FEA52420E
:103D0C0092B2A3F8042401E0012B06D0B3B22289AD
:103D1C0061692846FFF79DFE3FE7B5F850309BB22E
:103D2C002B44227803EB0213B2B2A3F80424EDE780
:103D3C0062788ABBB5F8502092B22A4402EB031386
:103D4C008EB9B3F8042492B222F4F84292B2A3F8DA
:103D5C000424B3F804246FEA42426FEA524292B24E
:103D6C00A3F804241AE03E2E09D8720816F0010FAD
:103D7C0000D00132920292B2A3F804240EE0720930
:103D8C0016F01F0F00D1013A6FEAC2626FEA52427D
:103D9C0092B2A3F8042401E0012A2BD0B3B22289F9
:103DAC0061692846FFF755FE636933446361236AF2
:103DBC002269934228D99B1B23626378002B40D144
:103DCC00B5F850309BB22B44227803EB0213FEB9AA
:103DDC00B3F80C2492B222F4F84292B2A3F80C2459
:103DEC00B3F80C246FEA42426FEA524292B2A3F843
:103DFC000C2428E0B5F8502092B22A4402EB0313AD
:103E0C00B2B2A3F80424C9E7002222621E46D4E70A
:103E1C003E2E09D8720816F0010F00D00132920222
:103E2C0092B2A3F80C240EE0720916F01F0F00D109
:103E3C00013A6FEAC2626FEA524292B2A3F80C24C2
:103E4C0001E0012B06D0B3B2628961692846FFF705
:103E5C0000FEA2E6B5F850309BB22B44227803EB5F
:103E6C000213B2B2A3F80C24EDE7217835F8212027
:103E7C0092B222F4E24222F0700242F4004242F08A
:103E8C00800225F82120B5F8502092B22A442178DE
:103E9C0002EB01129BB2A2F8043422896169284614
:103EAC00FFF7D7FD79E63E2E09D8720816F0010F00
:103EBC0000D00132920292B2A3F80C240EE07209E7
:103ECC0016F01F0F00D1013A6FEAC2626FEA52423C
:103EDC0092B2A3F80C2401E0012A26D0B3B2628975
:103EEC0061692846FFF7B5FD636933446361236A52
:103EFC002269934223D99B1B2362002E3FF44DAEC3
:103F0C0063786BBBB5F850309BB22B44227803EB33
:103F1C0002133E2E17D8720816F0010F00D0013292
:103F2C00920292B2A3F804241CE0B5F8502092B28D
:103F3C002A4402EB0313B2B2A3F80C24CEE70022FE
:103F4C0022621E46D9E7720916F01F0F00D1013A02
:103F5C006FEAC2626FEA524292B2A3F8042401E003
:103F6C00012B06D0B3B2228961692846FFF771FD97
:103F7C0013E6B5F850309BB22B44227803EB0213B6
:103F8C00B2B2A3F80424EDE762788ABBB5F85020EE
:103F9C0092B22A4402EB03138EB9B3F8042492B202
:103FAC0022F4F84292B2A3F80424B3F804246FEA82
:103FBC0042426FEA524292B2A3F804241AE03E2E17
:103FCC0009D8720816F0010F00D00132920292B299
:103FDC00A3F804240EE0720916F01F0F00D1013A69
:103FEC006FEAC2626FEA524292B2A3F8042401E073
:103FFC00012A26D0B3B2228961692846FFF729FD30
:10400C00636933446361236A2269934223D99B1BFE
:10401C002362002E3FF4C1AD63786BBBB5F8503012
:10402C009BB22B44227803EB02133E2E17D8720856
:10403C0016F0010F00D00132920292B2A3F80C24B8
:10404C001CE0B5F8502092B22A4402EB0313B2B232
:10405C00A3F80424CEE7002222621E46D9E7720997
:10406C0016F01F0F00D1013A6FEAC2626FEA52429A
:10407C0092B2A3F80C2401E0012B06D0B3B26289F2
:10408C0061692846FFF7E5FC87E5B5F850309BB22F
:10409C002B44227803EB0213B2B2A3F80C24EDE705
:1040AC0000228A611A46F9E43E2A09D8510812F016
:1040BC00010F00D00131890289B2A3F80C1408E574
:1040CC00510912F01F0F00D101396FEAC1616FEA7B
:1040DC00514189B2A3F80C14FBE4CA78022A45D0EA
:1040EC00012A40F0208189692269914240F2D480F2
:1040FC00891AA161D3B9B5F850309BB22B44217801
:10410C0003EB0113002A40F0CB80B3F8041489B2FE
:10411C0021F4F84189B2A3F80414B3F804146FEA3B
:10412C0041416FEA514189B2A3F804146378002B22
:10413C0040F0EA80B5F850309BB22B44217803EB69
:10414C000113002A40F0C580B3F80C2492B222F47B
:10415C00F84292B2A3F80C24B3F80C246FEA424252
:10416C006FEA524292B2A3F80C24B2E4CBB9B0F885
:10417C0050309BB203440A7803EB02130A6972BBFA
:10418C00B3F8042492B222F4F84292B2A3F80424B5
:10419C00B3F804246FEA42426FEA524292B2A3F897
:1041AC0004246378002B4CD1B5F850309BB22B44CF
:1041BC00227803EB0213226952BBB3F80C2492B29F
:1041CC0022F4F84292B2A3F80C24B3F80C246FEA50
:1041DC0042426FEA524292B2A3F80C2433E03E2AD8
:1041EC0009D8510812F0010F00D001318A0292B2A5
:1041FC00A3F80424D5E7510912F01F0F00D101399F
:10420C006FEAC1626FEA524292B2A3F80424C8E783
:10421C003E2A09D8510812F0010F00D001318A0250
:10422C0092B2A3F80C240EE0510912F01F0F00D12A
:10423C0001396FEAC1626FEA524292B2A3F80C24C0
:10424C0001E0012B1DD0E369002B3FF442AC227836
:10425C0035F8221044F2400303EA01008B4302D0EC
:10426C0000287FF436AC35F822309BB223F4E043BF
:10427C0023F0700343F4004343F0C00325F82230CD
:10428C0027E4B5F850309BB22B44227803EB021391
:10429C00228AA3F80C24D6E70022A2610A4629E759
:1042AC003E2A09D8510812F0010F00D001318902C1
:1042BC0089B2A3F8041439E7510912F01F0F00D189
:1042CC0001396FEAC1616FEA514189B2A3F8041454
:1042DC002CE73E2A0AD8510812F0010F00D0013108
:1042EC008A0292B2A3F80C24FFF7F3BB510912F027
:1042FC001F0F00D101396FEAC1626FEA524292B2CC
:10430C00A3F80C24FFF7E5BB012B7FF4E2ABB5F867
:10431C0050309BB22B44217803EB011392B2A3F8DB
:10432C000C24FFF7D6BB0120FFF7E4BB10B45C08EC
:10433C0000EB420000F5806007E030F8042B0A70B7
:10434C00C2F307224A700231013C002CF5D113F064
:10435C00010F01D003880B7010BC704708B51C4BC3
:10436C001B7813B1012B18D008BD40211948FCF75C
:10437C008FFF70B9184A13680133136042F20F7241
:10438C009342F1D9144B00221A60114B01221A707E
:10439C00EAE7114B00221A60E6E740210D48FCF7D2
:1043AC0077FF0128E0D10D490B780133DBB20B709C
:1043BC000B4AA2FB030202F0FE0000EB52029B1A16
:1043CC000B70034B00221A70064B01221A70CBE7BC
:1043DC0027080020000801402008002028080020A1
:1043EC00ABAAAAAA24080020154B1B783BB310B526
:1043FC00144B1B7813B1012B0FD010BD124C0C2198
:10440C002046FEF76DFE0120FCF786FB2368142284
:10441C001A640C4B01221A70EFE70C4A1368013333
:10442C001360B3F5FA5FE8D3002414600C2106483E
:10443C00FEF7C4FE034B1C70014B1C70DDE770478C
:10444C002408002026080020F80600201C08002064
:10445C0038B5714B1B78012B52D0022B00F0948095
:10446C0003B138BD6D4B1B784BB3012BF9D16C4AA2
:10447C001368013313604CF24F329342F1D900248C
:10448C00674B1C60674D0C212846FEF729FE2B68F4
:10449C0064221A64644D224620212846FCF7FFFE54
:1044AC0022464FF480712846FCF7F9FE22464FF461
:1044BC0000712846FCF7F3FE584B1C70D1E7584AA4
:1044CC001368013313604CF24F329342C9D9544BE9
:1044DC0000221A60544C012220212046FCF7DFFEFA
:1044EC0001224FF480712046FCF7D9FE01224FF4D3
:1044FC0000712046FCF7D3FE484B01221A70B0E73E
:10450C00464B1B7803B3012BABD1454A13680133DF
:10451C001360464A9342A4D90024414B1C60424D7F
:10452C00224620212846FCF7BAFE22464FF4807121
:10453C002846FCF7B4FE22464FF400712846FCF7DF
:10454C00AEFE364B1C708CE7354A13680133136092
:10455C00364A934285D9324B00221A60324C0122E2
:10456C0020212046FCF79BFE01224FF4807120464F
:10457C00FCF795FE01224FF400712046FCF78FFEEC
:10458C00264B01221A706CE7244B1B7813B3012BBA
:10459C007FF467AF224A136801331360244A9342B5
:1045AC007FF65FAF00241E4B1C601F4D224620215E
:1045BC002846FCF774FE22464FF480712846FCF71F
:1045CC006EFE22464FF400712846FCF768FE134B32
:1045DC001C7046E7124A136801331360144A934265
:1045EC007FF63FAF0E4B00221A600F4C01222021A8
:1045FC002046FCF754FE01224FF480712046FCF754
:10460C004EFE01224FF400712046FCF748FE034B8E
:10461C0001221A7025E700BF280800202508002079
:10462C0018080020F8060020000C0140EF49020099
:10463C00CFDD06002923038000487047440000208A
:10464C002923038000487047700000202923038031
:10465C0000487047B4000020D0F8B832002018751C
:10466C00704710B5D0F8B8422369012B01D0002057
:10467C0010BDD0F8BC32DB686178207898470023F5
:10468C002361F4E70A23038000487047A800002048
:10469C0038B50446D0F8B852D0F8BC32DB6869782B
:1046AC002878984702232A460121204600F082FFF1
:1046BC00002038BD70B582B0D0F8B8520023ADF8E8
:1046CC0006300C7814F060042ED0202C7CD14B7862
:1046DC00023B092B24D8DFE803F0140923232323FE
:1046EC00231B0F058B786B60002470E00122291DC1
:1046FC0000F050FD00246AE04B881B0AAB600024DC
:10470C0065E0012205F1080100F044FD00245EE0A3
:10471C0001232B61CA88294600F051FD002456E084
:10472C0000F02BFA022452E04E780B2E48D8DFE82A
:10473C0006F0064747474747154747472E3C90F832
:10474C009C32032B03D000F018FA02243FE0022223
:10475C000DF1060100F01EFD344638E04B881B0AB3
:10476C00222B06D0212B0CD000210A4600F012FD82
:10477C002DE0CA88022A28BF0222D0F8BC32196860
:10478C00F4E7CA88092A28BF09221249EEE790F8F3
:10479C009C32032B03D000F0F0F9022417E0012225
:1047AC0005F10C0100F0F6FC11E090F89C32032BA3
:1047BC0002D18B78EB600AE000F0DFF9022406E00E
:1047CC0000F0DBF9022402E000F0D7F902242046C5
:1047DC0002B070BD9C00002038B50446812100F069
:1047EC00AAFE0025E5620121204600F0A4FEC4F8D3
:1047FC006C51D4F8B8324BB1D4F8BC329B689847A2
:10480C00D4F8B80200F0E2FEC4F8B852002038BD6B
:10481C0070B5044602230322812100F081FE01259C
:10482C00E562022303222946204600F079FEC4F8F3
:10483C006C51182000F0C6FEC4F8B80270B10546E1
:10484C0000260675D4F8BC325B68984702232A46CA
:10485C000121204600F0AEFE304670BD0120FCE781
:10486C0019B1C0F8BC12002070470220704798B1F3
:10487C0008B50346D0F8B40210B10020C3F8B40256
:10488C0009B1C3F8B012012183F89C121A701846B2
:10489C0000F004FE002008BD0220704719B1C0F8DA
:1048AC00B412002070470220704708B500F030FEAB
:1048BC00002008BD08B5D0F8B4322BB11B6898475E
:1048CC0000B908BD0220FCE70220FAE708B5D0F8D1
:1048DC00B4325B689847002008BD38B5044600F533
:1048EC002A75284600F035F90123C4F89432B4F83F
:1048FC00AE32C4F8983294F8A81201F01F03012BC1
:10490C000ED0022B11D02BB101F08001204600F00B
:10491C001AFE03E02946204600F0CAFA002038BDF2
:10492C002946204600F0F8FAF8E72946204600F020
:10493C0023FBF3E738B504460D4691BB1346D0F87C
:10494C009422032A03D0052A24D0084633E0D0F859
:10495C006011D0F8642191420DD9891AC0F8601108
:10496C008A4206D98AB21946204600F037FC2846FE
:10497C0021E092B2F7E7D0F8B4321B691BB190F882
:10498C009C22032A04D0204600F030FC284612E07A
:10499C009847F8E70021C0F8941200F0D4FD28469F
:1049AC0009E0D0F8B4329B6933B190F89C22032A09
:1049BC0004D19847002038BD0220FCE70220FAE71A
:1049CC0038B504460D46002953D11346D0F894222D
:1049DC00022A0CD0042A00D01AB98021204600F0FB
:1049EC00B2FD94F8A032012B3ED0284638BD016AA6
:1049FC00426A91421BD8C169B1FBF2F302FB13135B
:104A0C002BB98A4203D8D0F8983299421CD3D4F8E7
:104A1C00B432DB681BB194F89C22032A21D080218C
:104A2C00204600F090FD204600F0EBFBD9E78A1AF7
:104A3C00026292B2194600F0BAFB00231A461946DC
:104A4C00204600F0B7FDCCE70022114600F0AFFB8A
:104A5C000021C4F898120B460A46204600F0AAFD25
:104A6C00BFE720469847DAE7002384F8A0322846AF
:104A7C00BCE7D0F8B4325B6933B190F89C22032ABE
:104A8C0004D198470020B1E70220AFE70220ADE740
:104A9C0070B5044640230022114600F041FD01256B
:104AAC00C4F858514026C4F8646133460022802172
:104ABC00204600F035FDA561666284F89C52002307
:104ACC00C4F894326360C4F8A432D4F8B8322BB171
:104ADC00D4F8B4325B68002120469847002070BDA2
:104AEC0001740020704790F89C3280F89D320423AA
:104AFC0080F89C320020704790F89C32042B01D037
:104B0C000020704790F89D3280F89C32F8E708B589
:104B1C0090F89C32032B01D0002008BDD0F8B432A1
:104B2C00DB69002BF8D09847F6E70346002002E03B
:104B3C000130C0B201331A78002AF9D1704708B598
:104B4C004B88012B00D008BDC0F8A43200F04EFBFE
:104B5C00F9E70B7803704B7843708B78CA7803EBCA
:104B6C00022343800B794A7903EB022383808B79F0
:104B7C00CA7903EB0223C380704710B50446802129
:104B8C0000F0E1FC0021204600F0DDFC10BD30B54A
:104B9C0083B005460C460023ADF806304A88130A4C
:104BAC00013B062B00F2A480DFE803F004182CA2D2
:104BBC00A2869300D0F8B0321B680DF10601007C80
:104BCC009847BDF806201AB1E388002B40F094807A
:104BDC00E388002B00F09A8003B030BD037C43B90E
:104BEC00D0F8B4329B6A0DF106009847022343704B
:104BFC00E7E7D0F8B432DB6A0DF1060098470223E0
:104C0C004370DEE7D2B2052A52D8DFE802F0031077
:104C1C001D2A3744D0F8B0325B6823B10DF1060180
:104C2C00007C9847CDE72146FFF7A7FFD4E7D0F8E3
:104C3C00B0329B6823B10DF10601007C9847C0E7A8
:104C4C002146FFF79AFFC7E7D0F8B032DB6823B1F3
:104C5C000DF10601007C9847B3E72146FFF78DFF65
:104C6C00BAE7D0F8B0321B6923B10DF10601007C14
:104C7C009847A6E72146FFF780FFADE7D0F8B032A2
:104C8C005B6923B10DF10601007C984799E7214639
:104C9C00FFF773FFA0E7D0F8B0329B6923B10DF199
:104CAC000601007C98478CE72146FFF766FF93E7E7
:104CBC002146FFF762FF8FE7037C33B9D0F8B4329B
:104CCC005B6B0DF1060098477BE72146FFF755FF1C
:104CDC0082E7037C43B9D0F8B4321B6B0DF10600AC
:104CEC009847072343706CE72146FFF746FF73E7AD
:104CFC002146FFF742FF6FE79A4228BF1A46ADF8EC
:104D0C0006200146284600F045FA61E7284600F0E7
:104D1C006DFA61E738B504468B88F3B9CB88E3B9F3
:104D2C004B887F2B19D803F07F0590F89C32032B0E
:104D3C000CD080F89E52294600F02CFC204600F046
:104D4C0055FA35B1022384F89C3209E0FFF715FFC0
:104D5C0006E0012384F89C3202E02046FFF70DFFA9
:104D6C0038BD000038B504460D468978284B1970BB
:104D7C0001290ED890F89C32022B0ED0032B21D097
:104D8C002946FFF7FAFE224B19782046FFF79EFDC5
:104D9C0002E02946FFF7F1FE38BD81B141600323E3
:104DAC0080F89C32FFF786FD022803D0204600F0E5
:104DBC001DFAF1E729462046FFF7DFFEECE700F08D
:104DCC0015FAE9E789B1436899421DD0D9B2FFF7CA
:104DDC007DFD0F4B197861602046FFF76BFD0228B3
:104DEC000DD0204600F002FAD6E7022380F89C3260
:104DFC004160FFF76BFD204600F0F8F9CCE729463F
:104E0C002046FFF7BAFEC7E700F0F0F9C4E700BF91
:104E1C002908002008B5CB88012B0AD190F89C32C8
:104E2C00022B09D9032B09D10122011D00F0B2F983
:104E3C0001E0FFF7A2FE08BD5BB213B9FFF79DFEC0
:104E4C00F9E70146002341F8083F012200F0A2F9DE
:104E5C00F1E708B590F89C32013B022B12D8CB88B5
:104E6C00022B0CD10123C360D0F8A4320BB1032365
:104E7C00C360022200F10C0100F08CF908BDFFF7B1
:104E8C007CFEFBE7FFF779FEF8E708B590F89C325B
:104E9C00013B022B09D84B88012B00D008BD002305
:104EAC00C0F8A43200F0A2F9F8E7FFF766FEF5E7C8
:104EBC0008B50B7803F06003202B05D0402B03D0F2
:104ECC0043B1FFF75AFE03E0D0F8B4329B68984721
:104EDC00002008BD4B78092B1BD8DFE803F0111715
:104EEC001A141A08051A0E0BFFF751FEF0E7FFF71C
:104EFC0011FFEDE7FFF736FFEAE7FFF78BFFE7E778
:104F0C00FFF7A7FFE4E7FFF71AFEE1E7FFF7BDFFA6
:104F1C00DEE7FFF732FEDBE738B505460C460B78CB
:104F2C0003F06003202B06D0402B04D01BB1FFF7FD
:104F3C0024FE002038BD95F89C32013B022B16D87C
:104F4C002379012B0ED8D5F8B4329B68214628461C
:104F5C009847E388002BECD10028EAD1284600F0D2
:104F6C0045F9E6E721462846FFF707FEE1E721462B
:104F7C002846FFF702FEDCE770B505468B880C78F7
:104F8C0004F06004202C07D0DAB2402C04D05CB1C1
:104F9C00FFF7F3FD002405E0D5F8B4329B682846F2
:104FAC0098470024204670BD202C09D04E78012E45
:104FBC0033D0032E0AD0002E55D0FFF7DEFDF1E7DB
:104FCC00D0F8B4329B6898470446EBE790F89C32D3
:104FDC00022B04D0032B11D0FFF7CFFDE2E70AB16F
:104FEC00802A03D12846FFF7C8FDDBE7114600F005
:104FFC00AAFA8021284600F0A6FAD3E74B8823B9F9
:10500C001AB1802A01D0CB881BB1284600F0EEF8EB
:10501C00C8E7114600F097FAF7E790F89C32022B9C
:10502C0004D0032B11D0FFF7A8FDBBE70AB1802AEF
:10503C0003D12846FFF7A1FDB4E7114600F083FA2F
:10504C008021284600F07FFAACE74B88002BA9D1D1
:10505C0012F07F0F03D1284600F0C8F8A2E71146E2
:10506C0000F079FAF7E790F89C02022806D00328A2
:10507C0029D02846FFF781FD344693E70AB1802AF0
:10508C0013D113F0800F15D102F07F0202EB8202D4
:10509C00910001F5A8712944043100230B60022210
:1050AC00284600F077F834467CE72846FFF765FD84
:1050BC00344677E702F07F0202EB82029100103156
:1050CC0029440431E9E75BB2002B1FDB02F00F002F
:1050DC0000EB800005EB8000D0F8580120B3002BCA
:1050EC0027DB02F07F0303EB83039C0004F5A87419
:1050FC002C4404340AB1802A24D1002323600222D8
:10510C002146284600F046F834464BE702F00F00E3
:10511C0000EB800005EB800080690028DFD1284679
:10512C00FFF72BFD34463DE72846FFF726FD3446B6
:10513C0038E702F07F0303EB83039C0010342C440C
:10514C000434D7E71146284600F00DFA10B10123BC
:10515C002360D4E700232360D1E7D0B170B50D46AE
:10516C0016460446FFF7E1FC431C5B009BB2338000
:10517C002B7003236B70022307E001345A1CD2B24C
:10518C00E8540233DBB20021A95420780028F4D172
:10519C0070BD704708B513460222C0F89422C36153
:1051AC0003620A46002100F0FDF9002008BD08B595
:1051BC0013460A46002100F0F5F9002008BD08B599
:1051CC0013460322C0F89422C0F85C31C0F8603159
:1051DC000A46002100F0EEF9002008BD08B5134680
:1051EC000A46002100F0E6F9002008BD08B50423AA
:1051FC00C0F8943200231A46194600F0D3F9002067
:10520C0008BD08B50523C0F8943200231A46194688
:10521C0000F0D0F9002008BD08B500220F49104855
:10522C00FFF725FB70B90F490D48FFF737FB60B945
:10523C000D490B48FFF714FB50B90948FFF735FB34
:10524C0048B908BDFBF718F9EDE7FBF715F9EFE7DF
:10525C00FBF712F9F1E7FBF70FF9F2E7F400002086
:10526C002C0800200C000020E400002000207047D7
:10527C00002070470020704712230B8000487047B5
:10528C001001002004230B800048704724010020EB
:10529C00002393421ED200B510E00CF1370C01F83C
:1052AC0013C000014FEA430C0CF1010C4FF0000E3F
:1052BC0001F80CE00133DBB2934209D24FEA107CC7
:1052CC00B0F1204FE9D20CF1300C01F813C0E8E733
:1052DC005DF804FB7047000038B50B4BD3F8E807BA
:1052EC00D3F8EC47D3F8F037C01800D138BD074DD0
:1052FC000822A91CFFF7CCFF042205F1120120465D
:10530C00FFF7C6FFF2E700BF00F0FF1F28010020E7
:10531C0008B51A230B80FFF7DFFF014808BD00BF5B
:10532C002801002008B50A4628B905490548FFF7A9
:10533C0014FF034808BD02490248FFF70EFFF8E7C7
:10534C00F00A0020EC57000810B50A46034C214621
:10535C000348FFF702FF204610BD00BFF00A0020F3
:10536C000C58000808B50A4628B905490548FFF746
:10537C00F4FE034808BD02490248FFF7EEFEF8E7C9
:10538C00F00A00202058000808B50A4628B905493B
:10539C000548FFF7E2FE034808BD02490248FFF743
:1053AC00DCFEF8E7F00A002034580008022805D883
:1053BC00DFE800F00504020001207047022070476E
:1053CC0002680E4B9A4200D0704700B583B003F5CB
:1053DC00DA33DA6942F40002DA61DB6903F40003C0
:1053EC000193019B002211461420FBF70DFD1420A4
:1053FC00FBF742FD03B05DF804FB00BF005C00400E
:10540C0008B500F52C71D0F8E802FFF766FA08BD74
:10541C0008B501EB810300EBC303D3F87C21D0F872
:10542C00E802FFF787FA08BD08B501EB810300EB32
:10543C00C303DA6BD0F8E802FFF7C2FA08BD08B56F
:10544C00D0F8E802FFF763FB08BD10B5044683688B
:10545C00022B09D10121D4F8E802FFF741FBD4F863
:10546C00E802FFF715FB10BDFBF706F8F2E70000AA
:10547C0010B50446D0F8E802FFF735FBA36923B159
:10548C00024A136943F00603136110BD00ED00E0FE
:10549C0008B5D0F8E802FFF72FFB08BD10B504469D
:1054AC001948C0F8E842C4F8C002184B036008233E
:1054BC0043600223836000238361C3610362FCF7B2
:1054CC006FF8E8B9182300221146D4F8C002FCF793
:1054DC006BFF582300228021D4F8C002FCF764FF34
:1054EC00982300228121D4F8C002FCF75DFFD82359
:1054FC0000220121D4F8C002FCF756FF002010BD99
:10550C00FAF7BAFFDEE700BFF00C0020005C0040A9
:10551C0008B5D0F8C002FCF7CFF8FFF747FF08BD7D
:10552C0008B594461A466346D0F8C002FCF707FE4D
:10553C00FFF73CFF08BD08B5D0F8C002FCF741FEF0
:10554C00FFF734FF08BD08B5D0F8C002FCF7B5FE74
:10555C00FFF72CFF08BD08B5D0F8C002FCF7E9FE38
:10556C00FFF724FF08BDD0F8C03211F0800F08D12E
:10557C0001F07F0101EB810103EBC10191F86A019C
:10558C00704701F07F01013101EB810103EBC10197
:10559C008878704708B5D0F8C002FCF7D2FCFFF74A
:1055AC0005FF08BD08B5D0F8C002FCF75EFEFFF79A
:1055BC00FDFE08BD08B5D0F8C002FCF734FEFFF7BD
:1055CC00F5FE08BD00487047DC0F0020704770479F
:1055DC0070B50D4E0D4D761BB61006D0002455F847
:1055EC00043B01349847A642F9D1094E094D00F00D
:1055FC00D5F8761BB61006D0002455F8043B0134C0
:10560C009847A642F9D170BD505800085058000870
:10561C005858000850580008830730B548D0541E1D
:10562C00002A3FD00346CAB201E0013C3AD303F84A
:10563C00012B9D07F9D1032C2DD9CDB245EA0525B7
:10564C000F2C45EA054536D9A4F1100222F00F0CB7
:10565C0003F1200EE6444FEA121C03F1100242E95A
:10566C00045542E9025510327245F8D10CF1010291
:10567C0014F00C0F03EB021204F00F0C13D0ACF16E
:10568C00040323F003030433134442F8045B9342F2
:10569C00FBD10CF003042CB1CAB21C4403F8012B4F
:1056AC009C42FBD130BD64461346002CF4D1F9E783
:1056BC0003461446BFE71A46A446E0E7024B13B173
:1056CC00024800F005B8704700000000E9560008D9
:1056DC00002301461A46184600F01AB838B5084B94
:1056EC00084D5B1B9C1007D0043B1D44013C55F836
:1056FC0004399847002CF9D1BDE8384000F054B873
:10570C005C58000858580008704700BF704700BF2D
:10571C002DE9F047DFF87CA00646DAF80000984641
:10572C000F469146FFF7F0FF1B4B1B68D3F848411F
:10573C0024B365681F2D26DC5EB96B1C0235DAF8C4
:10574C000000636044F82570FFF7E0FF0020BDE81F
:10575C00F087012304EB8501C1F88890D4F88821E7
:10576C00AB401A43022EC4F88821C1F80881E4D159
:10577C00D4F88C211343C4F88C31DEE703F5A674FE
:10578C00C3F84841D5E7DAF80000FFF7BFFF4FF048
:10579C00FF30DCE7700500204C580008F8B500BF5E
:1057AC00F8BC08BC9E467047F8B500BFF8BC08BCF6
:0457BC009E4670474E
:1057C00000000000000000000102030406070809B1
:1057D0000000000001020304020304050607080993
:1057E0000A0B0C0D0E0F10100000000053544D3327
:1057F0003220437573746F6D2048756D616E20693A
:105800006E746572666163650000000053544D69F3
:1058100063726F656C656374726F6E6963730000A9
:10582000437573746F6D2048494420436F6E6669F9
:1058300067000000437573746F6D20484944204928
:105840006E746572666163650000000048010020A7
:08585000C956000831010008EF
:045858000D01000836
:10585C000024F40001000000100000001D480008A6
:10586C00E5470008C1460008000000006F4600082C
:10587C00654600089D46000800000000000000007E
:10588C00000000004D46000841460008594600083B
:10589C009146000809022900010100C032090400E8
:1058AC00000203000000092111010001220200077F
:1058BC000581030200050705010302000500000035
:1058CC0009022900010100C0320904000002030092
:1058DC0000000921110100012202000705810302C9
:1058EC000005070501030200050000000921110154
:1058FC0000012202000000000A0600020000004025
:10590C000100000009022900010100C03209040055
:10591C00000203000000092111010001220200070E
:10592C0005810302000507050103020005000000C4
:10593C0000C00000E0000020795200087D520008F1
:10594C0081520008855200089152000855530008F6
:10595C00315300081D53000871530008955300087B
:10596C0012010002000000408304505700020102A3
:10597C0003010000040309041A03000000000000E6
:10598C00000000000000000000000000000000000B
:10599C0000000000000000000000000034040020A3
:1059AC009C04002004050020000000000000000002
:1059BC0000000000000000000000000000000000DB
:1059CC0000000000000000000000000000000000CB
:1059DC0000000000000000000000000000000000BB
:1059EC0000000000000000000000000000000000AB
:1059FC00000000000000000000000000000000009B
:105A0C00000000000000000000000000000000008A
:105A1C00000000000000000000000000000000007A
:105A2C00000000000000000000000000000000006A
:105A3C00000000000000000000000000000000005A
:105A4C0001000000000000000E33CDAB34126DE6F7
:105A5C00ECDE05000B000000000000000000000060
:105A6C00000000000000000000000000000000002A
:105A7C00000000000000000000000000000000001A
:105A8C00000000000000000000000000000000000A
:105A9C0000000000000000000000000000000000FA
:045DCC00F80F0020AC
:0400000508000A45A0
:00000001FF
