:020000040800F2
:10000000005000200D0D0008A5070008A7070008F4
:10001000A9070008AB070008AD07000800000000B2
:10002000000000000000000000000000AF07000812
:10003000B107000800000000B3070008B50700087A
:10004000550D0008550D0008550D0008550D000808
:10005000550D0008550D0008BD070008C70700082A
:10006000550D0008550D0008550D0008D107000872
:10007000E1070008550D0008F10700080108000815
:10008000550D0008550D0008550D0008550D0008C8
:1000900011080008550D0008550D0008550D000801
:1000A000550D0008550D0008550D0008550D0008A8
:1000B000550D0008550D0008550D0008550D000898
:1000C000550D0008550D0008550D0008550D000888
:1000D000550D0008550D0008550D0008550D000878
:1000E000550D0008550D0008550D000800000000D2
:1000F0000000000000000000000000000000000000
:0C01000000000000000000005FF808F1A3
:10010C0010B5054C237833B9044B13B10448AFF345
:10011C0000800123237010BD740A00200000000031
:10012C00D05D000808B5034B1BB103490348AFF37E
:10013C00008008BD00000000780A0020D05D000897
:10014C0000B585B000230193029303931848194A14
:10015C0002604FF4807282600122027303754FF4C7
:10016C006022C26143600223036100F01BFFA8B947
:10017C0009230193012302930523039301A90C483E
:10018C0000F042FE68B902230193029301A90848CA
:10019C0000F03AFE40B905B05DF804FB00F0A6F99A
:1001AC00E6E700F0A3F9EEE700F0A0F9F3E700BFF3
:1001BC00900A00200024014030B589B0002304933C
:1001CC000593069307930268274B9A4201D009B016
:1001DC0030BD044603F56C439A6942F400729A618F
:1001EC009A6902F400720192019A9A6942F004022F
:1001FC009A619A6902F004020292029A9A6942F098
:10020C0008029A619B6903F008030393039B042380
:10021C0004930325059504A9144801F0DBF8022387
:10022C000493059504A9124801F0D4F81148124B17
:10023C0003600023436083608023C3604FF48073AA
:10024C0003614FF480634361202383614FF40053B7
:10025C00C36100F0ADFF18B9064B23625C62B6E7D0
:10026C0000F044F9F8E700BF002401400008014009
:10027C00000C0140C00A00200800024000B583B009
:10028C00164B5A6942F001025A615B6903F0010393
:10029C000193019B002211460B2000F019FF0B204B
:1002AC0000F04EFF002211460C2000F011FF0C2034
:1002BC0000F046FF002211460E2000F009FF0E2030
:1002CC0000F03EFF002211460F2000F001FF0F202E
:1002DC0000F036FF03B05DF804FB00BF00100240D5
:1002EC002DE9F04389B000240494059406940794F6
:1002FC00514B9A6942F010029A619A6902F010020D
:10030C000092009A9A6942F020029A619A6902F06E
:10031C0020020192019A9A6942F004029A619A6948
:10032C0002F004020292029A9A6942F008029A615F
:10033C009B6903F008030393039B404F22464FF441
:10034C008561384601F058F901224FF4C051384606
:10035C0001F052F93A4D22464FF48071284601F0D3
:10036C004BF901224FF40041284601F045F94FF4B6
:10037C00604304934FF00308CDF8148004A931486E
:10038C0001F028F8CDF810802F4B05930126069626
:10039C0004A9284601F01EF810230493CDF814800C
:1003AC000DEB0301284601F015F8E02304930594A6
:1003BC00069604A9284601F00DF804230493CDF801
:1003CC00148004A9384601F005F84FF481630493B6
:1003DC00059606944FF00209CDF81C9004A93846F6
:1003EC0000F0F8FF4FF4C153049305960694CDF832
:1003FC001C8004A9384600F0EDFF4FF40143049330
:10040C0005960694CDF81C9004A9284600F0E2FF4E
:10041C0022462146062000F05BFE062000F090FEEE
:10042C0022462146072000F053FE072000F088FEEC
:10043C0009B0BDE8F08300BF00100240000C014081
:10044C0000080140001001400000111008B50B48D5
:10045C000B4B03600B4B436000238360C3604FF472
:10046C008042026143618361C361036201F0D8F889
:10047C0000B908BD00F03AF8FBE700BF040B002000
:10048C0000540040801A060010B586B00023029379
:10049C000393049305930268114B9A4201D006B062
:1004AC0010BD104CA36943F00803A361A36903F0CA
:1004BC0008030093009BC02302931223039303238E
:1004CC00059302A9084800F085FFE36943F4001383
:1004DC00E361E36903F400130193019BDFE700BFC1
:1004EC000054004000100240000C014072B6FEE7C0
:1004FC0000B595B0282200210DEB020005F0A0FB01
:10050C000023059306930793089309930193029391
:10051C000393049301220A924FF480330B930E92AF
:10052C000222119212934FF4E01313930AA802F0D3
:10053C0019F9D8B90F2305930221069100230793CB
:10054C004FF480620892099305A802F04BFB78B92E
:10055C00122301934FF4004303930023049301A847
:10056C0002F01CFC30B915B05DF804FBFFF7BEFFC0
:10057C00FFF7BCFFFFF7BAFF30B583B000F00CFCFF
:10058C00FFF7B6FFFFF7ACFEFFF778FEFFF7D8FDDD
:10059C00FFF75CFF00F04EF800F046FA00F09AFA14
:1005AC0000F058FB05F04CF900F0F4FA00F034F9C7
:1005BC001C4C0421204603F07DF81B4D0C212846D1
:1005CC0003F078F80021204603F074F823684FF408
:1005DC007A749C632A6814645C6304F0C9FA002082
:1005EC0004F0D4F9002004F0E1F9012301930F4B3E
:1005FC000093502380220021084604F063FA04F093
:10060C00FDF9204600F0ECFB04F01EFA084C012228
:10061C002021204600F0F0FF00222021204600F08F
:10062C00EBFFF3E70C0D0020540D00200000002020
:10063C00000C014008B50D480D4B03604FF482735C
:10064C00436000238360C360036143614FF4007215
:10065C008261C3610362436283620A23C36202F054
:10066C00A5FC00B908BDFFF741FFFBE7E00B00203C
:10067C000038004070B586B00023029303930493B6
:10068C00059302682D4B9A4201D006B070BD04460A
:10069C0003F5EC33DA6942F48042DA61DA6902F488
:1006AC0080420092009A9A6942F008029A619B6912
:1006BC0003F008030193019B4FF4204302930223A0
:1006CC000393032305931E4E02A9304600F082FECD
:1006DC004FF48043029300250395049502A93046FC
:1006EC0000F078FE1748184B0360102343608560B8
:1006FC008023C360056145618561C56100F058FDCB
:10070C00A8B9104BA3645C621048114B0360002322
:10071C00436083608022C260036143618361C36173
:10072C0000F046FD30B9094BE3645C62ADE7FFF7BE
:10073C00DDFEE6E7FFF7DAFEF5E700BF0038004024
:10074C00000C01409C0B002058000240580B00206C
:10075C004400024082B00E4B9A6942F001029A6149
:10076C009A6902F001020092009ADA6942F0805212
:10077C00DA61DB6903F080530193019B054A5368EE
:10078C0023F0E06343F00073536002B0704700BF86
:10079C000010024000000140FEE7FEE7FEE7FEE726
:1007AC00FEE770477047704708B500F007FB08BDBF
:1007BC0008B5012000F026FF08BD08B5022000F0A6
:1007CC0021FF08BD08B5024800F062FD08BD00BF5E
:1007DC00C00A002008B5024800F05AFD08BD00BF51
:1007EC00380C002008B5024800F052FD08BD00BFCF
:1007FC00580B002008B5024800F04AFD08BD00BFA8
:10080C009C0B002008B5024801F05BFD08BD00BF41
:10081C00B01800207047000000B587B00023029389
:10082C00039304930593009301931548154A0260B2
:10083C00436083604FF6FF72C26003614361836162
:10084C0002F0BEFD90B94FF48053029302A90C48FC
:10085C0002F0B4FE68B9002300930193694608487E
:10086C0002F096FF40B907B05DF804FBFFF73EFEBF
:10087C00E9E7FFF73BFEEEE7FFF738FEF3E700BFD3
:10088C007C0C0020002C014010B584B003682C4A6D
:10089C00934214D00446B3F1804F1CD0294A9342A2
:1008AC0025D0294A934214D1284BDA6942F004022C
:1008BC00DA61DB6903F004030393039B09E0234B28
:1008CC009A6942F400629A619B6903F40063009395
:1008DC00009B04B010BD03F50433DA6942F0010249
:1008EC00DA61DB6903F001030193019BF1E7174B1C
:1008FC00DA6942F00202DA61DB6903F00203029367
:10090C00029B1348134B0360102343600023836046
:10091C008023C3604FF4807303614FF480634361A1
:10092C00202383614FF40053C36100F041FC18B9DC
:10093C00074BE3625C62CCE7FFF7D8FDF8E700BF3A
:10094C00002C014000040040000800400010024050
:10095C00380C00201C00024000B589B00023049321
:10096C000593069307930368B3F1804F08D0284A88
:10097C0093421AD0274A934234D009B05DF804FB55
:10098C0003F504339A6942F004029A619B6903F0FF
:10099C0004030193019B08230493022305930793FB
:1009AC0004A91D4800F016FDE7E71C4B9A6942F0BC
:1009BC0008029A619B6903F008030293029B1123BE
:1009CC00049302230593079304A9154800F002FD34
:1009DC00144A536823F4406343F0E06343F4006328
:1009EC005360CAE70D4B9A6942F008029A619B6901
:1009FC0003F008030393039B4FF440730493022307
:100A0C000593079304A9064800F0E4FCB5E700BF82
:100A1C0000040040000800400008014000100240A3
:100A2C00000C01400000014000B58FB000230A9378
:100A3C000B930C930D9308930993019302930393D7
:100A4C00049305930693079321484FF0804202606C
:100A5C0047224260836040F2E732C26003618361E7
:100A6C0002F0AEFC28BB4FF480530A930AA9184835
:100A7C0002F0A4FD00BB164802F0CEFCF8B900232E
:100A8C000893099308A9124802F082FED0B960239A
:100A9C00019300230293039305930C2201A90C48A4
:100AAC0002F018FD88B90A48FFF756FF0FB05DF841
:100ABC0004FBFFF71BFDD6E7FFF718FDDBE7FFF79D
:100ACC0015FDDCE7FFF712FDE1E7FFF70FFDEAE7A5
:100ADC00C40C002000B58FB000230A930B930C9329
:100AEC000D93089309930193029303930493059335
:100AFC00069307932548264A02604722426083608A
:100B0C004FF47A72C2600361836102F059FC50BBEE
:100B1C004FF480530A930AA91C4802F04FFD28BBDE
:100B2C001A4802F079FC20BB00230893099308A90A
:100B3C00164802F02DFEF8B96023019300220292B0
:100B4C000392059201A9114802F0C4FCB8B908221D
:100B5C0001A90E4802F0BEFCA0B90C48FFF7FCFE40
:100B6C000FB05DF804FBFFF7C1FCD1E7FFF7BEFC4B
:100B7C00D6E7FFF7BBFCD7E7FFF7B8FCDCE7FFF7DE
:100B8C00B5FCE4E7FFF7B2FCE7E700BF0C0D002073
:100B9C000004004000B58FB000230A930B930C9314
:100BAC000D93089309930193029303930493059374
:100BBC00069307932548264A0260472242608360C9
:100BCC0040F2E732C2600361836102F0F9FB58BB6B
:100BDC004FF480530A930AA91C4802F0EFFC30BB77
:100BEC001A4802F019FC28BB00230893099308A9A2
:100BFC00164802F0CDFD00BB602301930023029345
:100C0C0003930593082201A9104802F063FCB8B9BC
:100C1C000C2201A90D4802F05DFCA0B90B48FFF7AE
:100C2C009BFE0FB05DF804FBFFF760FCD0E7FFF70D
:100C3C005DFCD5E7FFF75AFCD6E7FFF757FCDBE77F
:100C4C00FFF754FCE4E7FFF751FCE7E7540D0020F5
:100C5C000008004008B50A480A4B03604FF4E13322
:100C6C00436000238360C36003610C224261836193
:100C7C00C36102F00DFE00B908BDFFF737FCFBE7BE
:100C8C009C0D00200038014010B586B00023029363
:100C9C000393049305930268174B9A4201D006B054
:100CAC0010BD03F558439A6942F480429A619A69DF
:100CBC0002F480420092009A9A6942F004029A610E
:100CCC009B6903F004030193019B4FF4007302939F
:100CDC000223039303230593084C02A9204600F03A
:100CEC0079FB4FF48063029300230393049302A9CE
:100CFC00204600F06FFBD2E70038014000080140AD
:100D0C000C480D490D4A002302E0D458C45004335A
:100D1C00C4188C42F9D30A4A0A4C002301E0136030
:100D2C000432A242FBD3FFF775FD04F065FFFFF719
:100D3C0023FC704700000020740A0020845E000829
:100D4C00740A0020BC1B0020FEE7000010B504460E
:100D5C000E4B18784FF47A73B3FBF0F30C4A10680F
:100D6C00B0FBF3F000F0FAF968B90F2C01D90120AF
:100D7C000AE0002221464FF0FF3000F0A9F9054BA4
:100D8C001C60002000E0012010BD00BF0405002005
:100D9C00000500200805002008B5074A136843F039
:100DAC0010031360032000F081F90F20FFF7CEFF32
:100DBC00FFF7D0FC002008BD00200240034A116858
:100DCC00034B1B780B441360704700BFE00D0020F1
:100DDC0004050020014B1868704700BFE00D00208F
:100DEC0038B50446FFF7F6FF0546B4F1FF3F02D0D5
:100DFC00044B1B781C44FFF7EDFF401BA042FAD3B9
:100E0C0038BD00BF0405002030B482B0002201922E
:100E1C0090F82420012A00F091800346012280F8EA
:100E2C0024204A68062A2DD80468606B02EB8202E3
:100E3C00053A4FF01F0C0CFA02FC20EA0C000D686E
:100E4C0005FA02F2024362630A68092A3AD91C685D
:100E5C00E06802EB42021E3A4FF0070C0CFA02FC5F
:100E6C0020EA0C008D6805FA02F20243E2600A687F
:100E7C00103A012A36D90020002283F8242002B02F
:100E8C0030BC70470C2A0ED80568286B02EB820226
:100E9C00233A1F24944020EA04000C6804FA02F25E
:100EAC0002432A63D0E70568E86A02EB8202413A02
:100EBC001F24944020EA04000C6804FA02F2024356
:100ECC00EA62C1E71C68206902EB42024FF0070C92
:100EDC000CFA02FC20EA0C008D6805FA02F20243BF
:100EEC002261C4E71A681648824205D09A6A42F019
:100EFC0020029A620120BFE7906810F4000F1BD10A
:100F0C00906840F4000090600A68102A01D000201C
:100F1C00B2E70C4A12680C49A1FB0212920C02EBCC
:100F2C0082025200019202E0019A013A0192019A66
:100F3C00002AF9D100209FE700209DE702209EE7C0
:100F4C00002401400005002083DE1B4338B50368F4
:100F5C009A6812F0010F01D1002038BD04469A683E
:100F6C0022F001029A60FFF735FF054623689B6863
:100F7C0013F0010F13D0FFF72DFF431B022BF5D9F4
:100F8C0023689B6813F0010FF0D0A36A43F01003A1
:100F9C00A362E36A43F00103E3620120DDE7002072
:100FAC00DBE7000000287BD070B50446836A002B79
:100FBC004DD02046FFF7CAFFA36A13F0100369D186
:100FCC00002867D1A26A22F4885222F0020242F071
:100FDC000202A2626268E1690A43217B42EA410291
:100FEC00A568B5F5807F02D0012D36D01D46267D33
:100FFC00012E35D02668716821F46941294371604E
:10100C002568AE68274931401143A960A168B1F544
:10101C00807F01D0012902D12369013B1B05256882
:10102C00E96A21F470010B43EB62236899681E4B4B
:10103C000B409A4225D0A36A23F0120343F010030D
:10104C00A362E36A43F00103E362012027E0C36279
:10105C0080F82430FFF7B0F8ABE74FF48075C6E7A3
:10106C0031B9A169013945EA413141F40065C1E763
:10107C00A16A41F02001A162E16A41F00101E16243
:10108C00B8E70023E362A36A23F0030343F00103F0
:10109C00A36204E0A36A43F01003A362012070BDB5
:1010AC0001207047FDF7E1FFFE0E1FFF074AD368D2
:1010BC0023F4E0631B041B0C000200F4E060034308
:1010CC0043F0BF6343F40033D360704700ED00E09E
:1010DC0000B5194BDB68C3F30223C3F1070CBCF159
:1010EC00040F28BF4FF0040C03F1040EBEF1060FE1
:1010FC0018D9033B4FF0FF3E0EFA0CFC21EA0C0111
:10110C0099400EFA03F322EA0303194300280BDB80
:10111C000901C9B200F1604000F5614080F800138C
:10112C005DF804FB0023E5E700F00F000901C9B2EC
:10113C00024B1954F4E700BF00ED00E014ED00E0A1
:10114C00002807DB00F01F02400901239340024AEC
:10115C0042F82030704700BF00E100E00138B0F1E8
:10116C00807F0BD24FF0E0235861054AF02182F8C2
:10117C0023100020986107221A61704701207047E4
:10118C0000ED00E030B40124056CAC40C56B6C6024
:10119C00046863604368102B05D00368996003688A
:1011AC00DA6030BC704703689A600368D960F8E76E
:1011BC0060B310B402460168154B0B441548A0FBF4
:1011CC0003031B099B001364134BD363022382F8A4
:1011DC002130086820F47F5020F030005368946868
:1011EC002343D468234314692343546923439469E8
:1011FC002343D469234303430B60002090630123F2
:10120C0082F8213082F8200010BC70470120704712
:10121C00F8FFFDBFCDCCCCCC0000024038B5044665
:10122C0090F82000012831D0012084F8200094F897
:10123C002100012804D0002384F82030022038BD7E
:10124C00022084F821000020A0632568286820F083
:10125C00010028602046FFF795FFE36A5BB1226826
:10126C00136843F00E0313602268136843F0010304
:10127C0013600020E3E72268136823F00403136073
:10128C002268136843F00A031360EDE70220D6E7E7
:10129C0038B5C36B1A6804682568016C04238B404D
:1012AC00134235D015F0040F32D0236813F0200F01
:1012BC0003D1236823F0040323600368434A934259
:1012CC0014D01432934218D01432934217D01432E3
:1012DC00934217D01432934217D01432934202D057
:1012EC004FF0806203E04FF4800200E00422384BA0
:1012FC005A60C36A03B1984738BD4022F7E74FF4F0
:10130C008062F4E74FF48042F1E74FF48022EEE77D
:10131C0002238B4013423CD015F0020F39D02368C6
:10132C0013F0200F06D1236823F00A032360012356
:10133C0080F821300368254A934214D0143293422A
:10134C001CD0143293421BD0143293421BD0143253
:10135C0093421BD01432934202D04FF0007203E040
:10136C004FF4001200E00222194B5A60002380F85F
:10137C002030836A002BBFD09847BDE72022F3E7CB
:10138C004FF40072F0E74FF40052EDE74FF40032E7
:10139C00EAE7082303FA01F11142ADD015F0080F6A
:1013AC00AAD0236823F00E032360026CC16B0123C7
:1013BC0003FA02F24A60836380F82130002380F83C
:1013CC002030036B002B97D0984795E7080002401C
:1013DC000000024070B582B00024A446A6E0804D07
:1013EC00AA4210D007D97F4DAA420CD005F5803502
:1013FC00AA4208D013E0A5F58015AA4203D005F542
:10140C007025AA4207D18A68002A58D0012A51D0E7
:10141C004361082403E0A5F58015AA42F3D0BEF180
:10142C00FF0F4ED80646BEF1FF0F4CD84FEA8C0288
:10143C0033680F25954023EA050304FA02F213439F
:10144C0033604B6813F0805F6ED0674B9A6942F043
:10145C0001029A619B6903F001030193019B4FEA1E
:10146C009C02951C614B53F825600CF003039D0006
:10147C000F23AB4026EA03065D4B984229D003F5B7
:10148C008063984200F08E8003F58063984200F0F0
:10149C008B8003F58063984219D004231AE0CC6842
:1014AC00BDE7CC680434BAE7CC680834B7E7CC683D
:1014BC000C34B4E703610824B1E70024AFE704243B
:1014CC00ADE7061DAFE7ACF108029200B0E70323CD
:1014DC0000E00023AB4033430232444D45F8223048
:1014EC004B6813F4803F61D0424A136843EA0E0301
:1014FC0013604B6813F4003F5ED03E4A536843EAD6
:10150C000E0353604B6813F4801F5BD0394A936809
:10151C0043EA0E0393604B6813F4001F58D0354A0E
:10152C00D36843EA0E03D3600CF1010C0A6832FA5B
:10153C000CF353D0012303FA0CF302EA030E33EA43
:10154C000202F1D14A68122A3FF649AF122A3FF63D
:10155C0066AF01A555F822F013140008AB1400086F
:10156C00B5140008C71400082B1400082B1400082D
:10157C002B1400082B1400082B1400082B14000843
:10158C002B1400082B1400082B1400082B14000833
:10159C002B1400082B1400082B140008AF1400089F
:1015AC00BB140008012395E7022393E7114A136843
:1015BC0023EA0E0313609CE70E4A536823EA0E03DA
:1015CC0053609FE70B4A936823EA0E039360A2E7EC
:1015DC00084AD36823EA0E03D360A5E702B070BDB6
:1015EC0000002210000031100010024000000140E9
:1015FC0000080140000401400AB101617047090470
:10160C000161704708B5054B5B69034200D108BD09
:10161C00024B586103F07AF9F9E700BF000401406E
:10162C00002800F0CC8070B5044690F83D30002BBB
:10163C0077D0242384F83D302268136823F001030B
:10164C0013602268136843F4004313602268136824
:10165C0023F40043136001F081FB62685A4B9A42F9
:10166C0064D85A4B98428CBF00230123002B40F0C6
:10167C00A8805749A1FB00318B0C25686A6822F0C1
:10168C003F0242EA91426A6021680A6A22F03F02F4
:10169C0066684D4DAE424FD8013313430B6221683F
:1016AC00CA6922F44F4222F0FF026668464B9E4202
:1016BC004CD8431E7600B3FBF6F3013340F6FC70B6
:1016CC00034278D0C3F30B031343CB6121680B683F
:1016DC0023F0C003E269206A024313430B602168C4
:1016EC008B6823F4034323F0FF032269E068024371
:1016FC0013438B602168CB6823F0FF036269A069F8
:10170C0002431343CB602268136843F00103136058
:10171C0000202064202384F83D30206384F83E00B0
:10172C0070BD80F83C30FEF7AFFE82E7294B984243
:10173C008CBF0023012399E74FF4967505FB03F347
:10174C00254DA5FB03539B090133A6E7A368BBB941
:10175C00451E06EB460CB5FBFCF50135C5F30B0538
:10176C00B5FA85F56D0945BBC3B9013806EB4603DF
:10177C00B0FBF3F30133C3F30B0343F40043A3E7D0
:10178C00451E06EB860C0CEB8C0CB5FBFCF5013501
:10179C00C5F30B05B5FA85F56D09E4E7013806EBE1
:1017AC00860303EB8303B0FBF3F30133C3F30B03A7
:1017BC0043F4404388E7042386E7012384E70120B0
:1017CC0070470120ACE700BFA08601007F841E009B
:1017DC0083DE1B43FF083D00D34D621038B512F475
:1017EC00804F44D00468B4F850309BB291F800C0DC
:1017FC0003EBCC03023304EB4303B3F80044C4F310
:10180C0009048B69A34228D31B1B8B618B697BB9A1
:10181C00056835F82C309BB223F4804323F0700319
:10182C0083F4005343F4004343F0800325F82C3039
:10183C0012F0400F0ED002680D7832F825309BB2B2
:10184C0023F4E04323F0700343F4004343F0C0035C
:10185C0022F8253024B9204638BD00238B61D5E70A
:10186C0023460A894969006803F008F8F3E704681D
:10187C00B4F850309BB291F800C003EBCC030633A4
:10188C0004EB4303B3F80044C4F309048B69A3428B
:10189C002FD31B1B8B618B697BB9056835F82C30FA
:1018AC009BB223F4804323F0700383F4005343F47E
:1018BC00004343F0800325F82C3012F0400F0FD179
:1018CC00026891F800C032F82C309BB223F4E0434C
:1018DC0023F0700343F4004343F0C00322F82C3090
:1018EC00002CB8D023464A894969006802F0C6FF2B
:1018FC00B1E700238B61CEE770B586B0002800F00D
:10190C008580044690F8A932EBB1032384F8A93200
:10191C00206801F0FCFF254655F8106BEC460FCD06
:10192C00ACE80F002B68CCF80030231D0ECB3046F2
:10193C0001F0DDFF054658B1022384F8A9320125D8
:10194C00284606B070BD80F8A83204F04DF8DCE7EC
:10195C000021206801F0E5FF2B461AE05A1C02EB2F
:10196C00820104EBC1010120487002EB820104F8F2
:10197C00313003EB830104EBC101CB8602EB820C0B
:10198C0004EBCC0C00208CF803008863C86308645B
:10199C00D3B261688B42E1D316E005EB850304EB0F
:1019AC00C303002283F8692183F8685183F86B2103
:1019BC00C3F87821C3F87C2105EB850304EBC30342
:1019CC00C3F880210135EDB2A942E6D8254655F879
:1019DC00106BEC460FCDACE80F002B68CCF8003048
:1019EC00231D0ECB304601F09EFF054620B102238D
:1019FC0084F8A9320125A3E7002384F824300123BD
:101A0C0084F8A932206802F0C4FA99E7012597E717
:101A1C0038B590F8A832012B11D00446012580F876
:101A2C00A852006801F06AFF2946204604F0E3F84A
:101A3C00206802F0ACFA002084F8A80238BD02201D
:101A4C00FCE770B505460C46164612F0400F00F048
:101A5C000D810268B2F850309BB2097803EBC103D8
:101A6C00023302EB4303B3F80024C2F30902A36967
:101A7C00934252D99B1AA361A369002B6AD1637854
:101A8C00002B4DD12B68B3F8502092B2134403EBCA
:101A9C000111B1F804349BB223F4F8439BB2A1F8C2
:101AAC000434B1F804346FEA43436FEA53439BB2F6
:101ABC00A1F804342B686278002A3ED1B3F8502088
:101ACC0092B21344227803EB0213B3F80C2492B2B3
:101ADC0022F4F84292B2A3F80C24B3F80C246FEA67
:101AEC0042426FEA524292B2A3F80C242178284663
:101AFC0003F0AEFF16F4804F41D02A68217832F8FB
:101B0C0021309BB223F4E04323F0700343F44043B1
:101B1C0043F0800322F8213031E00023A361ABE7CE
:101B2C00012BC7D12B68B3F8502092B2134403EBAE
:101B3C0001110023A1F80434BCE7012AD6D1B3F873
:101B4C00502092B21344227803EB02130022A3F824
:101B5C000C24CBE716F4804F0DD0286830F82130D8
:101B6C009BB223F4E04323F0700343F4404343F06F
:101B7C00800320F8213094F82430012B12D02A68ED
:101B8C00217832F821309BB223F4E04323F0400358
:101B9C0083F0300343F4004343F0800322F82130F8
:101BAC00002070BD636913446361E3691344E3610E
:101BBC00216A236999421FD3C91A21626278002ACB
:101BCC003FD12A68B2F8501089B20A44217802EB4E
:101BDC000112EBB9B2F8041489B221F4F84189B2BC
:101BEC00A2F80414B2F804146FEA41416FEA5141AF
:101BFC0089B2A2F8041426E021B9002384F8243019
:101C0C001346DBE7002384F8243023620B46D5E728
:101C1C003E2B09D8590813F0010F00D0013189026D
:101C2C0089B2A2F804140EE0590913F01F0F00D169
:101C3C0001396FEAC1616FEA514189B2A2F804140B
:101C4C0001E0012A06D09BB222896169286802F062
:101C5C00A8F994E72A68B2F8501089B20A4421789E
:101C6C0002EB011299B2A2F80414ECE70268B2F884
:101C7C0050309BB2097803EBC103063302EB4303EC
:101C8C00B3F80024C2F30902A369934253D39B1AFD
:101C9C00A361A369002B6BD16378002B4ED12B6809
:101CAC00B3F8502092B2134403EB0111B1F8043491
:101CBC009BB223F4F8439BB2A1F80434B1F804347A
:101CCC006FEA43436FEA53439BB2A1F804342B6889
:101CDC006278002A3FD1B3F8502092B21344227894
:101CEC0003EB0213B3F80C2492B222F4F84292B232
:101CFC00A3F80C24B3F80C246FEA42426FEA524268
:101D0C0092B2A3F80C242178284603F0A1FE16F415
:101D1C00804F7FF434AF2A68217832F821309BB29F
:101D2C0023F4E04323F0700343F4404343F0800377
:101D3C0022F8213023E70023A361AAE7012BC6D1A7
:101D4C002B68B3F8502092B2134403EB011100231B
:101D5C00A1F80434BBE7012AD5D1B3F8502092B2D4
:101D6C001344227803EB02130022A3F80C24CAE7D5
:101D7C0016F4804F0DD1286830F821309BB223F433
:101D8C00E04323F0700343F4404343F0800320F816
:101D9C00213094F82430012B7FF4F1AE63691344A5
:101DAC006361E3691344E361216A236999421FD398
:101DBC00C91A21622A68617800293ED1B2F8501004
:101DCC0089B20A44217802EB0112EBB9B2F80C1477
:101DDC0089B221F4F84189B2A2F80C14B2F80C14AF
:101DEC006FEA41416FEA514189B2A2F80C1426E026
:101DFC0021B9002384F824301346DBE70023236247
:101E0C0084F824300B46D5E73E2B09D8590813F03B
:101E1C00010F00D00131890289B2A2F80C140EE036
:101E2C00590913F01F0F00D101396FEAC1616FEA34
:101E3C00514189B2A2F80C1401E0012906D09BB2E1
:101E4C0062896169286802F0ACF898E6B2F8501023
:101E5C0089B20A44217802EB011299B2A2F80C144F
:101E6C00EDE72DE9F04105462868B0F8443013F44D
:101E7C00004F00F00F82B0F84440A3B214F00F04EE
:101E8C0040F0D88013F0100F61D003889AB213F48D
:101E9C00006F40F0938012F4004FE5D0038823F0DC
:101EAC0070031B051B0D43F0800303802868B0F8FA
:101EBC0050309BB295F8682103EBC203063300EB5C
:101ECC004303B3F80034C3F30903C5F884318BB171
:101EDC00D5F87C1171B1B5F86E2102F0CFFCD5F8B4
:101EEC008421D5F87C311344C5F87C310021284677
:101EFC0003F0A2FD2B681A8812F4006FB4D1B3F86A
:101F0C00502092B21344D5F87821002A79D1B3F835
:101F1C000C2492B222F4F84292B2A3F80C24B3F837
:101F2C000C246FEA42426FEA524292B2A3F80C249C
:101F3C002A6813889BB223F4804323F0700383F444
:101F4C00405343F4004343F0800313808CE7038831
:101F5C009BB223F4E14323F070036FEA43436FEA2F
:101F6C0053439BB203802A68B2F850309BB295F869
:101F7C00281003EBC103023302EB4303B3F8003424
:101F8C00C3F309036B64EA6B1344EB63002128462B
:101F9C0003F05EFD95F82430002B3FF465AF2B6CFD
:101FAC00002B7FF461AF95F824302A6843F080034E
:101FBC00A2F84C30002385F8243055E7B0F85030A7
:101FCC009BB295F8682103EBC203063300EB430385
:101FDC00B3F80034C3F30903C5F88431B5F86E21A6
:101FEC0005F52C7102F04AFC2A68138823F0700363
:101FFC001B051B0D43F080031380284603F014FDD2
:10200C0032E73E2A09D8510812F0010F00D00131F5
:10201C008A0292B2A3F80C248AE7510912F01F0F1E
:10202C0000D101396FEAC1626FEA524292B2A3F851
:10203C000C247DE730F824309EB213F4004F4FD1BE
:10204C0016F0800F3FF410AF621C02EB820105EB1F
:10205C00C101286830F824309BB223F4E14323F00B
:10206C0070036FEA43436FEA53439BB220F824306A
:10207C00CB78032B07D033B1022B40F0068116F43A
:10208C00807F40F002812868B0F850309BB2621C0F
:10209C0002EB820215F8326003EBC603023300EB4D
:1020AC004303B3F80034C3F3090304EB840205EBD8
:1020BC00C202126C9A4240F2D48004EB840705EB06
:1020CC00C707D21A3A6404EB840205EBC202126C05
:1020DC00002A40F0CD803146284603F0B9FCC3E617
:1020EC0030F8243023F070031B051B0D43F08003E4
:1020FC0020F8243004EB8401C90001F5B47105EB20
:10210C00010804EB840305EBC30393F87431002B33
:10211C0042D12868B0F850309BB204EB840205EB36
:10212C00C20292F8682103EBC203063300EB4303AF
:10213C00B3F80074C7F3090717BB04EB840305EB72
:10214C00C303D3F884213A44C3F88421D3F87C2107
:10215C003A44C3F87C21D3F880313BB104EB8403BF
:10216C0005EBC303D3F878319F4275D204EB84039B
:10217C0005EBC30393F86811284603F05DFC5FE799
:10218C0004EB840105EBC1013B46B1F86E21D1F89B
:10219C007C1102F073FBD0E704EB840305EBC30363
:1021AC0093F86B31022B35D0296804EB840205EBD4
:1021BC00C20292F8680131F820309BB223F4E0435C
:1021CC0023F0700343F4004343F0C00321F82030A4
:1021DC00286892F8682130F8223013F4804F20D010
:1021EC00B0F850309BB203EBC203023300EB430355
:1021FC00B3F80074C7F30907002F9ED004EB8401D9
:10220C0005EBC1013B46B1F87021D1F87C1102F00D
:10221C0035FB92E7324641462846FFF7DFFA074680
:10222C008BE7B0F850309BB203EBC203063300EBE4
:10223C004303B3F80074C7F30907002F3FF47DAFD5
:10224C0004EB840105EBC1013B46B1F87221D1F8D6
:10225C007C1102F013FB70E74146286801F0B5FED3
:10226C00EEE604EB840205EBC202002717642AE7B2
:10227C0004EB840205EBC202D66B1E44D663546C8D
:10228C002344536401F0A1FEEEE532462846FFF7E5
:10229C00D8FBE9E50020BDE8F08190F8A832012BCD
:1022AC000DD010B50446012380F8A83280F8241014
:1022BC00006801F066FE002084F8A80210BD022020
:1022CC00704710B584B00446006801F064FE10F449
:1022DC00004F47D1206801F05EFE10F4806F45D1AD
:1022EC00206801F058FE10F4804F08D02268B2F834
:1022FC0044309BB223F480439BB2A2F84430206854
:10230C0001F049FE10F4005F08D02268B2F84430A6
:10231C009BB223F400539BB2A2F84430206801F026
:10232C003AFE10F4805F32D1206801F034FE10F4D4
:10233C00006F78D1206801F02EFE10F4007F40F081
:10234C009D80206801F027FE10F4807F08D0226861
:10235C00B2F844309BB223F480739BB2A2F84430A1
:10236C0004B010BD2046FFF77CFDB3E72268B2F83D
:10237C0044309BB223F480639BB2A2F844302046D5
:10238C0003F077FB00212046FFF787FFA8E72268C0
:10239C00B2F840309BB223F004039BB2A2F8403059
:1023AC002268B2F840309BB223F008039BB2A2F82B
:1023BC004030204603F080FB2268B2F844309BB2D8
:1023CC0023F480539BB2A2F84430ADE7226832F874
:1023DC00231004AA02EB430222F8101C0133DBB2D7
:1023EC00072BF3D92268B2F840309BB243F00103BB
:1023FC00A2F840302268B2F840309BB223F00103BF
:10240C009BB2A2F840302368B3F8442012F4806FDA
:10241C00F9D0B3F8442092B222F4806292B2A3F8BD
:10242C00442000230BE00023DAE7226804A901EB27
:10243C00430131F8101C22F823100133DBB2072BB7
:10244C00F3D92268B2F840309BB243F00803A2F8EB
:10245C0040302268B2F844309BB223F400639BB244
:10246C00A2F844302268B2F840309BB243F0040327
:10247C00A2F84030204603F00FFB5BE72268B2F86D
:10248C0044309BB223F400739BB2A2F84430204634
:10249C0003F0E9FA55E710B504468C4611F0800FAD
:1024AC002AD101F0070000EB8001C90001F5B47ED0
:1024BC0004EB0E0100EB800004EBC0004FF0000EAB
:1024CC0080F869E10CF0070C81F800C00A61CB7050
:1024DC004A780AB1A1F80EC0022B19D094F8A83290
:1024EC00012B18D0012384F8A832206801F02CFAB3
:1024FC00002084F8A80210BD01F00700013000EBA9
:10250C00800104EBC1014FF0010E81F801E0D9E725
:10251C0000230B71E2E70220EDE710B504460B46F1
:10252C0011F0800F1FD101F0070202EB8201C900EC
:10253C0001F5B471014402EB820200EBC2020020EF
:10254C0082F8690103F007030B7094F8A832012B91
:10255C0013D0012384F8A832206801F0B1FB0020CD
:10256C0084F8A80210BD01F00702013202EB8201CF
:10257C0000EBC10101204870E4E70220F2E710B53E
:10258C0001F0070404EB8401C90001F5B4710144A6
:10259C0004EB840C00EBCC0CCCF87C21CCF8803117
:1025AC000023CCF884318CF869318CF8684124B95B
:1025BC00006801F00AFD002010BD006801F005FD67
:1025CC00F9E710B501F0070404F1010C0CEB8C01D8
:1025DC0000EBC10104EB840E00EBCE0ECEF83C20D8
:1025EC00CEF8403001228EF84C20CEF84830002333
:1025FC00CEF844304A700CEB8C0C00F83C4024B9FB
:10260C00006801F0E2FC002010BD006801F0DDFC68
:10261C00F9E738B501F007054268954231D8044610
:10262C000B4611F0800F1ED101EB8101C90001F5A1
:10263C00B471014403EB830300EBC303002283F862
:10264C00692101238B700D7094F8A832012B1AD0DC
:10265C00012384F8A832206801F01DFC5DB1002034
:10266C0084F8A80238BD6B1C03EB830100EBC1019D
:10267C0001224A70E5E704F52C71206801F08FFC0B
:10268C00EDE70120EEE70220ECE70B4601F00F012D
:10269C004268914230D810B5044613F0800F21D116
:1026AC0003F0070202EB8201C90001F5B471014489
:1026BC0002EB820200EBC202002082F869010022C8
:1026CC008A7003F007030B7094F8A832012B15D015
:1026DC00012384F8A832206801F002FC002084F861
:1026EC00A80210BD03F00702013202EB820100EBDD
:1026FC00C10101204870E2E7012070470220F0E799
:10270C0011F0800F0BD001F00701013101EB8101B9
:10271C0000EBC10152B90A73CB800020704701EB6A
:10272C008101C90001F5B4710144F3E701220A7378
:10273C000B811B0C4B81F0E782B0084B1B68084ADD
:10274C00A2FB03235B0A00FB03F3019300BF019B75
:10275C005A1E0192002BF9D102B0704700050020DF
:10276C00D34D6210002800F0F18170B582B00446A0
:10277C00036813F0010F2CD0994B5B6803F00C032A
:10278C00042B1DD0964B5B6803F00C03082B12D066
:10279C006368B3F5803F41D0002B55D103F18043E2
:1027AC0003F504331A6822F480321A601A6822F492
:1027BC0080221A6037E08A4B5B6813F4803FE7D0C5
:1027CC00874B1B6813F4003F03D06368002B00F0A9
:1027DC00BF81236813F0020F75D0814B5B6813F037
:1027EC000C0F5FD07E4B5B6803F00C03082B54D0AE
:1027FC002369002B00F08A807A4B01221A60FEF7C5
:10280C00E9FA0546764B1B6813F0020F75D1FEF7FB
:10281C00E1FA401B0228F5D903209EE1704A1368A7
:10282C0043F480331360636843B3FEF7D3FA054671
:10283C006B4B1B6813F4003FCBD1FEF7CBFA401B5C
:10284C006428F5D9032088E1B3F5A02F09D0644B97
:10285C001A6822F480321A601A6822F480221A60F4
:10286C00E1E703F18043A3F53C331A6842F480227C
:10287C001A601A6842F480321A60D4E7FEF7AAFA9A
:10288C000546574B1B6813F4003FA2D0FEF7A2FA83
:10289C00401B6428F5D903205FE1514B5B6813F4AE
:1028AC00803FA5D14E4B1B6813F0020F03D0236958
:1028BC00012B40F04F814A4A136823F0F8036169F9
:1028CC0043EAC1031360236813F0080F33D0A369E4
:1028DC00002B5CD0434B0122C3F88024FEF77AFA1C
:1028EC0005463F4B5B6A13F0020F21D1FEF772FADB
:1028FC00401B0228F5D903202FE1394A136823F035
:10290C00F803616943EAC1031360DCE7354B00222D
:10291C001A60FEF75FFA0546314B1B6813F0020F85
:10292C00D1D0FEF757FA401B0228F5D9032014E149
:10293C000120FFF701FF236813F0040F00F09680CD
:10294C00274BDB6913F0805F34D1254BDA6942F0F9
:10295C008052DA61DB6903F080530193019B0125FE
:10296C00214B1B6813F4807F26D0E368012B3DD0EC
:10297C00002B53D103F1804303F504331A6A22F080
:10298C0001021A621A6A22F004021A6233E0154B31
:10299C000022C3F88024FEF71DFA0546104B5B6A33
:1029AC0013F0020FC7D0FEF715FA401B0228F5D919
:1029BC000320D2E00025D3E70B4A136843F480735D
:1029CC001360FEF707FA0646074B1B6813F4807F6B
:1029DC00CBD1FEF7FFF9801B6428F5D90320BCE0AE
:1029EC000010024000004242007000405F4A136A2F
:1029FC0043F001031362E36833B3FEF7EBF90646C9
:102A0C005A4B1B6A13F0020F2FD1FEF7E3F9801B10
:102A1C0041F288339842F3D903209EE0052B09D06C
:102A2C00524B1A6A22F001021A621A6A22F004024C
:102A3C001A62E0E74D4B1A6A42F004021A621A6AF3
:102A4C0042F001021A62D6E7FEF7C4F90646474B7C
:102A5C001B6A13F0020F08D0FEF7BCF9801B41F281
:102A6C0088339842F3D9032077E0E5B9E369002B6A
:102A7C0072D03E4A526802F00C02082A56D0022B41
:102A8C0017D03B4B00221A66FEF7A4F90446374BCD
:102A9C001B6813F0007F47D0FEF79CF9001B02283F
:102AAC00F5D9032059E0314AD36923F08053D3611F
:102ABC00DCE72F4B00221A66FEF78CF905462B4BF0
:102ACC001B6813F0007F06D0FEF784F9401B022828
:102ADC00F5D9032041E0236AB3F5803F1AD023498E
:102AEC004B6823F47413226A606A024313434B60ED
:102AFC001F4B01221A66FEF76DF904461B4B1B682F
:102B0C0013F0007F0ED1FEF765F9001B0228F5D9F2
:102B1C00032022E0154A536823F40033A1680B43C9
:102B2C005360DCE7002018E0002016E0012B16D0E3
:102B3C000E4B5B6803F48031226A914211D103F48D
:102B4C007013626A93420ED1002006E00120704798
:102B5C00012002E0012000E0002002B070BD012045
:102B6C00FBE70120F9E70120F7E700BF0010024066
:102B7C000000424286B0174B0FCB0DF1180C0CE93C
:102B8C000F0040F20123ADF80430134B5B6803F0E7
:102B9C000C02082A02D0114806B07047C3F38342D6
:102BAC0018326A4412F8100C13F4803F0DD00A4B03
:102BBC005B68C3F3404318336B4413F8143C074A67
:102BCC0002FB00F0B0FBF3F0E6E7054B03FB00F073
:102BDC00E2E700BF005E00080010024000127A001D
:102BEC0000093D00002800F0A08070B50D46044699
:102BFC00524B1B6803F007038B420BD24F4A1368EE
:102C0C0023F007030B431360136803F007038B4295
:102C1C0040F08D80236813F0020F17D013F0040FCF
:102C2C0004D0474A536843F4E0635360236813F0BD
:102C3C00080F04D0424A536843F460535360404A2F
:102C4C00536823F0F003A1680B435360236813F01F
:102C5C00010F31D06368012B20D0022B25D0384ACC
:102C6C00126812F0020F64D035494A6822F0030250
:102C7C0013434B60FEF7AEF80646314B5B6803F02E
:102C8C000C036268B3EB820F16D0FEF7A3F8801B1F
:102C9C0041F288339842F0D9032045E0284A126863
:102CAC0012F4003FE0D101203EE0254A126812F0F8
:102CBC00007FD9D1012037E0204B1B6803F00703BC
:102CCC00AB420AD91D4A136823F007032B43136048
:102CDC00136803F00703AB422DD1236813F0040FE4
:102CEC0006D0174A536823F4E063E1680B43536042
:102CFC00236813F0080F07D0114A536823F460536C
:102D0C00216943EAC1035360FFF734FF0C4B5B6846
:102D1C00C3F303130B4AD35CD8400B4B18600B4B1B
:102D2C001868FEF713F8002070BD012070470120D1
:102D3C00FAE70120F8E70120F6E700BF0020024087
:102D4C0000100240E85D0008000500200805002086
:102D5C00014B1868704700BF0005002008B5FFF74D
:102D6C00F7FF044B5B68C3F30223034AD35CD840E0
:102D7C0008BD00BF00100240F85D000808B5FFF761
:102D8C00E7FF044B5B68C3F3C223034AD35CD84010
:102D9C0008BD00BF00100240F85D000870B582B09D
:102DAC000446036813F0010F36D03F4BDB6913F078
:102DBC00805F49D13C4BDA6942F08052DA61DB69C1
:102DCC0003F080530193019B0125384B1B6813F4CE
:102DDC00807F3BD0344B1B6A13F4407313D0626872
:102DEC0002F440729A420ED02F4A136A23F44070B8
:102DFC002F490126C1F840640026C1F840641062D6
:102E0C0013F0010F36D1284A136A23F4407361681A
:102E1C000B431362002D3ED1236813F0020F06D032
:102E2C00214A536823F44043A1680B435360236841
:102E3C0013F0100F34D01C4A536823F48003E1685C
:102E4C000B43536000202CE00025BEE7174A1368A3
:102E5C0043F480731360FDF7BDFF0646134B1B68EC
:102E6C0013F4807FB6D1FDF7B5FF801B6428F5D92C
:102E7C00032016E0FDF7AEFF06460B4B1B6A13F062
:102E8C00020FC0D1FDF7A6FF801B41F28833984298
:102E9C00F3D9032005E0D36923F08053D361BBE75A
:102EAC00002002B070BD00BF001002400070004056
:102EBC00000042422DE9F04782B00546884617468D
:102ECC001E46FDF787FF0A9B1B1A03EB0609FDF74D
:102EDC0081FF82462B4B1B68C3F3CB3309FB03F3F7
:102EEC0001932B689C6838EA04030CBF4FF0010C6B
:102EFC004FF0000CBC4540D0B6F1FF3FF1D0FDF7D0
:102F0C0069FFA0EB0A0048450AD2B9F1000F07D0BF
:102F1C00019A02B14A46019B013B01939146E0E7BD
:102F2C002A68536823F0E00353606B68B3F5827F23
:102F3C000BD0AB6AB3F5005F14D0012385F8513088
:102F4C00002385F85030032018E0AB68B3F5004F30
:102F5C0002D0B3F5806FECD12A68136823F04003DC
:102F6C001360E6E72A68136823F4005313602A6899
:102F7C00136843F400531360DFE7002002B0BDE890
:102F8C00F08700BF0005002010B582B004460B4648
:102F9C00009200228021FFF78DFF08B902B010BD0E
:102FAC00636D43F0200363650320F7E7002856D0D8
:102FBC0010B50446436A33B94368B3F5827F05D034
:102FCC000023C36102E00023036143610023A36279
:102FDC0094F85130002B3CD0022384F851302268F5
:102FEC00136823F040031360636803F48273A268D0
:102FFC0002F404421343E26802F4006213432269B0
:10300C0002F002021343626902F001021343A26947
:10301C0002F400721343E26902F038021343226A8D
:10302C0002F080021343A26A02F400522168134397
:10303C000B60638B226803F0040353602268D3692E
:10304C0023F40063D36100206065012384F85130C0
:10305C0010BD84F850302046FDF70CFBBCE7012076
:10306C007047000038B590F85030012B61D0044601
:10307C00012380F8503090F85150EDB29D4252D15E
:10308C00002951D0002A4FD0032380F8513000235F
:10309C00436501638286C2868363436403648387CA
:1030AC00C3878368B3F5004F2AD0A36C224ADA6237
:1030BC00A36C224A9A62A36C214A1A63A36C002265
:1030CC005A632268E38E9BB20C32216BA06CFEF724
:1030DC00A5F80146F8B923681A6812F0400F03D11D
:1030EC001A6842F040021A602268536843F02003C9
:1030FC0053602268536843F0020353600D4613E09B
:10310C000268136823F0400313600268136843F4E9
:10311C0080431360C9E7636D43F0100363650123BB
:10312C0084F8513000E00225002384F85030284602
:10313C0038BD0225FBE700BF55310008833100087C
:10314C00613100087047704708B5406AFFF7FBFF14
:10315C0008BD704708B5406A0268536823F0030342
:10316C005360436D43F010034365012380F85130E5
:10317C00FFF7EFFF08BD30B583B00546446AFDF795
:10318C0029FE2B681B6813F0200F23D102462168FF
:10319C004B6823F020034B6021684B6823F002033B
:1031AC004B6064212046FFF7EFFE18B1636D43F0CE
:1031BC0020036365A36833B901932368DA6801922D
:1031CC009B680193019B0023E386012384F8513013
:1031DC00636D23B92046FFF7B5FF03B030BD204621
:1031EC00FFF7B7FFF9E7000070B4036A23F001039F
:1031FC000362036A4668826922F073020C6844EA2F
:10320C00020523F002028B6813430D4CA04209D037
:10321C000B4CA0420DD0466085614A684263036244
:10322C0070BC704723F00803CA68134323F00403EF
:10323C00EEE726F440764A6932438E691643EAE794
:10324C00002C014030B4036A23F480730362036AD8
:10325C004568C26922F073020C68224323F40073A0
:10326C008C6843EA04230F4CA04209D00D4CA042B9
:10327C000ED04560C2614A68C263036230BC7047BD
:10328C0023F40063CC6843EA042323F48063EDE762
:10329C0025F440554C6945EA04158C6945EA04153A
:1032AC00E7E700BF002C014030B4036A23F48053DD
:1032BC000362036A4468C26922F4E6420D6842EA7A
:1032CC00052223F400538D6843EA0533074DA842C9
:1032DC0006D04460C2614A680264036230BC704725
:1032EC0024F480444D6944EA8514F2E7002C014033
:1032FC0010B4036A046A24F001040462846924F0A3
:10330C00F00C4CEA021223F00A030B4382610362B5
:10331C0010BC704710B4046A24F010040462846971
:10332C00036A24F4704C4CEA023223F0A00343EA03
:10333C0001138261036210BC7047836823F0700331
:10334C000B4343F0070383607047704703681B4AC5
:10335C0090420AD0B0F1804F07D0A2F5943290423F
:10336C0003D002F58062904203D123F070034A68C7
:10337C001343124A90420AD0B0F1804F07D0A2F505
:10338C009432904203D002F58062904203D123F430
:10339C004073CA68134323F080034A6913430360E4
:1033AC008B68C3620B688362044B984202D0012382
:1033BC00436170470B690363F9E700BF002C0140C0
:1033CC0040B310B5044690F83D30F3B1022384F8B5
:1033DC003D30214651F8040BFFF7B8FF012384F868
:1033EC00463084F83E3084F83F3084F8403084F81E
:1033FC00413084F8423084F8433084F8443084F807
:10340C00453084F83D30002010BD80F83C30FDF78D
:10341C003BFADBE70120704740B310B5044690F847
:10342C003D30F3B1022384F83D30214651F8040BB2
:10343C00FFF78CFF012384F8463084F83E3084F883
:10344C003F3084F8403084F8413084F8423084F8BE
:10345C00433084F8443084F8453084F83D30002003
:10346C0010BD80F83C30FFF770FFDBE701207047A0
:10347C0030B4036A23F010030362036A4468826960
:10348C0022F4E6420D6842EA052223F020038D68FF
:10349C0043EA05130E4DA84209D00D4DA8420ED09B
:1034AC00446082614A688263036230BC704723F0D7
:1034BC008003CD6843EA051323F04003EDE724F4C1
:1034CC0040644D6944EA85048D6944EA8504E7E764
:1034DC00002C014038B590F83C30012B60D00446EC
:1034EC000D46012380F83C300C2A1AD8DFE802F094
:1034FC00071919191D1919193119191944000068DE
:10350C00FFF772FE2268936943F008039361226807
:10351C00936923F0040393612268936929690B432F
:10352C009361002084F83C0038BD0068FFF7A0FFD1
:10353C002268936943F4006393612268936923F4CE
:10354C008063936122689369296943EA012393613B
:10355C00E7E70068FFF776FE2268D36943F00803BB
:10356C00D3612268D36923F00403D3612268D36941
:10357C0029690B43D361D4E70068FFF795FE2268F5
:10358C00D36943F40063D3612268D36923F4806365
:10359C00D3612268D369296943EA0123D361C0E767
:1035AC000220C1E710B4846824F47F4C42EA032261
:1035BC000A4342EA0C02826010BC704790F83C301F
:1035CC00012B66D010B50446012380F83C30022351
:1035DC0080F83D300268936823F47F4323F077032F
:1035EC0093600B68602B40D022D8402B47D00BD96E
:1035FC00502B0ED1CA6849680068FFF779FE50213C
:10360C002068FFF79AFE04E0202B0CD008D9302B51
:10361C0009D0012384F83D30002084F83C0010BD13
:10362C000BB1102BF5D119462068FFF786FEF0E799
:10363C00702B0ED0B3F5005FEBD1CB684A6889686C
:10364C000068FFF7AFFF2268936843F480439360F0
:10365C00DFE7CB684A6889680068FFF7A3FF226838
:10366C00936843F077039360D3E7CA6849680068AE
:10367C00FFF750FE60212068FFF75FFEC9E7CA68BC
:10368C0049680068FFF734FE40212068FFF755FEBB
:10369C00BFE70220704701F01F01012303FA01FC70
:1036AC00036A23EA0C030362036A02FA01F10B4377
:1036BC000362704710B50446084651BB94F83E307F
:1036CC00DBB2013B18BF0123002B5BD1002839D1A1
:1036DC00022384F83E30012201462068FFF7DBFF0D
:1036EC0023682A4A93423DD02368284A93423ED00D
:1036FC00B3F1804F3BD0A2F59432934237D002F510
:10370C008062934233D01A6842F001021A600020A2
:10371C0039E0042908D008290DD094F84130DBB2E7
:10372C00013B18BF0123CFE794F83F30DBB2013BDC
:10373C0018BF0123C8E794F84030DBB2013B18BF37
:10374C000123C1E7042805D0082807D0022384F8F8
:10375C004130C0E7022384F83F30BCE7022384F8F1
:10376C004030B8E75A6C42F400425A64BCE79A689D
:10377C0002F00702062A07D01A6842F001021A600A
:10378C00002000E0012010BD0020FCE7002C0140CF
:10379C0090F83C30012B2CD010B4012380F83C3035
:1037AC00022380F83D3003685A689C6822F0700C44
:1037BC000A6842EA0C025A6003680F4A93420AD024
:1037CC00B3F1804F07D0A2F59432934203D002F5A7
:1037DC008062934204D124F080044A6814439C60B4
:1037EC00012380F83D30002380F83C30184610BC93
:1037FC0070470220704700BF002C014010B50446F2
:10380C000268136923F44053C1680B431361836846
:10381C000269134342691A430168CB6823F4B0531D
:10382C0023F00C031343CB600268536923F44073F9
:10383C0081690B4353610268134B9A4220D0FFF706
:10384C008DFA024602EB820202EB820263689B0055
:10385C00B2FBF3F20D48A0FB02314909642303FBD0
:10386C0011231B013233A0FB03235B0903F0F0028D
:10387C0002EB011203F00F03216813448B6010BD9F
:10388C00FFF77CFA0246DDE7003801401F85EB515B
:10389C0058B310B5044690F83D300BB3242384F88C
:1038AC003D302268D36823F40053D3602046FFF7E1
:1038BC00A5FF2268136923F49043136122685369AE
:1038CC0023F02A0353612268D36843F40053D36076
:1038DC0000202064202384F83D3084F83E3010BD55
:1038EC0080F83C30FDF7D0F9D8E70120704784B060
:1038FC0001A880E80E00002004B0704703460020A9
:10390C00A3F844004FF43F42A3F840207047B0F8AE
:10391C00403023F47C535B045B0CA0F84030002057
:10392C0070470020704784B0844601A880E80E00E0
:10393C000123ACF840300020ACF84000ACF8440057
:10394C00ACF8500004B0704710B5034691F800C0B5
:10395C0030F82C2092B222F4EC4222F0700292B297
:10396C00C878032861D8DFE800F0555C02580020C5
:10397C0048F2800E42EA0E0223F82C2091F800C087
:10398C0033F82C2092B222F4E04222F070024CEA7E
:10399C00020242EA0E0223F82C200A7B002A40F095
:1039AC00C4804A78002A51D0B3F8502092B21A44FD
:1039BC000C7802EB0412B1F806C04FEA5C0C4FEA2B
:1039CC004C0CA2F800C40C7833F8242012F0400FF1
:1039DC000CD033F8242092B222F4E04222F0700290
:1039EC0042F4004242F0C00223F82420CA78012A93
:1039FC001DD0097833F8212092B222F4E04222F053
:103A0C00400282F0200242F4004242F0800223F88D
:103A1C0021206AE042F40072AAE742F4C06200205E
:103A2C00A6E742F480620020A2E70120A0E7097813
:103A3C0033F8212092B222F4E04222F0400242F408
:103A4C00004242F0800223F821204EE0B3F85020CF
:103A5C0092B21A440C7802EB0412B1F806C04FEA89
:103A6C005C0C4FEA4C0CA2F808C4B3F8502092B28C
:103A7C001A440C7802EB04120C69BCBBB2F80CC4EF
:103A8C001FFA8CFC2CF4F84C1FFA8CFCA2F80CC41A
:103A9C00B2F80CC46FEA4C4C6FEA5C4C1FFA8CFC0D
:103AAC00A2F80CC40C7833F8242012F4804F0CD0FC
:103ABC0033F8242092B222F4E04222F0700242F455
:103ACC00404242F0800223F82420097833F8212068
:103ADC0092B222F4804222F0700282F4405242F4FC
:103AEC00004242F0800223F8212010BD3E2C0DD85C
:103AFC004FEA540C14F0010F01D00CF1010C4FEAF9
:103B0C008C2C1FFA8CFCA2F80CC4CBE74FEA541C8B
:103B1C0014F01F0F01D10CF1FF3C6FEACC646FEA7B
:103B2C005444A4B2A2F80C44BCE791F800C033F89A
:103B3C002C2092B222F4E04222F0700242F40142B4
:103B4C0042F0800223F82C20B3F8502092B21A4491
:103B5C0091F800C002EB0C12B1F808C04FEA5C0CF3
:103B6C004FEA4C0CA2F800C4B3F8502092B21A449D
:103B7C0091F800C002EB0C12B1F80AC04FEA5C0CD1
:103B8C004FEA4C0CA2F808C44A78002A41D10C78B0
:103B9C0033F8242012F4804F0CD033F8242092B246
:103BAC0022F4E04222F0700242F4404242F08002E1
:103BBC0023F824200C7833F8242012F0400F0CD07A
:103BCC0033F8242092B222F4E04222F0700242F444
:103BDC00004242F0C00223F8242091F800C033F8D0
:103BEC002C2092B222F4804222F0700282F44052D5
:103BFC0048F28004224323F82C20097833F8212042
:103C0C0092B222F4E04222F04002224323F8212017
:103C1C006BE70C7833F8242012F4804F0CD033F877
:103C2C00242092B222F4E04222F0700242F440428C
:103C3C0042F0800223F824200C7833F8242012F070
:103C4C00400F0CD033F8242092B222F4E04222F040
:103C5C00700242F4004242F0C00223F82420CA78D9
:103C6C00012A1ED00C7833F8242092B222F4E042C0
:103C7C0022F0400282F0200242F4004242F0800224
:103C8C0023F82420097833F8212092B222F48042C0
:103C9C0022F0700242F4004242F0800223F821200C
:103CAC0023E70C7833F8242092B222F4E04222F07D
:103CBC00400242F4004242F0800223F82420E1E763
:103CCC000B7B002B46D14B7813B30A7830F822309B
:103CDC0013F0400F0CD030F822309BB223F4E043A9
:103CEC0023F0700343F4004343F0C00320F8223068
:103CFC000A7830F822309BB223F4E04323F04003DF
:103D0C0043F4004343F0800320F822300020704736
:103D1C000A7830F8223013F4804F0CD030F822306F
:103D2C009BB223F4E04323F0700343F4404343F08D
:103D3C00800320F822300A7830F822309BB223F42A
:103D4C00804323F0700343F4004343F0800320F8D6
:103D5C002230DBE74B78002B4ED10A7830F822303A
:103D6C0013F4804F0CD030F822309BB223F4E04394
:103D7C0023F0700343F4404343F0800320F82230D7
:103D8C000A7830F8223013F0400F0CD030F8223083
:103D9C009BB223F4E04323F0700343F4004343F05D
:103DAC00C00320F822300A7830F822309BB223F47A
:103DBC00E04323F0700343F4004343F0C00320F8C6
:103DCC0022300B7830F8232092B222F4804222F079
:103DDC00700248F2800C42EA0C0220F823200A7888
:103DEC0030F822309BB223F4E04323F0400343EA43
:103DFC000C0320F8223089E70A7830F8223013F4CB
:103E0C00804F0CD030F822309BB223F4E04323F0E7
:103E1C00700343F4404343F0800320F822300A78C7
:103E2C0030F8223013F0400F0CD030F822309BB217
:103E3C0023F4E04323F0700343F4004343F0C00346
:103E4C0020F822300A7830F822309BB223F4E04379
:103E5C0023F0700343F4404343F0800320F82230F6
:103E6C000B7830F8232092B222F4E04222F0400288
:103E7C0048F2800C42EA0C0220F823200A7830F831
:103E8C0022309BB223F4804323F0700343EA0C03EB
:103E9C0020F822303AE74B788BB10A7830F8223090
:103EAC009BB223F4E04323F0400383F0100343F46C
:103EBC00004343F0800320F82230002070470A783A
:103ECC0030F822309BB223F4804323F0700383F448
:103EDC00805343F4004343F0800320F82230ECE796
:103EEC000B7B002B4BD14B7833B30A7830F8223054
:103EFC0013F0400F0CD030F822309BB223F4E04387
:103F0C0023F0700343F4004343F0C00320F8223045
:103F1C00CB78012B33D00A7830F822309BB223F4C3
:103F2C00E04323F0400383F0200343F4004343F0C9
:103F3C00800320F8223022E00A7830F8223013F483
:103F4C00804F0CD030F822309BB223F4E04323F0A6
:103F5C00700343F4404343F0800320F822300A7886
:103F6C0030F822309BB223F4804323F0700383F4A7
:103F7C00405343F4004343F0800320F822300020E8
:103F8C00704711B98023A0F84C30002070470020F6
:103F9C00704700207047B0F8440080B27047002092
:103FAC00704710B45C1C640800EB420202F580629E
:103FBC0007E00B78487843EA002322F8043B0231EF
:103FCC00013C002CF5D110BC704770B505460C4671
:103FDC004B78012B37D00A7B002A40F026838B6963
:103FEC000A69934240F204839B1A8B61B5F85030F6
:103FFC009BB22B44217803EB0113002A40F0FC8286
:10400C00B3F80C2492B222F4F84292B2A3F80C2426
:10401C00B3F80C246FEA42426FEA524292B2A3F810
:10402C000C24227835F822309BB223F4804323F001
:10403C00700383F4405343F4004343F0800325F8AA
:10404C002230002070BD8E690A69964200D916464E
:10405C00237B002B39D0E378022B58D0227835F80B
:10406C0022309BB223F4E04323F0700343F401436A
:10407C0043F0800325F82230236A9B1B23622378AC
:10408C0035F8232012F0400F00F026826278002AC7
:10409C0040F0CA81B5F8502092B22A4402EB0313C7
:1040AC00002E40F0A881B3F80C2492B222F4F8420E
:1040BC0092B2A3F80C24B3F80C246FEA42426FEAD4
:1040CC00524292B2A3F80C24B0E1B6B23346E28865
:1040DC0061692846FFF765FFB5F850309BB22B4459
:1040EC00227803EB0213A3F80464227835F822300B
:1040FC009BB223F4E04323F0400383F0300343F4FA
:10410C00004343F0800325F8223000209AE7236A0D
:10411C009A4280F05281227835F822309BB223F4F7
:10412C00E04323F0700343F4014343F0800325F88C
:10413C002230236A9B1B2362237835F8232012F04C
:10414C00400F00F09D8062788ABBB5F8502092B287
:10415C002A4402EB03138EB9B3F80C2492B222F466
:10416C00F84292B2A3F80C24B3F80C246FEA424242
:10417C006FEA524292B2A3F80C241AE03E2E09D8F0
:10418C00720816F0010F00D00132920292B2A3F81D
:10419C000C240EE0720916F01F0F00D1013A6FEAE1
:1041AC00C2626FEA524292B2A3F80C2401E0012AD7
:1041BC002BD0B3B2628961692846FFF7F2FE6369BE
:1041CC0033446361236A2269934228D99B1B23627F
:1041DC006378002B40D1B5F850309BB22B44227839
:1041EC0003EB0213FEB9B3F8042492B222F4F842A2
:1041FC0092B2A3F80424B3F804246FEA42426FEAA3
:10420C00524292B2A3F8042428E0B5F8502092B29E
:10421C002A4402EB0313B2B2A3F80C24C9E7002220
:10422C0022621E46D4E73E2E09D8720816F0010F02
:10423C0000D00132920292B2A3F804240EE072096B
:10424C0016F01F0F00D1013A6FEAC2626FEA5242B8
:10425C0092B2A3F8042401E0012B06D0B3B2228958
:10426C0061692846FFF79DFE3FE7B5F850309BB2D9
:10427C002B44227803EB0213B2B2A3F80424EDE72B
:10428C0062788ABBB5F8502092B22A4402EB031331
:10429C008EB9B3F8042492B222F4F84292B2A3F885
:1042AC000424B3F804246FEA42426FEA524292B2F9
:1042BC00A3F804241AE03E2E09D8720816F0010F58
:1042CC0000D00132920292B2A3F804240EE07209DB
:1042DC0016F01F0F00D1013A6FEAC2626FEA524228
:1042EC0092B2A3F8042401E0012A2BD0B3B22289A4
:1042FC0061692846FFF755FE636933446361236A9D
:10430C002269934228D99B1B23626378002B40D1EE
:10431C00B5F850309BB22B44227803EB0213FEB954
:10432C00B3F80C2492B222F4F84292B2A3F80C2403
:10433C00B3F80C246FEA42426FEA524292B2A3F8ED
:10434C000C2428E0B5F8502092B22A4402EB031357
:10435C00B2B2A3F80424C9E7002222621E46D4E7B5
:10436C003E2E09D8720816F0010F00D001329202CD
:10437C0092B2A3F80C240EE0720916F01F0F00D1B4
:10438C00013A6FEAC2626FEA524292B2A3F80C246D
:10439C0001E0012B06D0B3B2628961692846FFF7B0
:1043AC0000FEA2E6B5F850309BB22B44227803EB0A
:1043BC000213B2B2A3F80C24EDE7217835F82120D2
:1043CC0092B222F4E24222F0700242F4004242F035
:1043DC00800225F82120B5F8502092B22A44217889
:1043EC0002EB01129BB2A2F80434228961692846BF
:1043FC00FFF7D7FD79E63E2E09D8720816F0010FAB
:10440C0000D00132920292B2A3F80C240EE0720991
:10441C0016F01F0F00D1013A6FEAC2626FEA5242E6
:10442C0092B2A3F80C2401E0012A26D0B3B262891F
:10443C0061692846FFF7B5FD636933446361236AFC
:10444C002269934223D99B1B2362002E3FF44DAE6D
:10445C0063786BBBB5F850309BB22B44227803EBDE
:10446C0002133E2E17D8720816F0010F00D001323D
:10447C00920292B2A3F804241CE0B5F8502092B238
:10448C002A4402EB0313B2B2A3F80C24CEE70022A9
:10449C0022621E46D9E7720916F01F0F00D1013AAD
:1044AC006FEAC2626FEA524292B2A3F8042401E0AE
:1044BC00012B06D0B3B2228961692846FFF771FD42
:1044CC0013E6B5F850309BB22B44227803EB021361
:1044DC00B2B2A3F80424EDE762788ABBB5F8502099
:1044EC0092B22A4402EB03138EB9B3F8042492B2AD
:1044FC0022F4F84292B2A3F80424B3F804246FEA2D
:10450C0042426FEA524292B2A3F804241AE03E2EC1
:10451C0009D8720816F0010F00D00132920292B243
:10452C00A3F804240EE0720916F01F0F00D1013A13
:10453C006FEAC2626FEA524292B2A3F8042401E01D
:10454C00012A26D0B3B2228961692846FFF729FDDA
:10455C00636933446361236A2269934223D99B1BA9
:10456C002362002E3FF4C1AD63786BBBB5F85030BD
:10457C009BB22B44227803EB02133E2E17D8720801
:10458C0016F0010F00D00132920292B2A3F80C2463
:10459C001CE0B5F8502092B22A4402EB0313B2B2DD
:1045AC00A3F80424CEE7002222621E46D9E7720942
:1045BC0016F01F0F00D1013A6FEAC2626FEA524245
:1045CC0092B2A3F80C2401E0012B06D0B3B262899D
:1045DC0061692846FFF7E5FC87E5B5F850309BB2DA
:1045EC002B44227803EB0213B2B2A3F80C24EDE7B0
:1045FC0000228A611A46F9E43E2A09D8510812F0C1
:10460C00010F00D00131890289B2A3F80C1408E51E
:10461C00510912F01F0F00D101396FEAC1616FEA25
:10462C00514189B2A3F80C14FBE4CA78022A45D094
:10463C00012A40F0208189692269914240F2D4809C
:10464C00891AA161D3B9B5F850309BB22B442178AB
:10465C0003EB0113002A40F0CB80B3F8041489B2A9
:10466C0021F4F84189B2A3F80414B3F804146FEAE6
:10467C0041416FEA514189B2A3F804146378002BCD
:10468C0040F0EA80B5F850309BB22B44217803EB14
:10469C000113002A40F0C580B3F80C2492B222F426
:1046AC00F84292B2A3F80C24B3F80C246FEA4242FD
:1046BC006FEA524292B2A3F80C24B2E4CBB9B0F830
:1046CC0050309BB203440A7803EB02130A6972BBA5
:1046DC00B3F8042492B222F4F84292B2A3F8042460
:1046EC00B3F804246FEA42426FEA524292B2A3F842
:1046FC0004246378002B4CD1B5F850309BB22B447A
:10470C00227803EB0213226952BBB3F80C2492B249
:10471C0022F4F84292B2A3F80C24B3F80C246FEAFA
:10472C0042426FEA524292B2A3F80C2433E03E2A82
:10473C0009D8510812F0010F00D001318A0292B24F
:10474C00A3F80424D5E7510912F01F0F00D1013949
:10475C006FEAC1626FEA524292B2A3F80424C8E72E
:10476C003E2A09D8510812F0010F00D001318A02FB
:10477C0092B2A3F80C240EE0510912F01F0F00D1D5
:10478C0001396FEAC1626FEA524292B2A3F80C246B
:10479C0001E0012B1DD0E369002B3FF442AC2278E1
:1047AC0035F8221044F2400303EA01008B4302D097
:1047BC0000287FF436AC35F822309BB223F4E0436A
:1047CC0023F0700343F4004343F0C00325F8223078
:1047DC0027E4B5F850309BB22B44227803EB02133C
:1047EC00228AA3F80C24D6E70022A2610A4629E704
:1047FC003E2A09D8510812F0010F00D0013189026C
:10480C0089B2A3F8041439E7510912F01F0F00D133
:10481C0001396FEAC1616FEA514189B2A3F80414FE
:10482C002CE73E2A0AD8510812F0010F00D00131B2
:10483C008A0292B2A3F80C24FFF7F3BB510912F0D1
:10484C001F0F00D101396FEAC1626FEA524292B276
:10485C00A3F80C24FFF7E5BB012B7FF4E2ABB5F812
:10486C0050309BB22B44217803EB011392B2A3F886
:10487C000C24FFF7D6BB0120FFF7E4BB10B45C0897
:10488C0000EB420000F5806007E030F8042B0A7062
:10489C00C2F307224A700231013C002CF5D113F00F
:1048AC00010F01D003880B7010BC704708B50821AC
:1048BC000948FEF7FFFE09E064339BB2074A1380F8
:1048CC00054A1268D3630120FCF78AFA034B1B8854
:1048DC00B3F57A7FF0D308BD540D0020E40D002011
:1048EC0010B5084C08212046FEF7E4FE064A138852
:1048FC00643B9BB213802268D3630120FCF770FAEF
:10490C0010BD00BF540D0020E40D002008B5202878
:10491C0004D0802801D1FFF7C9FF08BDFFF7E0FFE5
:10492C00FBE7000010B582B08DF8070001B301223F
:10493C004FF480711248FCF75FFE124C00224FF4CA
:10494C0080512046FCF758FE01220DF107010E485C
:10495C00FEF788FB01224FF480512046FCF74CFEF9
:10496C0001224FF480710648FCF746FE02B010BDE0
:10497C0000224FF480710248FCF73EFEDDE700BFD9
:10498C0000080140000C0140E00B002010B504466B
:10499C0010B1012C05D010BD0021A620FFF7C2FFDD
:1049AC00F7E70021A720FFF7BDFFF4E710B5044699
:1049BC0010B1012C11D010BD0021D320FFF7B2FF94
:1049CC0000216820FFF7AEFF0021C020FFF7AAFFEF
:1049DC000021A020FFF7A6FFEBE70021D320FFF773
:1049EC00A1FF00211820FFF79DFF0021C820FFF731
:1049FC0099FF0021A120FFF795FFDCE738B50025D2
:104A0C000CE0104B03EB04130121585DFFF78AFFF8
:104A1C000134E4B24F2CF4D90135EDB20F2D0FD87F
:104A2C00A5F150000021C0B2FFF77CFF0021084621
:104A3C00FFF778FF00211020FFF774FF0024E9E74F
:104A4C0038BD00BFE80D002008B500200AE0094A77
:104A5C0002EB0312002111540133DBB24F2BF6D9B8
:104A6C000130C0B20F2801D80023F7E7FFF7C6FFCB
:104A7C0008BD00BFE80D0020C0F17F03C3F3C40CD8
:104A8C0003F0070001238340DBB242B10C4A02EB76
:104A9C00011111F80C20134301F80C307047084A2F
:104AAC0002EB011111F80C20D243D2B201F80C2008
:104ABC00134301F80C30DB4301F80C30704700BF96
:104ACC00E80D00202DE9F04F85B001900D4693467E
:104ADC009DF83C8013F0070218BF012202EBD303B0
:104AEC00039300910746002302939A4636E0B8FAE6
:104AFC0088F2520929463846FFF7BEFF7608013581
:104B0C00EDB20134E4B2072C08D816F0010FEED048
:104B1C00424629463846FFF7AFFFEFE70137FFB2B1
:104B2C00019BFB1A5B450FD009F101095FFA89F96A
:104B3C00009DD9450ED20E9B13F80A600AF1010AAA
:104B4C001FFA8AFA0024DEE7009B0833DBB20093DD
:104B5C00019FE9E7029B0133DBB20293029B039AAC
:104B6C00934202D24FF00009E3E705B0BDE8F08FA5
:104B7C0010B5394C00224FF480612046FCF73CFD07
:104B8C00012208212046FCF737FD0021AE20FFF75B
:104B9C00C9FE00210846FFF7C5FE00211020FFF7D3
:104BAC00C1FE00212020FFF7BDFE00218120FFF770
:104BBC00B9FE00216F20FFF7B5FE0021A020FFF702
:104BCC00B1FE0021C020FFF7ADFE0021A420FFF7AD
:104BDC00A9FE0021A620FFF7A5FE0021D520FFF796
:104BEC00A1FE00219120FFF79DFE0021D920FFF7A7
:104BFC0099FE00212220FFF795FE0021DB20FFF714
:104C0C0091FE00213F20FFF78DFE0021A820FFF729
:104C1C0089FE00214F20FFF785FE0021D320FFF7EE
:104C2C0081FE00216820FFF77DFE0021DC20FFF7CC
:104C3C0079FE00210846FFF775FE0021AD20FFF735
:104C4C0071FE00218A20FFF76DFEFFF7FDFE0021AB
:104C5C00AF20FFF767FE10BD000C01402923038035
:104C6C000048704744050020292303800048704702
:104C7C00700500202923038000487047B4050020EC
:104C8C00D0F8B83200201875704710B5D0F8B8427B
:104C9C002369012B01D0002010BDD0F8BC32DB6899
:104CAC0061782078984700232361F4E70A23038076
:104CBC0000487047A805002038B50446D0F8B85213
:104CCC00D0F8BC32DB6869782878984702232A46EA
:104CDC000121204600F082FF002038BD70B582B063
:104CEC00D0F8B8520023ADF806300C7814F06004FC
:104CFC002ED0202C7CD14B78023B092B24D8DFE81A
:104D0C0003F0140923232323231B0F058B786B60DB
:104D1C00002470E00122291D00F050FD00246AE0FF
:104D2C004B881B0AAB60002465E0012205F10801E9
:104D3C0000F044FD00245EE001232B61CA88294663
:104D4C0000F051FD002456E000F02BFA022452E052
:104D5C004E780B2E48D8DFE806F006474747474702
:104D6C00154747472E3C90F89C32032B03D000F09C
:104D7C0018FA02243FE002220DF1060100F01EFD9C
:104D8C00344638E04B881B0A222B06D0212B0CD042
:104D9C0000210A4600F012FD2DE0CA88022A28BF25
:104DAC000222D0F8BC321968F4E7CA88092A28BF55
:104DBC0009221249EEE790F89C32032B03D000F045
:104DCC00F0F9022417E0012205F10C0100F0F6FCC9
:104DDC0011E090F89C32032B02D18B78EB600AE047
:104DEC0000F0DFF9022406E000F0DBF9022402E017
:104DFC0000F0D7F90224204602B070BD9C050020BB
:104E0C0038B50446812100F0AAFE0025E562012197
:104E1C00204600F0A4FEC4F86C51D4F8B8324BB163
:104E2C00D4F8BC329B689847D4F8B80200F0E2FE84
:104E3C00C4F8B852002038BD70B5044602230322D2
:104E4C00812100F081FE0125E5620223032229461F
:104E5C00204600F079FEC4F86C51182000F0C6FE14
:104E6C00C4F8B80270B1054600260675D4F8BC32F9
:104E7C005B68984702232A460121204600F0AEFECB
:104E8C00304670BD0120FCE719B1C0F8BC120020FF
:104E9C0070470220704798B108B50346D0F8B402A9
:104EAC0010B10020C3F8B40209B1C3F8B01201214B
:104EBC0083F89C121A70184600F004FE002008BDFE
:104ECC000220704719B1C0F8B412002070470220BC
:104EDC00704708B500F030FE002008BD08B5D0F8CA
:104EEC00B4322BB11B68984700B908BD0220FCE70F
:104EFC000220FAE708B5D0F8B4325B689847002076
:104F0C0008BD38B5044600F52A75284600F035F979
:104F1C000123C4F89432B4F8AE32C4F8983294F841
:104F2C00A81201F01F03012B0ED0022B11D02BB1B4
:104F3C0001F08001204600F01AFE03E029462046CD
:104F4C0000F0CAFA002038BD2946204600F0F8FAD5
:104F5C00F8E72946204600F023FBF3E738B5044672
:104F6C000D4691BB1346D0F89422032A03D0052A90
:104F7C0024D0084633E0D0F86011D0F86421914277
:104F8C000DD9891AC0F860118A4206D98AB219461D
:104F9C00204600F037FC284621E092B2F7E7D0F823
:104FAC00B4321B691BB190F89C22032A04D0204612
:104FBC0000F030FC284612E09847F8E70021C0F8D2
:104FCC00941200F0D4FD284609E0D0F8B4329B6965
:104FDC0033B190F89C22032A04D19847002038BDA5
:104FEC000220FCE70220FAE738B504460D460029FA
:104FFC0053D11346D0F89422022A0CD0042A00D0A4
:10500C001AB98021204600F0B2FD94F8A032012B91
:10501C003ED0284638BD016A426A91421BD8C1690C
:10502C00B1FBF2F302FB13132BB98A4203D8D0F86D
:10503C00983299421CD3D4F8B432DB681BB194F883
:10504C009C22032A21D08021204600F090FD20468E
:10505C0000F0EBFBD9E78A1A026292B2194600F013
:10506C00BAFB00231A461946204600F0B7FDCCE7E0
:10507C000022114600F0AFFB0021C4F898120B4639
:10508C000A46204600F0AAFDBFE720469847DAE71B
:10509C00002384F8A0322846BCE7D0F8B4325B6910
:1050AC0033B190F89C22032A04D198470020B1E731
:1050BC000220AFE70220ADE770B504464023002282
:1050CC00114600F041FD0125C4F858514026C4F8A2
:1050DC006461334600228021204600F035FDA56135
:1050EC00666284F89C520023C4F894326360C4F85E
:1050FC00A432D4F8B8322BB1D4F8B4325B680021A6
:10510C0020469847002070BD01740020704790F82D
:10511C009C3280F89D32042380F89C32002070472A
:10512C0090F89C32042B01D00020704790F89D32EF
:10513C0080F89C32F8E708B590F89C32032B01D02C
:10514C00002008BDD0F8B432DB69002BF8D09847AA
:10515C00F6E70346002002E00130C0B201331A78B2
:10516C00002AF9D1704708B54B88012B00D008BD37
:10517C00C0F8A43200F04EFBF9E70B7803704B78C3
:10518C0043708B78CA7803EB022343800B794A79FE
:10519C0003EB022383808B79CA7903EB0223C38050
:1051AC00704710B50446802100F0E1FC0021204638
:1051BC0000F0DDFC10BD30B583B005460C46002375
:1051CC00ADF806304A88130A013B062B00F2A48086
:1051DC00DFE803F004182CA2A2869300D0F8B032BA
:1051EC001B680DF10601007C9847BDF806201AB12A
:1051FC00E388002B40F09480E388002B00F09A8029
:10520C0003B030BD037C43B9D0F8B4329B6A0DF1C6
:10521C000600984702234370E7E7D0F8B432DB6A04
:10522C000DF10600984702234370DEE7D2B2052A3F
:10523C0052D8DFE802F003101D2A3744D0F8B03200
:10524C005B6823B10DF10601007C9847CDE7214640
:10525C00FFF7A7FFD4E7D0F8B0329B6823B10DF16C
:10526C000601007C9847C0E72146FFF79AFFC7E785
:10527C00D0F8B032DB6823B10DF10601007C984701
:10528C00B3E72146FFF78DFFBAE7D0F8B0321B69C0
:10529C0023B10DF10601007C9847A6E72146FFF7E4
:1052AC0080FFADE7D0F8B0325B6923B10DF1060198
:1052BC00007C984799E72146FFF773FFA0E7D0F8E9
:1052CC00B0329B6923B10DF10601007C98478CE745
:1052DC002146FFF766FF93E72146FFF762FF8FE752
:1052EC00037C33B9D0F8B4325B6B0DF106009847F0
:1052FC007BE72146FFF755FF82E7037C43B9D0F8E3
:10530C00B4321B6B0DF106009847072343706CE712
:10531C002146FFF746FF73E72146FFF742FF6FE791
:10532C009A4228BF1A46ADF806200146284600F0DE
:10533C0045FA61E7284600F06DFA61E738B5044696
:10534C008B88F3B9CB88E3B94B887F2B19D803F042
:10535C007F0590F89C32032B0CD080F89E52294686
:10536C0000F02CFC204600F055FA35B1022384F8ED
:10537C009C3209E0FFF715FF06E0012384F89C320C
:10538C0002E02046FFF70DFF38BD000038B504469B
:10539C000D468978284B197001290ED890F89C324B
:1053AC00022B0ED0032B21D02946FFF7FAFE224BFD
:1053BC0019782046FFF79EFD02E02946FFF7F1FE23
:1053CC0038BD81B14160032380F89C32FFF786FD24
:1053DC00022803D0204600F01DFAF1E729462046AA
:1053EC00FFF7DFFEECE700F015FAE9E789B1436857
:1053FC0099421DD0D9B2FFF77DFD0F4B1978616032
:10540C002046FFF76BFD02280DD0204600F002FA73
:10541C00D6E7022380F89C324160FFF76BFD2046F3
:10542C0000F0F8F9CCE729462046FFF7BAFEC7E7AB
:10543C0000F0F0F9C4E700BFE813002008B5CB88F2
:10544C00012B0AD190F89C32022B09D9032B09D1DC
:10545C000122011D00F0B2F901E0FFF7A2FE08BD28
:10546C005BB213B9FFF79DFEF9E70146002341F843
:10547C00083F012200F0A2F9F1E708B590F89C3240
:10548C00013B022B12D8CB88022B0CD10123C36019
:10549C00D0F8A4320BB10323C360022200F10C013B
:1054AC0000F08CF908BDFFF77CFEFBE7FFF779FEF7
:1054BC00F8E708B590F89C32013B022B09D84B88D1
:1054CC00012B00D008BD0023C0F8A43200F0A2F9D3
:1054DC00F8E7FFF766FEF5E708B50B7803F0600315
:1054EC00202B05D0402B03D043B1FFF75AFE03E02D
:1054FC00D0F8B4329B689847002008BD4B78092B34
:10550C001BD8DFE803F011171A141A08051A0E0B32
:10551C00FFF751FEF0E7FFF711FFEDE7FFF736FF5E
:10552C00EAE7FFF78BFFE7E7FFF7A7FFE4E7FFF7F3
:10553C001AFEE1E7FFF7BDFFDEE7FFF732FEDBE720
:10554C0038B505460C460B7803F06003202B06D0CB
:10555C00402B04D01BB1FFF724FE002038BD95F87A
:10556C009C32013B022B16D82379012B0ED8D5F88F
:10557C00B4329B68214628469847E388002BECD12F
:10558C000028EAD1284600F045F9E6E721462846EE
:10559C00FFF707FEE1E721462846FFF702FEDCE7AE
:1055AC0070B505468B880C7804F06004202C07D06D
:1055BC00DAB2402C04D05CB1FFF7F3FD002405E017
:1055CC00D5F8B4329B68284698470024204670BD15
:1055DC00202C09D04E78012E33D0032E0AD0002E69
:1055EC0055D0FFF7DEFDF1E7D0F8B4329B68984751
:1055FC000446EBE790F89C32022B04D0032B11D01D
:10560C00FFF7CFFDE2E70AB1802A03D12846FFF766
:10561C00C8FDDBE7114600F0AAFA8021284600F00D
:10562C00A6FAD3E74B8823B91AB1802A01D0CB88CC
:10563C001BB1284600F0EEF8C8E7114600F097FAC7
:10564C00F7E790F89C32022B04D0032B11D0FFF714
:10565C00A8FDBBE70AB1802A03D12846FFF7A1FDBC
:10566C00B4E7114600F083FA8021284600F07FFA57
:10567C00ACE74B88002BA9D112F07F0F03D1284641
:10568C0000F0C8F8A2E7114600F079FAF7E790F8B5
:10569C009C02022806D0032829D02846FFF781FD5A
:1056AC00344693E70AB1802A13D113F0800F15D139
:1056BC0002F07F0202EB8202910001F5A8712944ED
:1056CC00043100230B600222284600F077F83446A0
:1056DC007CE72846FFF765FD344677E702F07F024A
:1056EC0002EB82029100103129440431E9E75BB2EC
:1056FC00002B1FDB02F00F0000EB800005EB80009D
:10570C00D0F8580120B3002B27DB02F07F0303EB0A
:10571C0083039C0004F5A8742C4404340AB1802A39
:10572C0024D10023236002222146284600F046F8AB
:10573C0034464BE702F00F0000EB800005EB8000D5
:10574C0080690028DFD12846FFF72BFD34463DE762
:10575C002846FFF726FD344638E702F07F0303EBBB
:10576C0083039C0010342C440434D7E7114628469C
:10577C0000F00DFA10B101232360D4E7002323605D
:10578C00D1E7D0B170B50D4616460446FFF7E1FCE3
:10579C00431C5B009BB233802B7003236B70022382
:1057AC0007E001345A1CD2B2E8540233DBB20021B8
:1057BC00A95420780028F4D170BD704708B5134661
:1057CC000222C0F89422C36103620A46002100F051
:1057DC00FDF9002008BD08B513460A46002100F06B
:1057EC00F5F9002008BD08B513460322C0F8942231
:1057FC00C0F85C31C0F860310A46002100F0EEF9C7
:10580C00002008BD08B513460A46002100F0E6F951
:10581C00002008BD08B50423C0F8943200231A46B2
:10582C00194600F0D3F9002008BD08B50523C0F8CF
:10583C00943200231A46194600F0D0F9002008BD16
:10584C0008B500220F491048FFF725FB70B90F4926
:10585C000D48FFF737FB60B90D490B48FFF714FBF8
:10586C0050B90948FFF735FB48B908BDFAF73EFEB9
:10587C00EDE7FAF73BFEEFE7FAF738FEF1E7FAF758
:10588C0035FEF2E7F4050020EC1300200C05002097
:10589C00E40500200020704700207047002070476E
:1058AC0012230B80004870471006002004230B8045
:1058BC000048704724060020002393421ED200B5F6
:1058CC0010E00CF1370C01F813C000014FEA430C47
:1058DC000CF1010C4FF0000E01F80CE00133DBB2BF
:1058EC00934209D24FEA107CB0F1204FE9D20CF16F
:1058FC00300C01F813C0E8E75DF804FB70470000BA
:10590C0038B50B4BD3F8E807D3F8EC47D3F8F0379E
:10591C00C01800D138BD074D0822A91CFFF7CCFFD9
:10592C00042205F112012046FFF7C6FFF2E700BF83
:10593C0000F0FF1F2806002008B51A230B80FFF784
:10594C00DFFF014808BD00BF2806002008B50A4645
:10595C0028B905490548FFF714FF034808BD02495B
:10596C000248FFF70EFFF8E7B0160020145E00089F
:10597C0010B50A46034C21460348FFF702FF2046A8
:10598C0010BD00BFB0160020345E000808B50A46F2
:10599C0028B905490548FFF7F4FE034808BD02493C
:1059AC000248FFF7EEFEF8E7B0160020485E00084C
:1059BC0008B50A4628B905490548FFF7E2FE034831
:1059CC0008BD02490248FFF7DCFEF8E7B0160020DC
:1059DC005C5E0008022805D8DFE800F00504020030
:1059EC00012070470220704702680E4B9A4200D08B
:1059FC00704700B583B003F5DA33DA6942F400027C
:105A0C00DA61DB6903F400030193019B0022114668
:105A1C001420FBF75DFB1420FBF792FB03B05DF841
:105A2C0004FB00BF005C004008B500F52C71D0F8F9
:105A3C00E802FFF766FA08BD08B501EB810300EB3D
:105A4C00C303D3F87C21D0F8E802FFF787FA08BD2E
:105A5C0008B501EB810300EBC303DA6BD0F8E80265
:105A6C00FFF7C2FA08BD08B5D0F8E802FFF763FBF0
:105A7C0008BD10B504468368022B09D10121D4F866
:105A8C00E802FFF741FBD4F8E802FFF715FB10BD65
:105A9C00FAF72CFDF2E7000010B50446D0F8E80246
:105AAC00FFF735FBA36923B1024A136943F00603E0
:105ABC00136110BD00ED00E008B5D0F8E802FFF767
:105ACC002FFB08BD10B504461948C0F8E842C4F8CD
